{
	"contracts/ERC1155MixedFungible.sol": {
		"ERC1155MixedFungible": {
			"abi": [
				{
					"anonymous": false,
					"inputs": [
						{
							"indexed": true,
							"internalType": "address",
							"name": "_owner",
							"type": "address"
						},
						{
							"indexed": true,
							"internalType": "address",
							"name": "_operator",
							"type": "address"
						},
						{
							"indexed": false,
							"internalType": "bool",
							"name": "_approved",
							"type": "bool"
						}
					],
					"name": "ApprovalForAll",
					"type": "event"
				},
				{
					"anonymous": false,
					"inputs": [
						{
							"indexed": true,
							"internalType": "address",
							"name": "_operator",
							"type": "address"
						},
						{
							"indexed": true,
							"internalType": "address",
							"name": "_from",
							"type": "address"
						},
						{
							"indexed": true,
							"internalType": "address",
							"name": "_to",
							"type": "address"
						},
						{
							"indexed": false,
							"internalType": "uint256[]",
							"name": "_ids",
							"type": "uint256[]"
						},
						{
							"indexed": false,
							"internalType": "uint256[]",
							"name": "_values",
							"type": "uint256[]"
						}
					],
					"name": "TransferBatch",
					"type": "event"
				},
				{
					"anonymous": false,
					"inputs": [
						{
							"indexed": true,
							"internalType": "address",
							"name": "_operator",
							"type": "address"
						},
						{
							"indexed": true,
							"internalType": "address",
							"name": "_from",
							"type": "address"
						},
						{
							"indexed": true,
							"internalType": "address",
							"name": "_to",
							"type": "address"
						},
						{
							"indexed": false,
							"internalType": "uint256",
							"name": "_id",
							"type": "uint256"
						},
						{
							"indexed": false,
							"internalType": "uint256",
							"name": "_value",
							"type": "uint256"
						}
					],
					"name": "TransferSingle",
					"type": "event"
				},
				{
					"anonymous": false,
					"inputs": [
						{
							"indexed": false,
							"internalType": "string",
							"name": "_value",
							"type": "string"
						},
						{
							"indexed": true,
							"internalType": "uint256",
							"name": "_id",
							"type": "uint256"
						}
					],
					"name": "URI",
					"type": "event"
				},
				{
					"constant": true,
					"inputs": [
						{
							"internalType": "address",
							"name": "_owner",
							"type": "address"
						},
						{
							"internalType": "uint256",
							"name": "_id",
							"type": "uint256"
						}
					],
					"name": "balanceOf",
					"outputs": [
						{
							"internalType": "uint256",
							"name": "",
							"type": "uint256"
						}
					],
					"payable": false,
					"stateMutability": "view",
					"type": "function"
				},
				{
					"constant": true,
					"inputs": [
						{
							"internalType": "address[]",
							"name": "_owners",
							"type": "address[]"
						},
						{
							"internalType": "uint256[]",
							"name": "_ids",
							"type": "uint256[]"
						}
					],
					"name": "balanceOfBatch",
					"outputs": [
						{
							"internalType": "uint256[]",
							"name": "",
							"type": "uint256[]"
						}
					],
					"payable": false,
					"stateMutability": "view",
					"type": "function"
				},
				{
					"constant": true,
					"inputs": [
						{
							"internalType": "uint256",
							"name": "_id",
							"type": "uint256"
						}
					],
					"name": "getNonFungibleBaseType",
					"outputs": [
						{
							"internalType": "uint256",
							"name": "",
							"type": "uint256"
						}
					],
					"payable": false,
					"stateMutability": "view",
					"type": "function"
				},
				{
					"constant": true,
					"inputs": [
						{
							"internalType": "uint256",
							"name": "_id",
							"type": "uint256"
						}
					],
					"name": "getNonFungibleIndex",
					"outputs": [
						{
							"internalType": "uint256",
							"name": "",
							"type": "uint256"
						}
					],
					"payable": false,
					"stateMutability": "view",
					"type": "function"
				},
				{
					"constant": true,
					"inputs": [
						{
							"internalType": "address",
							"name": "_owner",
							"type": "address"
						},
						{
							"internalType": "address",
							"name": "_operator",
							"type": "address"
						}
					],
					"name": "isApprovedForAll",
					"outputs": [
						{
							"internalType": "bool",
							"name": "",
							"type": "bool"
						}
					],
					"payable": false,
					"stateMutability": "view",
					"type": "function"
				},
				{
					"constant": true,
					"inputs": [
						{
							"internalType": "uint256",
							"name": "_id",
							"type": "uint256"
						}
					],
					"name": "isFungible",
					"outputs": [
						{
							"internalType": "bool",
							"name": "",
							"type": "bool"
						}
					],
					"payable": false,
					"stateMutability": "view",
					"type": "function"
				},
				{
					"constant": true,
					"inputs": [
						{
							"internalType": "uint256",
							"name": "_id",
							"type": "uint256"
						}
					],
					"name": "isNonFungible",
					"outputs": [
						{
							"internalType": "bool",
							"name": "",
							"type": "bool"
						}
					],
					"payable": false,
					"stateMutability": "view",
					"type": "function"
				},
				{
					"constant": true,
					"inputs": [
						{
							"internalType": "uint256",
							"name": "_id",
							"type": "uint256"
						}
					],
					"name": "isNonFungibleBaseType",
					"outputs": [
						{
							"internalType": "bool",
							"name": "",
							"type": "bool"
						}
					],
					"payable": false,
					"stateMutability": "view",
					"type": "function"
				},
				{
					"constant": true,
					"inputs": [
						{
							"internalType": "uint256",
							"name": "_id",
							"type": "uint256"
						}
					],
					"name": "isNonFungibleItem",
					"outputs": [
						{
							"internalType": "bool",
							"name": "",
							"type": "bool"
						}
					],
					"payable": false,
					"stateMutability": "view",
					"type": "function"
				},
				{
					"constant": true,
					"inputs": [
						{
							"internalType": "uint256",
							"name": "_id",
							"type": "uint256"
						}
					],
					"name": "ownerOf",
					"outputs": [
						{
							"internalType": "address",
							"name": "",
							"type": "address"
						}
					],
					"payable": false,
					"stateMutability": "view",
					"type": "function"
				},
				{
					"constant": false,
					"inputs": [
						{
							"internalType": "address",
							"name": "_from",
							"type": "address"
						},
						{
							"internalType": "address",
							"name": "_to",
							"type": "address"
						},
						{
							"internalType": "uint256[]",
							"name": "_ids",
							"type": "uint256[]"
						},
						{
							"internalType": "uint256[]",
							"name": "_values",
							"type": "uint256[]"
						},
						{
							"internalType": "bytes",
							"name": "_data",
							"type": "bytes"
						}
					],
					"name": "safeBatchTransferFrom",
					"outputs": [],
					"payable": false,
					"stateMutability": "nonpayable",
					"type": "function"
				},
				{
					"constant": false,
					"inputs": [
						{
							"internalType": "address",
							"name": "_from",
							"type": "address"
						},
						{
							"internalType": "address",
							"name": "_to",
							"type": "address"
						},
						{
							"internalType": "uint256",
							"name": "_id",
							"type": "uint256"
						},
						{
							"internalType": "uint256",
							"name": "_value",
							"type": "uint256"
						},
						{
							"internalType": "bytes",
							"name": "_data",
							"type": "bytes"
						}
					],
					"name": "safeTransferFrom",
					"outputs": [],
					"payable": false,
					"stateMutability": "nonpayable",
					"type": "function"
				},
				{
					"constant": false,
					"inputs": [
						{
							"internalType": "address",
							"name": "_operator",
							"type": "address"
						},
						{
							"internalType": "bool",
							"name": "_approved",
							"type": "bool"
						}
					],
					"name": "setApprovalForAll",
					"outputs": [],
					"payable": false,
					"stateMutability": "nonpayable",
					"type": "function"
				},
				{
					"constant": true,
					"inputs": [
						{
							"internalType": "bytes4",
							"name": "_interfaceId",
							"type": "bytes4"
						}
					],
					"name": "supportsInterface",
					"outputs": [
						{
							"internalType": "bool",
							"name": "",
							"type": "bool"
						}
					],
					"payable": false,
					"stateMutability": "view",
					"type": "function"
				}
			],
			"devdoc": {
				"details": "Extension to ERC1155 for Mixed Fungible and Non-Fungible Items support The main benefit is sharing of common type information, just like you do when creating a fungible id.",
				"methods": {
					"isApprovedForAll(address,address)": {
						"params": {
							"_operator": "Address of authorized operator",
							"_owner": "The owner of the Tokens"
						},
						"return": "True if the operator is approved, false if not"
					},
					"setApprovalForAll(address,bool)": {
						"details": "MUST emit the ApprovalForAll event on success.",
						"params": {
							"_approved": "True if the operator is approved, false to revoke approval",
							"_operator": "Address to add to the set of authorized operators"
						}
					}
				}
			},
			"evm": {
				"assembly": "    /* \"contracts/ERC1155MixedFungible.sol\":247:4971  contract ERC1155MixedFungible is ERC1155 {... */\n  mstore(0x40, 0x80)\n  callvalue\n    /* \"--CODEGEN--\":8:17   */\n  dup1\n    /* \"--CODEGEN--\":5:7   */\n  iszero\n  tag_1\n  jumpi\n    /* \"--CODEGEN--\":30:31   */\n  0x00\n    /* \"--CODEGEN--\":27:28   */\n  dup1\n    /* \"--CODEGEN--\":20:32   */\n  revert\n    /* \"--CODEGEN--\":5:7   */\ntag_1:\n    /* \"contracts/ERC1155MixedFungible.sol\":247:4971  contract ERC1155MixedFungible is ERC1155 {... */\n  pop\n  dataSize(sub_0)\n  dup1\n  dataOffset(sub_0)\n  0x00\n  codecopy\n  0x00\n  return\nstop\n\nsub_0: assembly {\n        /* \"contracts/ERC1155MixedFungible.sol\":247:4971  contract ERC1155MixedFungible is ERC1155 {... */\n      mstore(0x40, 0x80)\n      callvalue\n        /* \"--CODEGEN--\":8:17   */\n      dup1\n        /* \"--CODEGEN--\":5:7   */\n      iszero\n      tag_1\n      jumpi\n        /* \"--CODEGEN--\":30:31   */\n      0x00\n        /* \"--CODEGEN--\":27:28   */\n      dup1\n        /* \"--CODEGEN--\":20:32   */\n      revert\n        /* \"--CODEGEN--\":5:7   */\n    tag_1:\n        /* \"contracts/ERC1155MixedFungible.sol\":247:4971  contract ERC1155MixedFungible is ERC1155 {... */\n      pop\n      jumpi(tag_2, lt(calldatasize, 0x04))\n      shr(0xe0, calldataload(0x00))\n      dup1\n      0x7269a327\n      gt\n      tag_17\n      jumpi\n      dup1\n      0xadebf6f2\n      gt\n      tag_18\n      jumpi\n      dup1\n      0xadebf6f2\n      eq\n      tag_13\n      jumpi\n      dup1\n      0xe44591f0\n      eq\n      tag_14\n      jumpi\n      dup1\n      0xe985e9c5\n      eq\n      tag_15\n      jumpi\n      dup1\n      0xf242432a\n      eq\n      tag_16\n      jumpi\n      jump(tag_2)\n    tag_18:\n      dup1\n      0x7269a327\n      eq\n      tag_10\n      jumpi\n      dup1\n      0x9cca1c64\n      eq\n      tag_11\n      jumpi\n      dup1\n      0xa22cb465\n      eq\n      tag_12\n      jumpi\n      jump(tag_2)\n    tag_17:\n      dup1\n      0x4e1273f4\n      gt\n      tag_19\n      jumpi\n      dup1\n      0x4e1273f4\n      eq\n      tag_6\n      jumpi\n      dup1\n      0x5e81b958\n      eq\n      tag_7\n      jumpi\n      dup1\n      0x6352211e\n      eq\n      tag_8\n      jumpi\n      dup1\n      0x6f969c2d\n      eq\n      tag_9\n      jumpi\n      jump(tag_2)\n    tag_19:\n      dup1\n      0xfdd58e\n      eq\n      tag_3\n      jumpi\n      dup1\n      0x01ffc9a7\n      eq\n      tag_4\n      jumpi\n      dup1\n      0x2eb2c2d6\n      eq\n      tag_5\n      jumpi\n    tag_2:\n      0x00\n      dup1\n      revert\n        /* \"contracts/ERC1155MixedFungible.sol\":4183:4396  function balanceOf(address _owner, uint256 _id) external view returns (uint256) {... */\n    tag_3:\n      tag_20\n      0x04\n      dup1\n      calldatasize\n      sub\n        /* \"--CODEGEN--\":13:15   */\n      0x40\n        /* \"--CODEGEN--\":8:11   */\n      dup2\n        /* \"--CODEGEN--\":5:16   */\n      lt\n        /* \"--CODEGEN--\":2:4   */\n      iszero\n      tag_21\n      jumpi\n        /* \"--CODEGEN--\":29:30   */\n      0x00\n        /* \"--CODEGEN--\":26:27   */\n      dup1\n        /* \"--CODEGEN--\":19:31   */\n      revert\n        /* \"--CODEGEN--\":2:4   */\n    tag_21:\n        /* \"contracts/ERC1155MixedFungible.sol\":4183:4396  function balanceOf(address _owner, uint256 _id) external view returns (uint256) {... */\n      dup2\n      add\n      swap1\n      dup1\n      dup1\n      calldataload\n      0xffffffffffffffffffffffffffffffffffffffff\n      and\n      swap1\n      0x20\n      add\n      swap1\n      swap3\n      swap2\n      swap1\n      dup1\n      calldataload\n      swap1\n      0x20\n      add\n      swap1\n      swap3\n      swap2\n      swap1\n      pop\n      pop\n      pop\n      tag_22\n      jump\t// in\n    tag_20:\n      mload(0x40)\n      dup1\n      dup3\n      dup2\n      mstore\n      0x20\n      add\n      swap2\n      pop\n      pop\n      mload(0x40)\n      dup1\n      swap2\n      sub\n      swap1\n      return\n        /* \"contracts/ERC1155.sol\":1319:1592  function supportsInterface(bytes4 _interfaceId)... */\n    tag_4:\n      tag_23\n      0x04\n      dup1\n      calldatasize\n      sub\n        /* \"--CODEGEN--\":13:15   */\n      0x20\n        /* \"--CODEGEN--\":8:11   */\n      dup2\n        /* \"--CODEGEN--\":5:16   */\n      lt\n        /* \"--CODEGEN--\":2:4   */\n      iszero\n      tag_24\n      jumpi\n        /* \"--CODEGEN--\":29:30   */\n      0x00\n        /* \"--CODEGEN--\":26:27   */\n      dup1\n        /* \"--CODEGEN--\":19:31   */\n      revert\n        /* \"--CODEGEN--\":2:4   */\n    tag_24:\n        /* \"contracts/ERC1155.sol\":1319:1592  function supportsInterface(bytes4 _interfaceId)... */\n      dup2\n      add\n      swap1\n      dup1\n      dup1\n      calldataload\n      not(0xffffffffffffffffffffffffffffffffffffffffffffffffffffffff)\n      and\n      swap1\n      0x20\n      add\n      swap1\n      swap3\n      swap2\n      swap1\n      pop\n      pop\n      pop\n      tag_25\n      jump\t// in\n    tag_23:\n      mload(0x40)\n      dup1\n      dup3\n      iszero\n      iszero\n      iszero\n      iszero\n      dup2\n      mstore\n      0x20\n      add\n      swap2\n      pop\n      pop\n      mload(0x40)\n      dup1\n      swap2\n      sub\n      swap1\n      return\n        /* \"contracts/ERC1155MixedFungible.sol\":2910:4177  function safeBatchTransferFrom(address _from, address _to, uint256[] calldata _ids, uint256[] calldata _values, bytes calldata _data) external {... */\n    tag_5:\n      tag_26\n      0x04\n      dup1\n      calldatasize\n      sub\n        /* \"--CODEGEN--\":13:16   */\n      0xa0\n        /* \"--CODEGEN--\":8:11   */\n      dup2\n        /* \"--CODEGEN--\":5:17   */\n      lt\n        /* \"--CODEGEN--\":2:4   */\n      iszero\n      tag_27\n      jumpi\n        /* \"--CODEGEN--\":30:31   */\n      0x00\n        /* \"--CODEGEN--\":27:28   */\n      dup1\n        /* \"--CODEGEN--\":20:32   */\n      revert\n        /* \"--CODEGEN--\":2:4   */\n    tag_27:\n        /* \"contracts/ERC1155MixedFungible.sol\":2910:4177  function safeBatchTransferFrom(address _from, address _to, uint256[] calldata _ids, uint256[] calldata _values, bytes calldata _data) external {... */\n      dup2\n      add\n      swap1\n      dup1\n      dup1\n      calldataload\n      0xffffffffffffffffffffffffffffffffffffffff\n      and\n      swap1\n      0x20\n      add\n      swap1\n      swap3\n      swap2\n      swap1\n      dup1\n      calldataload\n      0xffffffffffffffffffffffffffffffffffffffff\n      and\n      swap1\n      0x20\n      add\n      swap1\n      swap3\n      swap2\n      swap1\n      dup1\n      calldataload\n      swap1\n      0x20\n      add\n      swap1\n        /* \"--CODEGEN--\":21:32   */\n      0x0100000000\n        /* \"--CODEGEN--\":8:19   */\n      dup2\n        /* \"--CODEGEN--\":5:33   */\n      gt\n        /* \"--CODEGEN--\":2:4   */\n      iszero\n      tag_28\n      jumpi\n        /* \"--CODEGEN--\":46:47   */\n      0x00\n        /* \"--CODEGEN--\":43:44   */\n      dup1\n        /* \"--CODEGEN--\":36:48   */\n      revert\n        /* \"--CODEGEN--\":2:4   */\n    tag_28:\n        /* \"contracts/ERC1155MixedFungible.sol\":2910:4177  function safeBatchTransferFrom(address _from, address _to, uint256[] calldata _ids, uint256[] calldata _values, bytes calldata _data) external {... */\n      dup3\n      add\n        /* \"--CODEGEN--\":35:44   */\n      dup4\n        /* \"--CODEGEN--\":28:32   */\n      0x20\n        /* \"--CODEGEN--\":12:26   */\n      dup3\n        /* \"--CODEGEN--\":8:33   */\n      add\n        /* \"--CODEGEN--\":5:45   */\n      gt\n        /* \"--CODEGEN--\":2:4   */\n      iszero\n      tag_29\n      jumpi\n        /* \"--CODEGEN--\":58:59   */\n      0x00\n        /* \"--CODEGEN--\":55:56   */\n      dup1\n        /* \"--CODEGEN--\":48:60   */\n      revert\n        /* \"--CODEGEN--\":2:4   */\n    tag_29:\n        /* \"contracts/ERC1155MixedFungible.sol\":2910:4177  function safeBatchTransferFrom(address _from, address _to, uint256[] calldata _ids, uint256[] calldata _values, bytes calldata _data) external {... */\n      dup1\n      calldataload\n      swap1\n      0x20\n      add\n      swap2\n        /* \"--CODEGEN--\":101:110   */\n      dup5\n        /* \"--CODEGEN--\":95:97   */\n      0x20\n        /* \"--CODEGEN--\":81:93   */\n      dup4\n        /* \"--CODEGEN--\":77:98   */\n      mul\n        /* \"--CODEGEN--\":67:75   */\n      dup5\n        /* \"--CODEGEN--\":63:99   */\n      add\n        /* \"--CODEGEN--\":60:111   */\n      gt\n        /* \"--CODEGEN--\":39:50   */\n      0x0100000000\n        /* \"--CODEGEN--\":25:37   */\n      dup4\n        /* \"--CODEGEN--\":22:51   */\n      gt\n        /* \"--CODEGEN--\":11:119   */\n      or\n        /* \"--CODEGEN--\":8:10   */\n      iszero\n      tag_30\n      jumpi\n        /* \"--CODEGEN--\":132:133   */\n      0x00\n        /* \"--CODEGEN--\":129:130   */\n      dup1\n        /* \"--CODEGEN--\":122:134   */\n      revert\n        /* \"--CODEGEN--\":8:10   */\n    tag_30:\n        /* \"contracts/ERC1155MixedFungible.sol\":2910:4177  function safeBatchTransferFrom(address _from, address _to, uint256[] calldata _ids, uint256[] calldata _values, bytes calldata _data) external {... */\n      swap1\n      swap2\n      swap3\n      swap4\n      swap2\n      swap3\n      swap4\n      swap1\n      dup1\n      calldataload\n      swap1\n      0x20\n      add\n      swap1\n        /* \"--CODEGEN--\":21:32   */\n      0x0100000000\n        /* \"--CODEGEN--\":8:19   */\n      dup2\n        /* \"--CODEGEN--\":5:33   */\n      gt\n        /* \"--CODEGEN--\":2:4   */\n      iszero\n      tag_31\n      jumpi\n        /* \"--CODEGEN--\":46:47   */\n      0x00\n        /* \"--CODEGEN--\":43:44   */\n      dup1\n        /* \"--CODEGEN--\":36:48   */\n      revert\n        /* \"--CODEGEN--\":2:4   */\n    tag_31:\n        /* \"contracts/ERC1155MixedFungible.sol\":2910:4177  function safeBatchTransferFrom(address _from, address _to, uint256[] calldata _ids, uint256[] calldata _values, bytes calldata _data) external {... */\n      dup3\n      add\n        /* \"--CODEGEN--\":35:44   */\n      dup4\n        /* \"--CODEGEN--\":28:32   */\n      0x20\n        /* \"--CODEGEN--\":12:26   */\n      dup3\n        /* \"--CODEGEN--\":8:33   */\n      add\n        /* \"--CODEGEN--\":5:45   */\n      gt\n        /* \"--CODEGEN--\":2:4   */\n      iszero\n      tag_32\n      jumpi\n        /* \"--CODEGEN--\":58:59   */\n      0x00\n        /* \"--CODEGEN--\":55:56   */\n      dup1\n        /* \"--CODEGEN--\":48:60   */\n      revert\n        /* \"--CODEGEN--\":2:4   */\n    tag_32:\n        /* \"contracts/ERC1155MixedFungible.sol\":2910:4177  function safeBatchTransferFrom(address _from, address _to, uint256[] calldata _ids, uint256[] calldata _values, bytes calldata _data) external {... */\n      dup1\n      calldataload\n      swap1\n      0x20\n      add\n      swap2\n        /* \"--CODEGEN--\":101:110   */\n      dup5\n        /* \"--CODEGEN--\":95:97   */\n      0x20\n        /* \"--CODEGEN--\":81:93   */\n      dup4\n        /* \"--CODEGEN--\":77:98   */\n      mul\n        /* \"--CODEGEN--\":67:75   */\n      dup5\n        /* \"--CODEGEN--\":63:99   */\n      add\n        /* \"--CODEGEN--\":60:111   */\n      gt\n        /* \"--CODEGEN--\":39:50   */\n      0x0100000000\n        /* \"--CODEGEN--\":25:37   */\n      dup4\n        /* \"--CODEGEN--\":22:51   */\n      gt\n        /* \"--CODEGEN--\":11:119   */\n      or\n        /* \"--CODEGEN--\":8:10   */\n      iszero\n      tag_33\n      jumpi\n        /* \"--CODEGEN--\":132:133   */\n      0x00\n        /* \"--CODEGEN--\":129:130   */\n      dup1\n        /* \"--CODEGEN--\":122:134   */\n      revert\n        /* \"--CODEGEN--\":8:10   */\n    tag_33:\n        /* \"contracts/ERC1155MixedFungible.sol\":2910:4177  function safeBatchTransferFrom(address _from, address _to, uint256[] calldata _ids, uint256[] calldata _values, bytes calldata _data) external {... */\n      swap1\n      swap2\n      swap3\n      swap4\n      swap2\n      swap3\n      swap4\n      swap1\n      dup1\n      calldataload\n      swap1\n      0x20\n      add\n      swap1\n        /* \"--CODEGEN--\":21:32   */\n      0x0100000000\n        /* \"--CODEGEN--\":8:19   */\n      dup2\n        /* \"--CODEGEN--\":5:33   */\n      gt\n        /* \"--CODEGEN--\":2:4   */\n      iszero\n      tag_34\n      jumpi\n        /* \"--CODEGEN--\":46:47   */\n      0x00\n        /* \"--CODEGEN--\":43:44   */\n      dup1\n        /* \"--CODEGEN--\":36:48   */\n      revert\n        /* \"--CODEGEN--\":2:4   */\n    tag_34:\n        /* \"contracts/ERC1155MixedFungible.sol\":2910:4177  function safeBatchTransferFrom(address _from, address _to, uint256[] calldata _ids, uint256[] calldata _values, bytes calldata _data) external {... */\n      dup3\n      add\n        /* \"--CODEGEN--\":35:44   */\n      dup4\n        /* \"--CODEGEN--\":28:32   */\n      0x20\n        /* \"--CODEGEN--\":12:26   */\n      dup3\n        /* \"--CODEGEN--\":8:33   */\n      add\n        /* \"--CODEGEN--\":5:45   */\n      gt\n        /* \"--CODEGEN--\":2:4   */\n      iszero\n      tag_35\n      jumpi\n        /* \"--CODEGEN--\":58:59   */\n      0x00\n        /* \"--CODEGEN--\":55:56   */\n      dup1\n        /* \"--CODEGEN--\":48:60   */\n      revert\n        /* \"--CODEGEN--\":2:4   */\n    tag_35:\n        /* \"contracts/ERC1155MixedFungible.sol\":2910:4177  function safeBatchTransferFrom(address _from, address _to, uint256[] calldata _ids, uint256[] calldata _values, bytes calldata _data) external {... */\n      dup1\n      calldataload\n      swap1\n      0x20\n      add\n      swap2\n        /* \"--CODEGEN--\":100:109   */\n      dup5\n        /* \"--CODEGEN--\":95:96   */\n      0x01\n        /* \"--CODEGEN--\":81:93   */\n      dup4\n        /* \"--CODEGEN--\":77:97   */\n      mul\n        /* \"--CODEGEN--\":67:75   */\n      dup5\n        /* \"--CODEGEN--\":63:98   */\n      add\n        /* \"--CODEGEN--\":60:110   */\n      gt\n        /* \"--CODEGEN--\":39:50   */\n      0x0100000000\n        /* \"--CODEGEN--\":25:37   */\n      dup4\n        /* \"--CODEGEN--\":22:51   */\n      gt\n        /* \"--CODEGEN--\":11:118   */\n      or\n        /* \"--CODEGEN--\":8:10   */\n      iszero\n      tag_36\n      jumpi\n        /* \"--CODEGEN--\":131:132   */\n      0x00\n        /* \"--CODEGEN--\":128:129   */\n      dup1\n        /* \"--CODEGEN--\":121:133   */\n      revert\n        /* \"--CODEGEN--\":8:10   */\n    tag_36:\n        /* \"contracts/ERC1155MixedFungible.sol\":2910:4177  function safeBatchTransferFrom(address _from, address _to, uint256[] calldata _ids, uint256[] calldata _values, bytes calldata _data) external {... */\n      swap1\n      swap2\n      swap3\n      swap4\n      swap2\n      swap3\n      swap4\n      swap1\n      pop\n      pop\n      pop\n      tag_37\n      jump\t// in\n    tag_26:\n      stop\n        /* \"contracts/ERC1155MixedFungible.sol\":4402:4969  function balanceOfBatch(address[] calldata _owners, uint256[] calldata _ids) external view returns (uint256[] memory) {... */\n    tag_6:\n      tag_38\n      0x04\n      dup1\n      calldatasize\n      sub\n        /* \"--CODEGEN--\":13:15   */\n      0x40\n        /* \"--CODEGEN--\":8:11   */\n      dup2\n        /* \"--CODEGEN--\":5:16   */\n      lt\n        /* \"--CODEGEN--\":2:4   */\n      iszero\n      tag_39\n      jumpi\n        /* \"--CODEGEN--\":29:30   */\n      0x00\n        /* \"--CODEGEN--\":26:27   */\n      dup1\n        /* \"--CODEGEN--\":19:31   */\n      revert\n        /* \"--CODEGEN--\":2:4   */\n    tag_39:\n        /* \"contracts/ERC1155MixedFungible.sol\":4402:4969  function balanceOfBatch(address[] calldata _owners, uint256[] calldata _ids) external view returns (uint256[] memory) {... */\n      dup2\n      add\n      swap1\n      dup1\n      dup1\n      calldataload\n      swap1\n      0x20\n      add\n      swap1\n        /* \"--CODEGEN--\":21:32   */\n      0x0100000000\n        /* \"--CODEGEN--\":8:19   */\n      dup2\n        /* \"--CODEGEN--\":5:33   */\n      gt\n        /* \"--CODEGEN--\":2:4   */\n      iszero\n      tag_40\n      jumpi\n        /* \"--CODEGEN--\":46:47   */\n      0x00\n        /* \"--CODEGEN--\":43:44   */\n      dup1\n        /* \"--CODEGEN--\":36:48   */\n      revert\n        /* \"--CODEGEN--\":2:4   */\n    tag_40:\n        /* \"contracts/ERC1155MixedFungible.sol\":4402:4969  function balanceOfBatch(address[] calldata _owners, uint256[] calldata _ids) external view returns (uint256[] memory) {... */\n      dup3\n      add\n        /* \"--CODEGEN--\":35:44   */\n      dup4\n        /* \"--CODEGEN--\":28:32   */\n      0x20\n        /* \"--CODEGEN--\":12:26   */\n      dup3\n        /* \"--CODEGEN--\":8:33   */\n      add\n        /* \"--CODEGEN--\":5:45   */\n      gt\n        /* \"--CODEGEN--\":2:4   */\n      iszero\n      tag_41\n      jumpi\n        /* \"--CODEGEN--\":58:59   */\n      0x00\n        /* \"--CODEGEN--\":55:56   */\n      dup1\n        /* \"--CODEGEN--\":48:60   */\n      revert\n        /* \"--CODEGEN--\":2:4   */\n    tag_41:\n        /* \"contracts/ERC1155MixedFungible.sol\":4402:4969  function balanceOfBatch(address[] calldata _owners, uint256[] calldata _ids) external view returns (uint256[] memory) {... */\n      dup1\n      calldataload\n      swap1\n      0x20\n      add\n      swap2\n        /* \"--CODEGEN--\":101:110   */\n      dup5\n        /* \"--CODEGEN--\":95:97   */\n      0x20\n        /* \"--CODEGEN--\":81:93   */\n      dup4\n        /* \"--CODEGEN--\":77:98   */\n      mul\n        /* \"--CODEGEN--\":67:75   */\n      dup5\n        /* \"--CODEGEN--\":63:99   */\n      add\n        /* \"--CODEGEN--\":60:111   */\n      gt\n        /* \"--CODEGEN--\":39:50   */\n      0x0100000000\n        /* \"--CODEGEN--\":25:37   */\n      dup4\n        /* \"--CODEGEN--\":22:51   */\n      gt\n        /* \"--CODEGEN--\":11:119   */\n      or\n        /* \"--CODEGEN--\":8:10   */\n      iszero\n      tag_42\n      jumpi\n        /* \"--CODEGEN--\":132:133   */\n      0x00\n        /* \"--CODEGEN--\":129:130   */\n      dup1\n        /* \"--CODEGEN--\":122:134   */\n      revert\n        /* \"--CODEGEN--\":8:10   */\n    tag_42:\n        /* \"contracts/ERC1155MixedFungible.sol\":4402:4969  function balanceOfBatch(address[] calldata _owners, uint256[] calldata _ids) external view returns (uint256[] memory) {... */\n      swap1\n      swap2\n      swap3\n      swap4\n      swap2\n      swap3\n      swap4\n      swap1\n      dup1\n      calldataload\n      swap1\n      0x20\n      add\n      swap1\n        /* \"--CODEGEN--\":21:32   */\n      0x0100000000\n        /* \"--CODEGEN--\":8:19   */\n      dup2\n        /* \"--CODEGEN--\":5:33   */\n      gt\n        /* \"--CODEGEN--\":2:4   */\n      iszero\n      tag_43\n      jumpi\n        /* \"--CODEGEN--\":46:47   */\n      0x00\n        /* \"--CODEGEN--\":43:44   */\n      dup1\n        /* \"--CODEGEN--\":36:48   */\n      revert\n        /* \"--CODEGEN--\":2:4   */\n    tag_43:\n        /* \"contracts/ERC1155MixedFungible.sol\":4402:4969  function balanceOfBatch(address[] calldata _owners, uint256[] calldata _ids) external view returns (uint256[] memory) {... */\n      dup3\n      add\n        /* \"--CODEGEN--\":35:44   */\n      dup4\n        /* \"--CODEGEN--\":28:32   */\n      0x20\n        /* \"--CODEGEN--\":12:26   */\n      dup3\n        /* \"--CODEGEN--\":8:33   */\n      add\n        /* \"--CODEGEN--\":5:45   */\n      gt\n        /* \"--CODEGEN--\":2:4   */\n      iszero\n      tag_44\n      jumpi\n        /* \"--CODEGEN--\":58:59   */\n      0x00\n        /* \"--CODEGEN--\":55:56   */\n      dup1\n        /* \"--CODEGEN--\":48:60   */\n      revert\n        /* \"--CODEGEN--\":2:4   */\n    tag_44:\n        /* \"contracts/ERC1155MixedFungible.sol\":4402:4969  function balanceOfBatch(address[] calldata _owners, uint256[] calldata _ids) external view returns (uint256[] memory) {... */\n      dup1\n      calldataload\n      swap1\n      0x20\n      add\n      swap2\n        /* \"--CODEGEN--\":101:110   */\n      dup5\n        /* \"--CODEGEN--\":95:97   */\n      0x20\n        /* \"--CODEGEN--\":81:93   */\n      dup4\n        /* \"--CODEGEN--\":77:98   */\n      mul\n        /* \"--CODEGEN--\":67:75   */\n      dup5\n        /* \"--CODEGEN--\":63:99   */\n      add\n        /* \"--CODEGEN--\":60:111   */\n      gt\n        /* \"--CODEGEN--\":39:50   */\n      0x0100000000\n        /* \"--CODEGEN--\":25:37   */\n      dup4\n        /* \"--CODEGEN--\":22:51   */\n      gt\n        /* \"--CODEGEN--\":11:119   */\n      or\n        /* \"--CODEGEN--\":8:10   */\n      iszero\n      tag_45\n      jumpi\n        /* \"--CODEGEN--\":132:133   */\n      0x00\n        /* \"--CODEGEN--\":129:130   */\n      dup1\n        /* \"--CODEGEN--\":122:134   */\n      revert\n        /* \"--CODEGEN--\":8:10   */\n    tag_45:\n        /* \"contracts/ERC1155MixedFungible.sol\":4402:4969  function balanceOfBatch(address[] calldata _owners, uint256[] calldata _ids) external view returns (uint256[] memory) {... */\n      swap1\n      swap2\n      swap3\n      swap4\n      swap2\n      swap3\n      swap4\n      swap1\n      pop\n      pop\n      pop\n      tag_46\n      jump\t// in\n    tag_38:\n      mload(0x40)\n      dup1\n      dup1\n      0x20\n      add\n      dup3\n      dup2\n      sub\n      dup3\n      mstore\n      dup4\n      dup2\n      dup2\n      mload\n      dup2\n      mstore\n      0x20\n      add\n      swap2\n      pop\n      dup1\n      mload\n      swap1\n      0x20\n      add\n      swap1\n      0x20\n      mul\n      dup1\n      dup4\n      dup4\n        /* \"--CODEGEN--\":23:24   */\n      0x00\n        /* \"--CODEGEN--\":8:108   */\n    tag_47:\n        /* \"--CODEGEN--\":33:36   */\n      dup4\n        /* \"--CODEGEN--\":30:31   */\n      dup2\n        /* \"--CODEGEN--\":27:37   */\n      lt\n        /* \"--CODEGEN--\":8:108   */\n      iszero\n      tag_49\n      jumpi\n        /* \"--CODEGEN--\":99:100   */\n      dup1\n        /* \"--CODEGEN--\":94:97   */\n      dup3\n        /* \"--CODEGEN--\":90:101   */\n      add\n        /* \"--CODEGEN--\":84:102   */\n      mload\n        /* \"--CODEGEN--\":80:81   */\n      dup2\n        /* \"--CODEGEN--\":75:78   */\n      dup5\n        /* \"--CODEGEN--\":71:82   */\n      add\n        /* \"--CODEGEN--\":64:103   */\n      mstore\n        /* \"--CODEGEN--\":52:54   */\n      0x20\n        /* \"--CODEGEN--\":49:50   */\n      dup2\n        /* \"--CODEGEN--\":45:55   */\n      add\n        /* \"--CODEGEN--\":40:55   */\n      swap1\n      pop\n        /* \"--CODEGEN--\":8:108   */\n      jump(tag_47)\n    tag_49:\n        /* \"--CODEGEN--\":12:26   */\n      pop\n        /* \"contracts/ERC1155MixedFungible.sol\":4402:4969  function balanceOfBatch(address[] calldata _owners, uint256[] calldata _ids) external view returns (uint256[] memory) {... */\n      pop\n      pop\n      pop\n      swap1\n      pop\n      add\n      swap3\n      pop\n      pop\n      pop\n      mload(0x40)\n      dup1\n      swap2\n      sub\n      swap1\n      return\n        /* \"contracts/ERC1155MixedFungible.sol\":1449:1664  function isNonFungibleItem(uint256 _id) public pure returns(bool) {... */\n    tag_7:\n      tag_50\n      0x04\n      dup1\n      calldatasize\n      sub\n        /* \"--CODEGEN--\":13:15   */\n      0x20\n        /* \"--CODEGEN--\":8:11   */\n      dup2\n        /* \"--CODEGEN--\":5:16   */\n      lt\n        /* \"--CODEGEN--\":2:4   */\n      iszero\n      tag_51\n      jumpi\n        /* \"--CODEGEN--\":29:30   */\n      0x00\n        /* \"--CODEGEN--\":26:27   */\n      dup1\n        /* \"--CODEGEN--\":19:31   */\n      revert\n        /* \"--CODEGEN--\":2:4   */\n    tag_51:\n        /* \"contracts/ERC1155MixedFungible.sol\":1449:1664  function isNonFungibleItem(uint256 _id) public pure returns(bool) {... */\n      dup2\n      add\n      swap1\n      dup1\n      dup1\n      calldataload\n      swap1\n      0x20\n      add\n      swap1\n      swap3\n      swap2\n      swap1\n      pop\n      pop\n      pop\n      tag_52\n      jump\t// in\n    tag_50:\n      mload(0x40)\n      dup1\n      dup3\n      iszero\n      iszero\n      iszero\n      iszero\n      dup2\n      mstore\n      0x20\n      add\n      swap2\n      pop\n      pop\n      mload(0x40)\n      dup1\n      swap2\n      sub\n      swap1\n      return\n        /* \"contracts/ERC1155MixedFungible.sol\":1669:1766  function ownerOf(uint256 _id) public view returns (address) {... */\n    tag_8:\n      tag_53\n      0x04\n      dup1\n      calldatasize\n      sub\n        /* \"--CODEGEN--\":13:15   */\n      0x20\n        /* \"--CODEGEN--\":8:11   */\n      dup2\n        /* \"--CODEGEN--\":5:16   */\n      lt\n        /* \"--CODEGEN--\":2:4   */\n      iszero\n      tag_54\n      jumpi\n        /* \"--CODEGEN--\":29:30   */\n      0x00\n        /* \"--CODEGEN--\":26:27   */\n      dup1\n        /* \"--CODEGEN--\":19:31   */\n      revert\n        /* \"--CODEGEN--\":2:4   */\n    tag_54:\n        /* \"contracts/ERC1155MixedFungible.sol\":1669:1766  function ownerOf(uint256 _id) public view returns (address) {... */\n      dup2\n      add\n      swap1\n      dup1\n      dup1\n      calldataload\n      swap1\n      0x20\n      add\n      swap1\n      swap3\n      swap2\n      swap1\n      pop\n      pop\n      pop\n      tag_55\n      jump\t// in\n    tag_53:\n      mload(0x40)\n      dup1\n      dup3\n      0xffffffffffffffffffffffffffffffffffffffff\n      and\n      0xffffffffffffffffffffffffffffffffffffffff\n      and\n      dup2\n      mstore\n      0x20\n      add\n      swap2\n      pop\n      pop\n      mload(0x40)\n      dup1\n      swap2\n      sub\n      swap1\n      return\n        /* \"contracts/ERC1155MixedFungible.sol\":1102:1215  function getNonFungibleBaseType(uint256 _id) public pure returns(uint256) {... */\n    tag_9:\n      tag_56\n      0x04\n      dup1\n      calldatasize\n      sub\n        /* \"--CODEGEN--\":13:15   */\n      0x20\n        /* \"--CODEGEN--\":8:11   */\n      dup2\n        /* \"--CODEGEN--\":5:16   */\n      lt\n        /* \"--CODEGEN--\":2:4   */\n      iszero\n      tag_57\n      jumpi\n        /* \"--CODEGEN--\":29:30   */\n      0x00\n        /* \"--CODEGEN--\":26:27   */\n      dup1\n        /* \"--CODEGEN--\":19:31   */\n      revert\n        /* \"--CODEGEN--\":2:4   */\n    tag_57:\n        /* \"contracts/ERC1155MixedFungible.sol\":1102:1215  function getNonFungibleBaseType(uint256 _id) public pure returns(uint256) {... */\n      dup2\n      add\n      swap1\n      dup1\n      dup1\n      calldataload\n      swap1\n      0x20\n      add\n      swap1\n      swap3\n      swap2\n      swap1\n      pop\n      pop\n      pop\n      tag_58\n      jump\t// in\n    tag_56:\n      mload(0x40)\n      dup1\n      dup3\n      dup2\n      mstore\n      0x20\n      add\n      swap2\n      pop\n      pop\n      mload(0x40)\n      dup1\n      swap2\n      sub\n      swap1\n      return\n        /* \"contracts/ERC1155MixedFungible.sol\":1220:1444  function isNonFungibleBaseType(uint256 _id) public pure returns(bool) {... */\n    tag_10:\n      tag_59\n      0x04\n      dup1\n      calldatasize\n      sub\n        /* \"--CODEGEN--\":13:15   */\n      0x20\n        /* \"--CODEGEN--\":8:11   */\n      dup2\n        /* \"--CODEGEN--\":5:16   */\n      lt\n        /* \"--CODEGEN--\":2:4   */\n      iszero\n      tag_60\n      jumpi\n        /* \"--CODEGEN--\":29:30   */\n      0x00\n        /* \"--CODEGEN--\":26:27   */\n      dup1\n        /* \"--CODEGEN--\":19:31   */\n      revert\n        /* \"--CODEGEN--\":2:4   */\n    tag_60:\n        /* \"contracts/ERC1155MixedFungible.sol\":1220:1444  function isNonFungibleBaseType(uint256 _id) public pure returns(bool) {... */\n      dup2\n      add\n      swap1\n      dup1\n      dup1\n      calldataload\n      swap1\n      0x20\n      add\n      swap1\n      swap3\n      swap2\n      swap1\n      pop\n      pop\n      pop\n      tag_61\n      jump\t// in\n    tag_59:\n      mload(0x40)\n      dup1\n      dup3\n      iszero\n      iszero\n      iszero\n      iszero\n      dup2\n      mstore\n      0x20\n      add\n      swap2\n      pop\n      pop\n      mload(0x40)\n      dup1\n      swap2\n      sub\n      swap1\n      return\n        /* \"contracts/ERC1155MixedFungible.sol\":983:1097  function getNonFungibleIndex(uint256 _id) public pure returns(uint256) {... */\n    tag_11:\n      tag_62\n      0x04\n      dup1\n      calldatasize\n      sub\n        /* \"--CODEGEN--\":13:15   */\n      0x20\n        /* \"--CODEGEN--\":8:11   */\n      dup2\n        /* \"--CODEGEN--\":5:16   */\n      lt\n        /* \"--CODEGEN--\":2:4   */\n      iszero\n      tag_63\n      jumpi\n        /* \"--CODEGEN--\":29:30   */\n      0x00\n        /* \"--CODEGEN--\":26:27   */\n      dup1\n        /* \"--CODEGEN--\":19:31   */\n      revert\n        /* \"--CODEGEN--\":2:4   */\n    tag_63:\n        /* \"contracts/ERC1155MixedFungible.sol\":983:1097  function getNonFungibleIndex(uint256 _id) public pure returns(uint256) {... */\n      dup2\n      add\n      swap1\n      dup1\n      dup1\n      calldataload\n      swap1\n      0x20\n      add\n      swap1\n      swap3\n      swap2\n      swap1\n      pop\n      pop\n      pop\n      tag_64\n      jump\t// in\n    tag_62:\n      mload(0x40)\n      dup1\n      dup3\n      dup2\n      mstore\n      0x20\n      add\n      swap2\n      pop\n      pop\n      mload(0x40)\n      dup1\n      swap2\n      sub\n      swap1\n      return\n        /* \"contracts/ERC1155.sol\":8817:9019  function setApprovalForAll(address _operator, bool _approved) external {... */\n    tag_12:\n      tag_65\n      0x04\n      dup1\n      calldatasize\n      sub\n        /* \"--CODEGEN--\":13:15   */\n      0x40\n        /* \"--CODEGEN--\":8:11   */\n      dup2\n        /* \"--CODEGEN--\":5:16   */\n      lt\n        /* \"--CODEGEN--\":2:4   */\n      iszero\n      tag_66\n      jumpi\n        /* \"--CODEGEN--\":29:30   */\n      0x00\n        /* \"--CODEGEN--\":26:27   */\n      dup1\n        /* \"--CODEGEN--\":19:31   */\n      revert\n        /* \"--CODEGEN--\":2:4   */\n    tag_66:\n        /* \"contracts/ERC1155.sol\":8817:9019  function setApprovalForAll(address _operator, bool _approved) external {... */\n      dup2\n      add\n      swap1\n      dup1\n      dup1\n      calldataload\n      0xffffffffffffffffffffffffffffffffffffffff\n      and\n      swap1\n      0x20\n      add\n      swap1\n      swap3\n      swap2\n      swap1\n      dup1\n      calldataload\n      iszero\n      iszero\n      swap1\n      0x20\n      add\n      swap1\n      swap3\n      swap2\n      swap1\n      pop\n      pop\n      pop\n      tag_67\n      jump\t// in\n    tag_65:\n      stop\n        /* \"contracts/ERC1155MixedFungible.sol\":873:978  function isFungible(uint256 _id) public pure returns(bool) {... */\n    tag_13:\n      tag_68\n      0x04\n      dup1\n      calldatasize\n      sub\n        /* \"--CODEGEN--\":13:15   */\n      0x20\n        /* \"--CODEGEN--\":8:11   */\n      dup2\n        /* \"--CODEGEN--\":5:16   */\n      lt\n        /* \"--CODEGEN--\":2:4   */\n      iszero\n      tag_69\n      jumpi\n        /* \"--CODEGEN--\":29:30   */\n      0x00\n        /* \"--CODEGEN--\":26:27   */\n      dup1\n        /* \"--CODEGEN--\":19:31   */\n      revert\n        /* \"--CODEGEN--\":2:4   */\n    tag_69:\n        /* \"contracts/ERC1155MixedFungible.sol\":873:978  function isFungible(uint256 _id) public pure returns(bool) {... */\n      dup2\n      add\n      swap1\n      dup1\n      dup1\n      calldataload\n      swap1\n      0x20\n      add\n      swap1\n      swap3\n      swap2\n      swap1\n      pop\n      pop\n      pop\n      tag_70\n      jump\t// in\n    tag_68:\n      mload(0x40)\n      dup1\n      dup3\n      iszero\n      iszero\n      iszero\n      iszero\n      dup2\n      mstore\n      0x20\n      add\n      swap2\n      pop\n      pop\n      mload(0x40)\n      dup1\n      swap2\n      sub\n      swap1\n      return\n        /* \"contracts/ERC1155MixedFungible.sol\":750:868  function isNonFungible(uint256 _id) public pure returns(bool) {... */\n    tag_14:\n      tag_71\n      0x04\n      dup1\n      calldatasize\n      sub\n        /* \"--CODEGEN--\":13:15   */\n      0x20\n        /* \"--CODEGEN--\":8:11   */\n      dup2\n        /* \"--CODEGEN--\":5:16   */\n      lt\n        /* \"--CODEGEN--\":2:4   */\n      iszero\n      tag_72\n      jumpi\n        /* \"--CODEGEN--\":29:30   */\n      0x00\n        /* \"--CODEGEN--\":26:27   */\n      dup1\n        /* \"--CODEGEN--\":19:31   */\n      revert\n        /* \"--CODEGEN--\":2:4   */\n    tag_72:\n        /* \"contracts/ERC1155MixedFungible.sol\":750:868  function isNonFungible(uint256 _id) public pure returns(bool) {... */\n      dup2\n      add\n      swap1\n      dup1\n      dup1\n      calldataload\n      swap1\n      0x20\n      add\n      swap1\n      swap3\n      swap2\n      swap1\n      pop\n      pop\n      pop\n      tag_73\n      jump\t// in\n    tag_71:\n      mload(0x40)\n      dup1\n      dup3\n      iszero\n      iszero\n      iszero\n      iszero\n      dup2\n      mstore\n      0x20\n      add\n      swap2\n      pop\n      pop\n      mload(0x40)\n      dup1\n      swap2\n      sub\n      swap1\n      return\n        /* \"contracts/ERC1155.sol\":9298:9447  function isApprovedForAll(address _owner, address _operator) external view returns (bool) {... */\n    tag_15:\n      tag_74\n      0x04\n      dup1\n      calldatasize\n      sub\n        /* \"--CODEGEN--\":13:15   */\n      0x40\n        /* \"--CODEGEN--\":8:11   */\n      dup2\n        /* \"--CODEGEN--\":5:16   */\n      lt\n        /* \"--CODEGEN--\":2:4   */\n      iszero\n      tag_75\n      jumpi\n        /* \"--CODEGEN--\":29:30   */\n      0x00\n        /* \"--CODEGEN--\":26:27   */\n      dup1\n        /* \"--CODEGEN--\":19:31   */\n      revert\n        /* \"--CODEGEN--\":2:4   */\n    tag_75:\n        /* \"contracts/ERC1155.sol\":9298:9447  function isApprovedForAll(address _owner, address _operator) external view returns (bool) {... */\n      dup2\n      add\n      swap1\n      dup1\n      dup1\n      calldataload\n      0xffffffffffffffffffffffffffffffffffffffff\n      and\n      swap1\n      0x20\n      add\n      swap1\n      swap3\n      swap2\n      swap1\n      dup1\n      calldataload\n      0xffffffffffffffffffffffffffffffffffffffff\n      and\n      swap1\n      0x20\n      add\n      swap1\n      swap3\n      swap2\n      swap1\n      pop\n      pop\n      pop\n      tag_76\n      jump\t// in\n    tag_74:\n      mload(0x40)\n      dup1\n      dup3\n      iszero\n      iszero\n      iszero\n      iszero\n      dup2\n      mstore\n      0x20\n      add\n      swap2\n      pop\n      pop\n      mload(0x40)\n      dup1\n      swap2\n      sub\n      swap1\n      return\n        /* \"contracts/ERC1155MixedFungible.sol\":1788:2888  function safeTransferFrom(address _from, address _to, uint256 _id, uint256 _value, bytes calldata _data) external {... */\n    tag_16:\n      tag_77\n      0x04\n      dup1\n      calldatasize\n      sub\n        /* \"--CODEGEN--\":13:16   */\n      0xa0\n        /* \"--CODEGEN--\":8:11   */\n      dup2\n        /* \"--CODEGEN--\":5:17   */\n      lt\n        /* \"--CODEGEN--\":2:4   */\n      iszero\n      tag_78\n      jumpi\n        /* \"--CODEGEN--\":30:31   */\n      0x00\n        /* \"--CODEGEN--\":27:28   */\n      dup1\n        /* \"--CODEGEN--\":20:32   */\n      revert\n        /* \"--CODEGEN--\":2:4   */\n    tag_78:\n        /* \"contracts/ERC1155MixedFungible.sol\":1788:2888  function safeTransferFrom(address _from, address _to, uint256 _id, uint256 _value, bytes calldata _data) external {... */\n      dup2\n      add\n      swap1\n      dup1\n      dup1\n      calldataload\n      0xffffffffffffffffffffffffffffffffffffffff\n      and\n      swap1\n      0x20\n      add\n      swap1\n      swap3\n      swap2\n      swap1\n      dup1\n      calldataload\n      0xffffffffffffffffffffffffffffffffffffffff\n      and\n      swap1\n      0x20\n      add\n      swap1\n      swap3\n      swap2\n      swap1\n      dup1\n      calldataload\n      swap1\n      0x20\n      add\n      swap1\n      swap3\n      swap2\n      swap1\n      dup1\n      calldataload\n      swap1\n      0x20\n      add\n      swap1\n      swap3\n      swap2\n      swap1\n      dup1\n      calldataload\n      swap1\n      0x20\n      add\n      swap1\n        /* \"--CODEGEN--\":21:32   */\n      0x0100000000\n        /* \"--CODEGEN--\":8:19   */\n      dup2\n        /* \"--CODEGEN--\":5:33   */\n      gt\n        /* \"--CODEGEN--\":2:4   */\n      iszero\n      tag_79\n      jumpi\n        /* \"--CODEGEN--\":46:47   */\n      0x00\n        /* \"--CODEGEN--\":43:44   */\n      dup1\n        /* \"--CODEGEN--\":36:48   */\n      revert\n        /* \"--CODEGEN--\":2:4   */\n    tag_79:\n        /* \"contracts/ERC1155MixedFungible.sol\":1788:2888  function safeTransferFrom(address _from, address _to, uint256 _id, uint256 _value, bytes calldata _data) external {... */\n      dup3\n      add\n        /* \"--CODEGEN--\":35:44   */\n      dup4\n        /* \"--CODEGEN--\":28:32   */\n      0x20\n        /* \"--CODEGEN--\":12:26   */\n      dup3\n        /* \"--CODEGEN--\":8:33   */\n      add\n        /* \"--CODEGEN--\":5:45   */\n      gt\n        /* \"--CODEGEN--\":2:4   */\n      iszero\n      tag_80\n      jumpi\n        /* \"--CODEGEN--\":58:59   */\n      0x00\n        /* \"--CODEGEN--\":55:56   */\n      dup1\n        /* \"--CODEGEN--\":48:60   */\n      revert\n        /* \"--CODEGEN--\":2:4   */\n    tag_80:\n        /* \"contracts/ERC1155MixedFungible.sol\":1788:2888  function safeTransferFrom(address _from, address _to, uint256 _id, uint256 _value, bytes calldata _data) external {... */\n      dup1\n      calldataload\n      swap1\n      0x20\n      add\n      swap2\n        /* \"--CODEGEN--\":100:109   */\n      dup5\n        /* \"--CODEGEN--\":95:96   */\n      0x01\n        /* \"--CODEGEN--\":81:93   */\n      dup4\n        /* \"--CODEGEN--\":77:97   */\n      mul\n        /* \"--CODEGEN--\":67:75   */\n      dup5\n        /* \"--CODEGEN--\":63:98   */\n      add\n        /* \"--CODEGEN--\":60:110   */\n      gt\n        /* \"--CODEGEN--\":39:50   */\n      0x0100000000\n        /* \"--CODEGEN--\":25:37   */\n      dup4\n        /* \"--CODEGEN--\":22:51   */\n      gt\n        /* \"--CODEGEN--\":11:118   */\n      or\n        /* \"--CODEGEN--\":8:10   */\n      iszero\n      tag_81\n      jumpi\n        /* \"--CODEGEN--\":131:132   */\n      0x00\n        /* \"--CODEGEN--\":128:129   */\n      dup1\n        /* \"--CODEGEN--\":121:133   */\n      revert\n        /* \"--CODEGEN--\":8:10   */\n    tag_81:\n        /* \"contracts/ERC1155MixedFungible.sol\":1788:2888  function safeTransferFrom(address _from, address _to, uint256 _id, uint256 _value, bytes calldata _data) external {... */\n      swap1\n      swap2\n      swap3\n      swap4\n      swap2\n      swap3\n      swap4\n      swap1\n      pop\n      pop\n      pop\n      tag_82\n      jump\t// in\n    tag_77:\n      stop\n        /* \"contracts/ERC1155MixedFungible.sol\":4183:4396  function balanceOf(address _owner, uint256 _id) external view returns (uint256) {... */\n    tag_22:\n        /* \"contracts/ERC1155MixedFungible.sol\":4254:4261  uint256 */\n      0x00\n        /* \"contracts/ERC1155MixedFungible.sol\":4277:4299  isNonFungibleItem(_id) */\n      tag_84\n        /* \"contracts/ERC1155MixedFungible.sol\":4295:4298  _id */\n      dup3\n        /* \"contracts/ERC1155MixedFungible.sol\":4277:4294  isNonFungibleItem */\n      tag_52\n        /* \"contracts/ERC1155MixedFungible.sol\":4277:4299  isNonFungibleItem(_id) */\n      jump\t// in\n    tag_84:\n        /* \"contracts/ERC1155MixedFungible.sol\":4273:4351  if (isNonFungibleItem(_id))... */\n      iszero\n      tag_85\n      jumpi\n        /* \"contracts/ERC1155MixedFungible.sol\":4337:4343  _owner */\n      dup3\n        /* \"contracts/ERC1155MixedFungible.sol\":4320:4343  nfOwners[_id] == _owner */\n      0xffffffffffffffffffffffffffffffffffffffff\n      and\n        /* \"contracts/ERC1155MixedFungible.sol\":4320:4328  nfOwners */\n      0x02\n        /* \"contracts/ERC1155MixedFungible.sol\":4320:4333  nfOwners[_id] */\n      0x00\n        /* \"contracts/ERC1155MixedFungible.sol\":4329:4332  _id */\n      dup5\n        /* \"contracts/ERC1155MixedFungible.sol\":4320:4333  nfOwners[_id] */\n      dup2\n      mstore\n      0x20\n      add\n      swap1\n      dup2\n      mstore\n      0x20\n      add\n      0x00\n      keccak256\n      0x00\n      swap1\n      sload\n      swap1\n      0x0100\n      exp\n      swap1\n      div\n      0xffffffffffffffffffffffffffffffffffffffff\n      and\n        /* \"contracts/ERC1155MixedFungible.sol\":4320:4343  nfOwners[_id] == _owner */\n      0xffffffffffffffffffffffffffffffffffffffff\n      and\n      eq\n        /* \"contracts/ERC1155MixedFungible.sol\":4320:4351  nfOwners[_id] == _owner ? 1 : 0 */\n      tag_86\n      jumpi\n        /* \"contracts/ERC1155MixedFungible.sol\":4350:4351  0 */\n      0x00\n        /* \"contracts/ERC1155MixedFungible.sol\":4320:4351  nfOwners[_id] == _owner ? 1 : 0 */\n      jump(tag_87)\n    tag_86:\n        /* \"contracts/ERC1155MixedFungible.sol\":4346:4347  1 */\n      0x01\n        /* \"contracts/ERC1155MixedFungible.sol\":4320:4351  nfOwners[_id] == _owner ? 1 : 0 */\n    tag_87:\n        /* \"contracts/ERC1155MixedFungible.sol\":4313:4351  return nfOwners[_id] == _owner ? 1 : 0 */\n      0xff\n      and\n      swap1\n      pop\n      jump(tag_83)\n        /* \"contracts/ERC1155MixedFungible.sol\":4273:4351  if (isNonFungibleItem(_id))... */\n    tag_85:\n        /* \"contracts/ERC1155MixedFungible.sol\":4368:4376  balances */\n      0x00\n        /* \"contracts/ERC1155MixedFungible.sol\":4368:4381  balances[_id] */\n      dup1\n        /* \"contracts/ERC1155MixedFungible.sol\":4377:4380  _id */\n      dup4\n        /* \"contracts/ERC1155MixedFungible.sol\":4368:4381  balances[_id] */\n      dup2\n      mstore\n      0x20\n      add\n      swap1\n      dup2\n      mstore\n      0x20\n      add\n      0x00\n      keccak256\n        /* \"contracts/ERC1155MixedFungible.sol\":4368:4389  balances[_id][_owner] */\n      0x00\n        /* \"contracts/ERC1155MixedFungible.sol\":4382:4388  _owner */\n      dup5\n        /* \"contracts/ERC1155MixedFungible.sol\":4368:4389  balances[_id][_owner] */\n      0xffffffffffffffffffffffffffffffffffffffff\n      and\n      0xffffffffffffffffffffffffffffffffffffffff\n      and\n      dup2\n      mstore\n      0x20\n      add\n      swap1\n      dup2\n      mstore\n      0x20\n      add\n      0x00\n      keccak256\n      sload\n        /* \"contracts/ERC1155MixedFungible.sol\":4361:4389  return balances[_id][_owner] */\n      swap1\n      pop\n        /* \"contracts/ERC1155MixedFungible.sol\":4183:4396  function balanceOf(address _owner, uint256 _id) external view returns (uint256) {... */\n    tag_83:\n      swap3\n      swap2\n      pop\n      pop\n      jump\t// out\n        /* \"contracts/ERC1155.sol\":1319:1592  function supportsInterface(bytes4 _interfaceId)... */\n    tag_25:\n        /* \"contracts/ERC1155.sol\":1400:1404  bool */\n      0x00\n        /* \"contracts/ERC1155.sol\":782:792  0x01ffc9a7 */\n      0x01ffc9a7\n        /* \"contracts/ERC1155.sol\":1437:1463  INTERFACE_SIGNATURE_ERC165 */\n      0xe0\n      shl\n        /* \"contracts/ERC1155.sol\":1421:1463  _interfaceId == INTERFACE_SIGNATURE_ERC165 */\n      not(0xffffffffffffffffffffffffffffffffffffffffffffffffffffffff)\n      and\n        /* \"contracts/ERC1155.sol\":1421:1433  _interfaceId */\n      dup3\n        /* \"contracts/ERC1155.sol\":1421:1463  _interfaceId == INTERFACE_SIGNATURE_ERC165 */\n      not(0xffffffffffffffffffffffffffffffffffffffffffffffffffffffff)\n      and\n      eq\n        /* \"contracts/ERC1155.sol\":1421:1523  _interfaceId == INTERFACE_SIGNATURE_ERC165 ||... */\n      dup1\n      tag_89\n      jumpi\n      pop\n        /* \"contracts/ERC1155.sol\":1302:1312  0xd9b67a26 */\n      0xd9b67a26\n        /* \"contracts/ERC1155.sol\":1496:1523  INTERFACE_SIGNATURE_ERC1155 */\n      0xe0\n      shl\n        /* \"contracts/ERC1155.sol\":1480:1523  _interfaceId == INTERFACE_SIGNATURE_ERC1155 */\n      not(0xffffffffffffffffffffffffffffffffffffffffffffffffffffffff)\n      and\n        /* \"contracts/ERC1155.sol\":1480:1492  _interfaceId */\n      dup3\n        /* \"contracts/ERC1155.sol\":1480:1523  _interfaceId == INTERFACE_SIGNATURE_ERC1155 */\n      not(0xffffffffffffffffffffffffffffffffffffffffffffffffffffffff)\n      and\n      eq\n        /* \"contracts/ERC1155.sol\":1421:1523  _interfaceId == INTERFACE_SIGNATURE_ERC165 ||... */\n    tag_89:\n        /* \"contracts/ERC1155.sol\":1417:1562  if (_interfaceId == INTERFACE_SIGNATURE_ERC165 ||... */\n      iszero\n      tag_90\n      jumpi\n        /* \"contracts/ERC1155.sol\":1546:1550  true */\n      0x01\n        /* \"contracts/ERC1155.sol\":1539:1550  return true */\n      swap1\n      pop\n      jump(tag_88)\n        /* \"contracts/ERC1155.sol\":1417:1562  if (_interfaceId == INTERFACE_SIGNATURE_ERC165 ||... */\n    tag_90:\n        /* \"contracts/ERC1155.sol\":1580:1585  false */\n      0x00\n        /* \"contracts/ERC1155.sol\":1573:1585  return false */\n      swap1\n      pop\n        /* \"contracts/ERC1155.sol\":1319:1592  function supportsInterface(bytes4 _interfaceId)... */\n    tag_88:\n      swap2\n      swap1\n      pop\n      jump\t// out\n        /* \"contracts/ERC1155MixedFungible.sol\":2910:4177  function safeBatchTransferFrom(address _from, address _to, uint256[] calldata _ids, uint256[] calldata _values, bytes calldata _data) external {... */\n    tag_37:\n        /* \"contracts/ERC1155MixedFungible.sol\":3087:3090  0x0 */\n      0x00\n        /* \"contracts/ERC1155MixedFungible.sol\":3072:3091  _to != address(0x0) */\n      0xffffffffffffffffffffffffffffffffffffffff\n      and\n        /* \"contracts/ERC1155MixedFungible.sol\":3072:3075  _to */\n      dup8\n        /* \"contracts/ERC1155MixedFungible.sol\":3072:3091  _to != address(0x0) */\n      0xffffffffffffffffffffffffffffffffffffffff\n      and\n      eq\n      iszero\n        /* \"contracts/ERC1155MixedFungible.sol\":3064:3123  require(_to != address(0x0), \"cannot send to zero address\") */\n      tag_92\n      jumpi\n      mload(0x40)\n      0x08c379a000000000000000000000000000000000000000000000000000000000\n      dup2\n      mstore\n      0x04\n      add\n      dup1\n      dup1\n      0x20\n      add\n      dup3\n      dup2\n      sub\n      dup3\n      mstore\n      0x1b\n      dup2\n      mstore\n      0x20\n      add\n      dup1\n      0x63616e6e6f742073656e6420746f207a65726f20616464726573730000000000\n      dup2\n      mstore\n      pop\n      0x20\n      add\n      swap2\n      pop\n      pop\n      mload(0x40)\n      dup1\n      swap2\n      sub\n      swap1\n      revert\n    tag_92:\n        /* \"contracts/ERC1155MixedFungible.sol\":3156:3163  _values */\n      dup4\n      dup4\n        /* \"contracts/ERC1155MixedFungible.sol\":3156:3170  _values.length */\n      swap1\n      pop\n        /* \"contracts/ERC1155MixedFungible.sol\":3141:3145  _ids */\n      dup7\n      dup7\n        /* \"contracts/ERC1155MixedFungible.sol\":3141:3152  _ids.length */\n      swap1\n      pop\n        /* \"contracts/ERC1155MixedFungible.sol\":3141:3170  _ids.length == _values.length */\n      eq\n        /* \"contracts/ERC1155MixedFungible.sol\":3133:3198  require(_ids.length == _values.length, \"Array length must match\") */\n      tag_93\n      jumpi\n      mload(0x40)\n      0x08c379a000000000000000000000000000000000000000000000000000000000\n      dup2\n      mstore\n      0x04\n      add\n      dup1\n      dup1\n      0x20\n      add\n      dup3\n      dup2\n      sub\n      dup3\n      mstore\n      0x17\n      dup2\n      mstore\n      0x20\n      add\n      dup1\n      0x4172726179206c656e677468206d757374206d61746368000000000000000000\n      dup2\n      mstore\n      pop\n      0x20\n      add\n      swap2\n      pop\n      pop\n      mload(0x40)\n      dup1\n      swap2\n      sub\n      swap1\n      revert\n    tag_93:\n        /* \"contracts/ERC1155MixedFungible.sol\":3356:3366  msg.sender */\n      caller\n        /* \"contracts/ERC1155MixedFungible.sol\":3347:3366  _from == msg.sender */\n      0xffffffffffffffffffffffffffffffffffffffff\n      and\n        /* \"contracts/ERC1155MixedFungible.sol\":3347:3352  _from */\n      dup9\n        /* \"contracts/ERC1155MixedFungible.sol\":3347:3366  _from == msg.sender */\n      0xffffffffffffffffffffffffffffffffffffffff\n      and\n      eq\n        /* \"contracts/ERC1155MixedFungible.sol\":3347:3413  _from == msg.sender || operatorApproval[_from][msg.sender] == true */\n      dup1\n      tag_94\n      jumpi\n      pop\n        /* \"contracts/ERC1155MixedFungible.sol\":3409:3413  true */\n      0x01\n        /* \"contracts/ERC1155MixedFungible.sol\":3370:3413  operatorApproval[_from][msg.sender] == true */\n      iszero\n      iszero\n        /* \"contracts/ERC1155MixedFungible.sol\":3370:3386  operatorApproval */\n      0x01\n        /* \"contracts/ERC1155MixedFungible.sol\":3370:3393  operatorApproval[_from] */\n      0x00\n        /* \"contracts/ERC1155MixedFungible.sol\":3387:3392  _from */\n      dup11\n        /* \"contracts/ERC1155MixedFungible.sol\":3370:3393  operatorApproval[_from] */\n      0xffffffffffffffffffffffffffffffffffffffff\n      and\n      0xffffffffffffffffffffffffffffffffffffffff\n      and\n      dup2\n      mstore\n      0x20\n      add\n      swap1\n      dup2\n      mstore\n      0x20\n      add\n      0x00\n      keccak256\n        /* \"contracts/ERC1155MixedFungible.sol\":3370:3405  operatorApproval[_from][msg.sender] */\n      0x00\n        /* \"contracts/ERC1155MixedFungible.sol\":3394:3404  msg.sender */\n      caller\n        /* \"contracts/ERC1155MixedFungible.sol\":3370:3405  operatorApproval[_from][msg.sender] */\n      0xffffffffffffffffffffffffffffffffffffffff\n      and\n      0xffffffffffffffffffffffffffffffffffffffff\n      and\n      dup2\n      mstore\n      0x20\n      add\n      swap1\n      dup2\n      mstore\n      0x20\n      add\n      0x00\n      keccak256\n      0x00\n      swap1\n      sload\n      swap1\n      0x0100\n      exp\n      swap1\n      div\n      0xff\n      and\n        /* \"contracts/ERC1155MixedFungible.sol\":3370:3413  operatorApproval[_from][msg.sender] == true */\n      iszero\n      iszero\n      eq\n        /* \"contracts/ERC1155MixedFungible.sol\":3347:3413  _from == msg.sender || operatorApproval[_from][msg.sender] == true */\n    tag_94:\n        /* \"contracts/ERC1155MixedFungible.sol\":3339:3465  require(_from == msg.sender || operatorApproval[_from][msg.sender] == true, \"Need operator approval for 3rd party transfers.\") */\n      tag_95\n      jumpi\n      mload(0x40)\n      0x08c379a000000000000000000000000000000000000000000000000000000000\n      dup2\n      mstore\n      0x04\n      add\n      dup1\n      dup1\n      0x20\n      add\n      dup3\n      dup2\n      sub\n      dup3\n      mstore\n      0x2f\n      dup2\n      mstore\n      0x20\n      add\n      dup1\n      data_849b4236b9cc0954dc0e729ab0ed3552779085d502d2b1dad4e899fd8211d4be\n      0x2f\n      swap2\n      codecopy\n      0x40\n      add\n      swap2\n      pop\n      pop\n      mload(0x40)\n      dup1\n      swap2\n      sub\n      swap1\n      revert\n    tag_95:\n        /* \"contracts/ERC1155MixedFungible.sol\":3481:3490  uint256 i */\n      0x00\n        /* \"contracts/ERC1155MixedFungible.sol\":3493:3494  0 */\n      dup1\n        /* \"contracts/ERC1155MixedFungible.sol\":3481:3494  uint256 i = 0 */\n      swap1\n      pop\n        /* \"contracts/ERC1155MixedFungible.sol\":3476:3965  for (uint256 i = 0; i < _ids.length; ++i) {... */\n    tag_96:\n        /* \"contracts/ERC1155MixedFungible.sol\":3500:3504  _ids */\n      dup7\n      dup7\n        /* \"contracts/ERC1155MixedFungible.sol\":3500:3511  _ids.length */\n      swap1\n      pop\n        /* \"contracts/ERC1155MixedFungible.sol\":3496:3497  i */\n      dup2\n        /* \"contracts/ERC1155MixedFungible.sol\":3496:3511  i < _ids.length */\n      lt\n        /* \"contracts/ERC1155MixedFungible.sol\":3476:3965  for (uint256 i = 0; i < _ids.length; ++i) {... */\n      iszero\n      tag_97\n      jumpi\n        /* \"contracts/ERC1155MixedFungible.sol\":3599:3609  uint256 id */\n      0x00\n        /* \"contracts/ERC1155MixedFungible.sol\":3612:3616  _ids */\n      dup8\n      dup8\n        /* \"contracts/ERC1155MixedFungible.sol\":3617:3618  i */\n      dup4\n        /* \"contracts/ERC1155MixedFungible.sol\":3612:3619  _ids[i] */\n      dup2\n      dup2\n      lt\n      tag_99\n      jumpi\n      invalid\n    tag_99:\n      swap1\n      pop\n      0x20\n      mul\n      add\n      calldataload\n        /* \"contracts/ERC1155MixedFungible.sol\":3599:3619  uint256 id = _ids[i] */\n      swap1\n      pop\n        /* \"contracts/ERC1155MixedFungible.sol\":3633:3646  uint256 value */\n      0x00\n        /* \"contracts/ERC1155MixedFungible.sol\":3649:3656  _values */\n      dup7\n      dup7\n        /* \"contracts/ERC1155MixedFungible.sol\":3657:3658  i */\n      dup5\n        /* \"contracts/ERC1155MixedFungible.sol\":3649:3659  _values[i] */\n      dup2\n      dup2\n      lt\n      tag_100\n      jumpi\n      invalid\n    tag_100:\n      swap1\n      pop\n      0x20\n      mul\n      add\n      calldataload\n        /* \"contracts/ERC1155MixedFungible.sol\":3633:3659  uint256 value = _values[i] */\n      swap1\n      pop\n        /* \"contracts/ERC1155MixedFungible.sol\":3678:3695  isNonFungible(id) */\n      tag_101\n        /* \"contracts/ERC1155MixedFungible.sol\":3692:3694  id */\n      dup3\n        /* \"contracts/ERC1155MixedFungible.sol\":3678:3691  isNonFungible */\n      tag_73\n        /* \"contracts/ERC1155MixedFungible.sol\":3678:3695  isNonFungible(id) */\n      jump\t// in\n    tag_101:\n        /* \"contracts/ERC1155MixedFungible.sol\":3674:3955  if (isNonFungible(id)) {... */\n      iszero\n      tag_102\n      jumpi\n        /* \"contracts/ERC1155MixedFungible.sol\":3739:3744  _from */\n      dup11\n        /* \"contracts/ERC1155MixedFungible.sol\":3723:3744  nfOwners[id] == _from */\n      0xffffffffffffffffffffffffffffffffffffffff\n      and\n        /* \"contracts/ERC1155MixedFungible.sol\":3723:3731  nfOwners */\n      0x02\n        /* \"contracts/ERC1155MixedFungible.sol\":3723:3735  nfOwners[id] */\n      0x00\n        /* \"contracts/ERC1155MixedFungible.sol\":3732:3734  id */\n      dup5\n        /* \"contracts/ERC1155MixedFungible.sol\":3723:3735  nfOwners[id] */\n      dup2\n      mstore\n      0x20\n      add\n      swap1\n      dup2\n      mstore\n      0x20\n      add\n      0x00\n      keccak256\n      0x00\n      swap1\n      sload\n      swap1\n      0x0100\n      exp\n      swap1\n      div\n      0xffffffffffffffffffffffffffffffffffffffff\n      and\n        /* \"contracts/ERC1155MixedFungible.sol\":3723:3744  nfOwners[id] == _from */\n      0xffffffffffffffffffffffffffffffffffffffff\n      and\n      eq\n        /* \"contracts/ERC1155MixedFungible.sol\":3715:3745  require(nfOwners[id] == _from) */\n      tag_103\n      jumpi\n      0x00\n      dup1\n      revert\n    tag_103:\n        /* \"contracts/ERC1155MixedFungible.sol\":3778:3781  _to */\n      dup10\n        /* \"contracts/ERC1155MixedFungible.sol\":3763:3771  nfOwners */\n      0x02\n        /* \"contracts/ERC1155MixedFungible.sol\":3763:3775  nfOwners[id] */\n      0x00\n        /* \"contracts/ERC1155MixedFungible.sol\":3772:3774  id */\n      dup5\n        /* \"contracts/ERC1155MixedFungible.sol\":3763:3775  nfOwners[id] */\n      dup2\n      mstore\n      0x20\n      add\n      swap1\n      dup2\n      mstore\n      0x20\n      add\n      0x00\n      keccak256\n      0x00\n        /* \"contracts/ERC1155MixedFungible.sol\":3763:3781  nfOwners[id] = _to */\n      0x0100\n      exp\n      dup2\n      sload\n      dup2\n      0xffffffffffffffffffffffffffffffffffffffff\n      mul\n      not\n      and\n      swap1\n      dup4\n      0xffffffffffffffffffffffffffffffffffffffff\n      and\n      mul\n      or\n      swap1\n      sstore\n      pop\n        /* \"contracts/ERC1155MixedFungible.sol\":3674:3955  if (isNonFungible(id)) {... */\n      jump(tag_104)\n    tag_102:\n        /* \"contracts/ERC1155MixedFungible.sol\":3842:3872  balances[id][_from].sub(value) */\n      tag_105\n        /* \"contracts/ERC1155MixedFungible.sol\":3866:3871  value */\n      dup2\n        /* \"contracts/ERC1155MixedFungible.sol\":3842:3850  balances */\n      0x00\n        /* \"contracts/ERC1155MixedFungible.sol\":3842:3854  balances[id] */\n      dup1\n        /* \"contracts/ERC1155MixedFungible.sol\":3851:3853  id */\n      dup6\n        /* \"contracts/ERC1155MixedFungible.sol\":3842:3854  balances[id] */\n      dup2\n      mstore\n      0x20\n      add\n      swap1\n      dup2\n      mstore\n      0x20\n      add\n      0x00\n      keccak256\n        /* \"contracts/ERC1155MixedFungible.sol\":3842:3861  balances[id][_from] */\n      0x00\n        /* \"contracts/ERC1155MixedFungible.sol\":3855:3860  _from */\n      dup15\n        /* \"contracts/ERC1155MixedFungible.sol\":3842:3861  balances[id][_from] */\n      0xffffffffffffffffffffffffffffffffffffffff\n      and\n      0xffffffffffffffffffffffffffffffffffffffff\n      and\n      dup2\n      mstore\n      0x20\n      add\n      swap1\n      dup2\n      mstore\n      0x20\n      add\n      0x00\n      keccak256\n      sload\n        /* \"contracts/ERC1155MixedFungible.sol\":3842:3865  balances[id][_from].sub */\n      tag_106\n      swap1\n        /* \"contracts/ERC1155MixedFungible.sol\":3842:3872  balances[id][_from].sub(value) */\n      swap2\n      swap1\n      0xffffffff\n      and\n      jump\t// in\n    tag_105:\n        /* \"contracts/ERC1155MixedFungible.sol\":3820:3828  balances */\n      0x00\n        /* \"contracts/ERC1155MixedFungible.sol\":3820:3832  balances[id] */\n      dup1\n        /* \"contracts/ERC1155MixedFungible.sol\":3829:3831  id */\n      dup5\n        /* \"contracts/ERC1155MixedFungible.sol\":3820:3832  balances[id] */\n      dup2\n      mstore\n      0x20\n      add\n      swap1\n      dup2\n      mstore\n      0x20\n      add\n      0x00\n      keccak256\n        /* \"contracts/ERC1155MixedFungible.sol\":3820:3839  balances[id][_from] */\n      0x00\n        /* \"contracts/ERC1155MixedFungible.sol\":3833:3838  _from */\n      dup14\n        /* \"contracts/ERC1155MixedFungible.sol\":3820:3839  balances[id][_from] */\n      0xffffffffffffffffffffffffffffffffffffffff\n      and\n      0xffffffffffffffffffffffffffffffffffffffff\n      and\n      dup2\n      mstore\n      0x20\n      add\n      swap1\n      dup2\n      mstore\n      0x20\n      add\n      0x00\n      keccak256\n        /* \"contracts/ERC1155MixedFungible.sol\":3820:3872  balances[id][_from] = balances[id][_from].sub(value) */\n      dup2\n      swap1\n      sstore\n      pop\n        /* \"contracts/ERC1155MixedFungible.sol\":3912:3940  value.add(balances[id][_to]) */\n      tag_107\n        /* \"contracts/ERC1155MixedFungible.sol\":3922:3930  balances */\n      0x00\n        /* \"contracts/ERC1155MixedFungible.sol\":3922:3934  balances[id] */\n      dup1\n        /* \"contracts/ERC1155MixedFungible.sol\":3931:3933  id */\n      dup5\n        /* \"contracts/ERC1155MixedFungible.sol\":3922:3934  balances[id] */\n      dup2\n      mstore\n      0x20\n      add\n      swap1\n      dup2\n      mstore\n      0x20\n      add\n      0x00\n      keccak256\n        /* \"contracts/ERC1155MixedFungible.sol\":3922:3939  balances[id][_to] */\n      0x00\n        /* \"contracts/ERC1155MixedFungible.sol\":3935:3938  _to */\n      dup13\n        /* \"contracts/ERC1155MixedFungible.sol\":3922:3939  balances[id][_to] */\n      0xffffffffffffffffffffffffffffffffffffffff\n      and\n      0xffffffffffffffffffffffffffffffffffffffff\n      and\n      dup2\n      mstore\n      0x20\n      add\n      swap1\n      dup2\n      mstore\n      0x20\n      add\n      0x00\n      keccak256\n      sload\n        /* \"contracts/ERC1155MixedFungible.sol\":3912:3917  value */\n      dup3\n        /* \"contracts/ERC1155MixedFungible.sol\":3912:3921  value.add */\n      tag_108\n      swap1\n        /* \"contracts/ERC1155MixedFungible.sol\":3912:3940  value.add(balances[id][_to]) */\n      swap2\n      swap1\n      0xffffffff\n      and\n      jump\t// in\n    tag_107:\n        /* \"contracts/ERC1155MixedFungible.sol\":3890:3898  balances */\n      0x00\n        /* \"contracts/ERC1155MixedFungible.sol\":3890:3902  balances[id] */\n      dup1\n        /* \"contracts/ERC1155MixedFungible.sol\":3899:3901  id */\n      dup5\n        /* \"contracts/ERC1155MixedFungible.sol\":3890:3902  balances[id] */\n      dup2\n      mstore\n      0x20\n      add\n      swap1\n      dup2\n      mstore\n      0x20\n      add\n      0x00\n      keccak256\n        /* \"contracts/ERC1155MixedFungible.sol\":3890:3907  balances[id][_to] */\n      0x00\n        /* \"contracts/ERC1155MixedFungible.sol\":3903:3906  _to */\n      dup13\n        /* \"contracts/ERC1155MixedFungible.sol\":3890:3907  balances[id][_to] */\n      0xffffffffffffffffffffffffffffffffffffffff\n      and\n      0xffffffffffffffffffffffffffffffffffffffff\n      and\n      dup2\n      mstore\n      0x20\n      add\n      swap1\n      dup2\n      mstore\n      0x20\n      add\n      0x00\n      keccak256\n        /* \"contracts/ERC1155MixedFungible.sol\":3890:3940  balances[id][_to]   = value.add(balances[id][_to]) */\n      dup2\n      swap1\n      sstore\n      pop\n        /* \"contracts/ERC1155MixedFungible.sol\":3674:3955  if (isNonFungible(id)) {... */\n    tag_104:\n        /* \"contracts/ERC1155MixedFungible.sol\":3476:3965  for (uint256 i = 0; i < _ids.length; ++i) {... */\n      pop\n      pop\n        /* \"contracts/ERC1155MixedFungible.sol\":3513:3516  ++i */\n      dup1\n      0x01\n      add\n      swap1\n      pop\n        /* \"contracts/ERC1155MixedFungible.sol\":3476:3965  for (uint256 i = 0; i < _ids.length; ++i) {... */\n      jump(tag_96)\n    tag_97:\n      pop\n        /* \"contracts/ERC1155MixedFungible.sol\":4013:4016  _to */\n      dup7\n        /* \"contracts/ERC1155MixedFungible.sol\":3980:4032  TransferBatch(msg.sender, _from, _to, _ids, _values) */\n      0xffffffffffffffffffffffffffffffffffffffff\n      and\n        /* \"contracts/ERC1155MixedFungible.sol\":4006:4011  _from */\n      dup9\n        /* \"contracts/ERC1155MixedFungible.sol\":3980:4032  TransferBatch(msg.sender, _from, _to, _ids, _values) */\n      0xffffffffffffffffffffffffffffffffffffffff\n      and\n        /* \"contracts/ERC1155MixedFungible.sol\":3994:4004  msg.sender */\n      caller\n        /* \"contracts/ERC1155MixedFungible.sol\":3980:4032  TransferBatch(msg.sender, _from, _to, _ids, _values) */\n      0xffffffffffffffffffffffffffffffffffffffff\n      and\n      0x4a39dc06d4c0dbc64b70af90fd698a233a518aa5d07e595d983b8c0526c8f7fb\n        /* \"contracts/ERC1155MixedFungible.sol\":4018:4022  _ids */\n      dup10\n      dup10\n        /* \"contracts/ERC1155MixedFungible.sol\":4024:4031  _values */\n      dup10\n      dup10\n        /* \"contracts/ERC1155MixedFungible.sol\":3980:4032  TransferBatch(msg.sender, _from, _to, _ids, _values) */\n      mload(0x40)\n      dup1\n      dup1\n      0x20\n      add\n      dup1\n      0x20\n      add\n      dup4\n      dup2\n      sub\n      dup4\n      mstore\n      dup8\n      dup8\n      dup3\n      dup2\n      dup2\n      mstore\n      0x20\n      add\n      swap3\n      pop\n      0x20\n      mul\n        /* \"--CODEGEN--\":30:33   */\n      dup1\n        /* \"--CODEGEN--\":22:28   */\n      dup3\n        /* \"--CODEGEN--\":14:20   */\n      dup5\n        /* \"--CODEGEN--\":1:34   */\n      calldatacopy\n        /* \"--CODEGEN--\":99:100   */\n      0x00\n        /* \"--CODEGEN--\":93:96   */\n      dup2\n        /* \"--CODEGEN--\":85:91   */\n      dup5\n        /* \"--CODEGEN--\":81:97   */\n      add\n        /* \"--CODEGEN--\":74:101   */\n      mstore\n        /* \"--CODEGEN--\":137:141   */\n      0x1f\n        /* \"--CODEGEN--\":133:142   */\n      not\n        /* \"--CODEGEN--\":126:130   */\n      0x1f\n        /* \"--CODEGEN--\":121:124   */\n      dup3\n        /* \"--CODEGEN--\":117:131   */\n      add\n        /* \"--CODEGEN--\":113:143   */\n      and\n        /* \"--CODEGEN--\":106:143   */\n      swap1\n      pop\n        /* \"--CODEGEN--\":169:172   */\n      dup1\n        /* \"--CODEGEN--\":161:167   */\n      dup4\n        /* \"--CODEGEN--\":157:173   */\n      add\n        /* \"--CODEGEN--\":147:173   */\n      swap3\n      pop\n        /* \"contracts/ERC1155MixedFungible.sol\":3980:4032  TransferBatch(msg.sender, _from, _to, _ids, _values) */\n      pop\n      pop\n      dup4\n      dup2\n      sub\n      dup3\n      mstore\n      dup6\n      dup6\n      dup3\n      dup2\n      dup2\n      mstore\n      0x20\n      add\n      swap3\n      pop\n      0x20\n      mul\n        /* \"--CODEGEN--\":30:33   */\n      dup1\n        /* \"--CODEGEN--\":22:28   */\n      dup3\n        /* \"--CODEGEN--\":14:20   */\n      dup5\n        /* \"--CODEGEN--\":1:34   */\n      calldatacopy\n        /* \"--CODEGEN--\":99:100   */\n      0x00\n        /* \"--CODEGEN--\":93:96   */\n      dup2\n        /* \"--CODEGEN--\":85:91   */\n      dup5\n        /* \"--CODEGEN--\":81:97   */\n      add\n        /* \"--CODEGEN--\":74:101   */\n      mstore\n        /* \"--CODEGEN--\":137:141   */\n      0x1f\n        /* \"--CODEGEN--\":133:142   */\n      not\n        /* \"--CODEGEN--\":126:130   */\n      0x1f\n        /* \"--CODEGEN--\":121:124   */\n      dup3\n        /* \"--CODEGEN--\":117:131   */\n      add\n        /* \"--CODEGEN--\":113:143   */\n      and\n        /* \"--CODEGEN--\":106:143   */\n      swap1\n      pop\n        /* \"--CODEGEN--\":169:172   */\n      dup1\n        /* \"--CODEGEN--\":161:167   */\n      dup4\n        /* \"--CODEGEN--\":157:173   */\n      add\n        /* \"--CODEGEN--\":147:173   */\n      swap3\n      pop\n        /* \"contracts/ERC1155MixedFungible.sol\":3980:4032  TransferBatch(msg.sender, _from, _to, _ids, _values) */\n      pop\n      pop\n      swap7\n      pop\n      pop\n      pop\n      pop\n      pop\n      pop\n      pop\n      mload(0x40)\n      dup1\n      swap2\n      sub\n      swap1\n      log4\n        /* \"contracts/ERC1155MixedFungible.sol\":4047:4063  _to.isContract() */\n      tag_109\n        /* \"contracts/ERC1155MixedFungible.sol\":4047:4050  _to */\n      dup8\n        /* \"contracts/ERC1155MixedFungible.sol\":4047:4061  _to.isContract */\n      0xffffffffffffffffffffffffffffffffffffffff\n      and\n      tag_110\n        /* \"contracts/ERC1155MixedFungible.sol\":4047:4063  _to.isContract() */\n      jump\t// in\n    tag_109:\n        /* \"contracts/ERC1155MixedFungible.sol\":4043:4171  if (_to.isContract()) {... */\n      iszero\n      tag_111\n      jumpi\n        /* \"contracts/ERC1155MixedFungible.sol\":4079:4160  _doSafeBatchTransferAcceptanceCheck(msg.sender, _from, _to, _ids, _values, _data) */\n      tag_112\n        /* \"contracts/ERC1155MixedFungible.sol\":4115:4125  msg.sender */\n      caller\n        /* \"contracts/ERC1155MixedFungible.sol\":4127:4132  _from */\n      dup10\n        /* \"contracts/ERC1155MixedFungible.sol\":4134:4137  _to */\n      dup10\n        /* \"contracts/ERC1155MixedFungible.sol\":4139:4143  _ids */\n      dup10\n      dup10\n        /* \"contracts/ERC1155MixedFungible.sol\":4079:4160  _doSafeBatchTransferAcceptanceCheck(msg.sender, _from, _to, _ids, _values, _data) */\n      dup1\n      dup1\n      0x20\n      mul\n      0x20\n      add\n      mload(0x40)\n      swap1\n      dup2\n      add\n      0x40\n      mstore\n      dup1\n      swap4\n      swap3\n      swap2\n      swap1\n      dup2\n      dup2\n      mstore\n      0x20\n      add\n      dup4\n      dup4\n      0x20\n      mul\n        /* \"--CODEGEN--\":30:33   */\n      dup1\n        /* \"--CODEGEN--\":22:28   */\n      dup3\n        /* \"--CODEGEN--\":14:20   */\n      dup5\n        /* \"--CODEGEN--\":1:34   */\n      calldatacopy\n        /* \"--CODEGEN--\":99:100   */\n      0x00\n        /* \"--CODEGEN--\":93:96   */\n      dup2\n        /* \"--CODEGEN--\":85:91   */\n      dup5\n        /* \"--CODEGEN--\":81:97   */\n      add\n        /* \"--CODEGEN--\":74:101   */\n      mstore\n        /* \"--CODEGEN--\":137:141   */\n      0x1f\n        /* \"--CODEGEN--\":133:142   */\n      not\n        /* \"--CODEGEN--\":126:130   */\n      0x1f\n        /* \"--CODEGEN--\":121:124   */\n      dup3\n        /* \"--CODEGEN--\":117:131   */\n      add\n        /* \"--CODEGEN--\":113:143   */\n      and\n        /* \"--CODEGEN--\":106:143   */\n      swap1\n      pop\n        /* \"--CODEGEN--\":169:172   */\n      dup1\n        /* \"--CODEGEN--\":161:167   */\n      dup4\n        /* \"--CODEGEN--\":157:173   */\n      add\n        /* \"--CODEGEN--\":147:173   */\n      swap3\n      pop\n        /* \"contracts/ERC1155MixedFungible.sol\":4079:4160  _doSafeBatchTransferAcceptanceCheck(msg.sender, _from, _to, _ids, _values, _data) */\n      pop\n      pop\n      pop\n      pop\n      pop\n      pop\n        /* \"contracts/ERC1155MixedFungible.sol\":4145:4152  _values */\n      dup9\n      dup9\n        /* \"contracts/ERC1155MixedFungible.sol\":4079:4160  _doSafeBatchTransferAcceptanceCheck(msg.sender, _from, _to, _ids, _values, _data) */\n      dup1\n      dup1\n      0x20\n      mul\n      0x20\n      add\n      mload(0x40)\n      swap1\n      dup2\n      add\n      0x40\n      mstore\n      dup1\n      swap4\n      swap3\n      swap2\n      swap1\n      dup2\n      dup2\n      mstore\n      0x20\n      add\n      dup4\n      dup4\n      0x20\n      mul\n        /* \"--CODEGEN--\":30:33   */\n      dup1\n        /* \"--CODEGEN--\":22:28   */\n      dup3\n        /* \"--CODEGEN--\":14:20   */\n      dup5\n        /* \"--CODEGEN--\":1:34   */\n      calldatacopy\n        /* \"--CODEGEN--\":99:100   */\n      0x00\n        /* \"--CODEGEN--\":93:96   */\n      dup2\n        /* \"--CODEGEN--\":85:91   */\n      dup5\n        /* \"--CODEGEN--\":81:97   */\n      add\n        /* \"--CODEGEN--\":74:101   */\n      mstore\n        /* \"--CODEGEN--\":137:141   */\n      0x1f\n        /* \"--CODEGEN--\":133:142   */\n      not\n        /* \"--CODEGEN--\":126:130   */\n      0x1f\n        /* \"--CODEGEN--\":121:124   */\n      dup3\n        /* \"--CODEGEN--\":117:131   */\n      add\n        /* \"--CODEGEN--\":113:143   */\n      and\n        /* \"--CODEGEN--\":106:143   */\n      swap1\n      pop\n        /* \"--CODEGEN--\":169:172   */\n      dup1\n        /* \"--CODEGEN--\":161:167   */\n      dup4\n        /* \"--CODEGEN--\":157:173   */\n      add\n        /* \"--CODEGEN--\":147:173   */\n      swap3\n      pop\n        /* \"contracts/ERC1155MixedFungible.sol\":4079:4160  _doSafeBatchTransferAcceptanceCheck(msg.sender, _from, _to, _ids, _values, _data) */\n      pop\n      pop\n      pop\n      pop\n      pop\n      pop\n        /* \"contracts/ERC1155MixedFungible.sol\":4154:4159  _data */\n      dup8\n      dup8\n        /* \"contracts/ERC1155MixedFungible.sol\":4079:4160  _doSafeBatchTransferAcceptanceCheck(msg.sender, _from, _to, _ids, _values, _data) */\n      dup1\n      dup1\n      0x1f\n      add\n      0x20\n      dup1\n      swap2\n      div\n      mul\n      0x20\n      add\n      mload(0x40)\n      swap1\n      dup2\n      add\n      0x40\n      mstore\n      dup1\n      swap4\n      swap3\n      swap2\n      swap1\n      dup2\n      dup2\n      mstore\n      0x20\n      add\n      dup4\n      dup4\n        /* \"--CODEGEN--\":30:33   */\n      dup1\n        /* \"--CODEGEN--\":22:28   */\n      dup3\n        /* \"--CODEGEN--\":14:20   */\n      dup5\n        /* \"--CODEGEN--\":1:34   */\n      calldatacopy\n        /* \"--CODEGEN--\":99:100   */\n      0x00\n        /* \"--CODEGEN--\":93:96   */\n      dup2\n        /* \"--CODEGEN--\":85:91   */\n      dup5\n        /* \"--CODEGEN--\":81:97   */\n      add\n        /* \"--CODEGEN--\":74:101   */\n      mstore\n        /* \"--CODEGEN--\":137:141   */\n      0x1f\n        /* \"--CODEGEN--\":133:142   */\n      not\n        /* \"--CODEGEN--\":126:130   */\n      0x1f\n        /* \"--CODEGEN--\":121:124   */\n      dup3\n        /* \"--CODEGEN--\":117:131   */\n      add\n        /* \"--CODEGEN--\":113:143   */\n      and\n        /* \"--CODEGEN--\":106:143   */\n      swap1\n      pop\n        /* \"--CODEGEN--\":169:172   */\n      dup1\n        /* \"--CODEGEN--\":161:167   */\n      dup4\n        /* \"--CODEGEN--\":157:173   */\n      add\n        /* \"--CODEGEN--\":147:173   */\n      swap3\n      pop\n        /* \"contracts/ERC1155MixedFungible.sol\":4079:4160  _doSafeBatchTransferAcceptanceCheck(msg.sender, _from, _to, _ids, _values, _data) */\n      pop\n      pop\n      pop\n      pop\n      pop\n      pop\n        /* \"contracts/ERC1155MixedFungible.sol\":4079:4114  _doSafeBatchTransferAcceptanceCheck */\n      tag_113\n        /* \"contracts/ERC1155MixedFungible.sol\":4079:4160  _doSafeBatchTransferAcceptanceCheck(msg.sender, _from, _to, _ids, _values, _data) */\n      jump\t// in\n    tag_112:\n        /* \"contracts/ERC1155MixedFungible.sol\":4043:4171  if (_to.isContract()) {... */\n    tag_111:\n        /* \"contracts/ERC1155MixedFungible.sol\":2910:4177  function safeBatchTransferFrom(address _from, address _to, uint256[] calldata _ids, uint256[] calldata _values, bytes calldata _data) external {... */\n      pop\n      pop\n      pop\n      pop\n      pop\n      pop\n      pop\n      pop\n      jump\t// out\n        /* \"contracts/ERC1155MixedFungible.sol\":4402:4969  function balanceOfBatch(address[] calldata _owners, uint256[] calldata _ids) external view returns (uint256[] memory) {... */\n    tag_46:\n        /* \"contracts/ERC1155MixedFungible.sol\":4502:4518  uint256[] memory */\n      0x60\n        /* \"contracts/ERC1155MixedFungible.sol\":4557:4561  _ids */\n      dup3\n      dup3\n        /* \"contracts/ERC1155MixedFungible.sol\":4557:4568  _ids.length */\n      swap1\n      pop\n        /* \"contracts/ERC1155MixedFungible.sol\":4539:4546  _owners */\n      dup6\n      dup6\n        /* \"contracts/ERC1155MixedFungible.sol\":4539:4553  _owners.length */\n      swap1\n      pop\n        /* \"contracts/ERC1155MixedFungible.sol\":4539:4568  _owners.length == _ids.length */\n      eq\n        /* \"contracts/ERC1155MixedFungible.sol\":4531:4569  require(_owners.length == _ids.length) */\n      tag_115\n      jumpi\n      0x00\n      dup1\n      revert\n    tag_115:\n        /* \"contracts/ERC1155MixedFungible.sol\":4580:4606  uint256[] memory balances_ */\n      0x60\n        /* \"contracts/ERC1155MixedFungible.sol\":4623:4630  _owners */\n      dup6\n      dup6\n        /* \"contracts/ERC1155MixedFungible.sol\":4623:4637  _owners.length */\n      swap1\n      pop\n        /* \"contracts/ERC1155MixedFungible.sol\":4609:4638  new uint256[](_owners.length) */\n      mload(0x40)\n      swap1\n      dup1\n      dup3\n      mstore\n      dup1\n      0x20\n      mul\n      0x20\n      add\n      dup3\n      add\n      0x40\n      mstore\n      dup1\n      iszero\n      tag_116\n      jumpi\n      dup2\n      0x20\n      add\n        /* \"--CODEGEN--\":29:31   */\n      0x20\n        /* \"--CODEGEN--\":21:27   */\n      dup3\n        /* \"--CODEGEN--\":17:32   */\n      mul\n        /* \"--CODEGEN--\":117:121   */\n      dup1\n        /* \"--CODEGEN--\":105:115   */\n      codesize\n        /* \"--CODEGEN--\":97:103   */\n      dup4\n        /* \"--CODEGEN--\":88:122   */\n      codecopy\n        /* \"--CODEGEN--\":148:152   */\n      dup1\n        /* \"--CODEGEN--\":140:146   */\n      dup3\n        /* \"--CODEGEN--\":136:153   */\n      add\n        /* \"--CODEGEN--\":126:153   */\n      swap2\n      pop\n        /* \"--CODEGEN--\":0:157   */\n      pop\n        /* \"contracts/ERC1155MixedFungible.sol\":4609:4638  new uint256[](_owners.length) */\n      swap1\n      pop\n    tag_116:\n      pop\n        /* \"contracts/ERC1155MixedFungible.sol\":4580:4638  uint256[] memory balances_ = new uint256[](_owners.length) */\n      swap1\n      pop\n        /* \"contracts/ERC1155MixedFungible.sol\":4654:4663  uint256 i */\n      0x00\n        /* \"contracts/ERC1155MixedFungible.sol\":4666:4667  0 */\n      dup1\n        /* \"contracts/ERC1155MixedFungible.sol\":4654:4667  uint256 i = 0 */\n      swap1\n      pop\n        /* \"contracts/ERC1155MixedFungible.sol\":4649:4936  for (uint256 i = 0; i < _owners.length; ++i) {... */\n    tag_117:\n        /* \"contracts/ERC1155MixedFungible.sol\":4673:4680  _owners */\n      dup7\n      dup7\n        /* \"contracts/ERC1155MixedFungible.sol\":4673:4687  _owners.length */\n      swap1\n      pop\n        /* \"contracts/ERC1155MixedFungible.sol\":4669:4670  i */\n      dup2\n        /* \"contracts/ERC1155MixedFungible.sol\":4669:4687  i < _owners.length */\n      lt\n        /* \"contracts/ERC1155MixedFungible.sol\":4649:4936  for (uint256 i = 0; i < _owners.length; ++i) {... */\n      iszero\n      tag_118\n      jumpi\n        /* \"contracts/ERC1155MixedFungible.sol\":4708:4718  uint256 id */\n      0x00\n        /* \"contracts/ERC1155MixedFungible.sol\":4721:4725  _ids */\n      dup6\n      dup6\n        /* \"contracts/ERC1155MixedFungible.sol\":4726:4727  i */\n      dup4\n        /* \"contracts/ERC1155MixedFungible.sol\":4721:4728  _ids[i] */\n      dup2\n      dup2\n      lt\n      tag_120\n      jumpi\n      invalid\n    tag_120:\n      swap1\n      pop\n      0x20\n      mul\n      add\n      calldataload\n        /* \"contracts/ERC1155MixedFungible.sol\":4708:4728  uint256 id = _ids[i] */\n      swap1\n      pop\n        /* \"contracts/ERC1155MixedFungible.sol\":4746:4767  isNonFungibleItem(id) */\n      tag_121\n        /* \"contracts/ERC1155MixedFungible.sol\":4764:4766  id */\n      dup2\n        /* \"contracts/ERC1155MixedFungible.sol\":4746:4763  isNonFungibleItem */\n      tag_52\n        /* \"contracts/ERC1155MixedFungible.sol\":4746:4767  isNonFungibleItem(id) */\n      jump\t// in\n    tag_121:\n        /* \"contracts/ERC1155MixedFungible.sol\":4742:4926  if (isNonFungibleItem(id)) {... */\n      iszero\n      tag_122\n      jumpi\n        /* \"contracts/ERC1155MixedFungible.sol\":4818:4825  _owners */\n      dup8\n      dup8\n        /* \"contracts/ERC1155MixedFungible.sol\":4826:4827  i */\n      dup4\n        /* \"contracts/ERC1155MixedFungible.sol\":4818:4828  _owners[i] */\n      dup2\n      dup2\n      lt\n      tag_123\n      jumpi\n      invalid\n    tag_123:\n      swap1\n      pop\n      0x20\n      mul\n      add\n      calldataload\n      0xffffffffffffffffffffffffffffffffffffffff\n      and\n        /* \"contracts/ERC1155MixedFungible.sol\":4802:4828  nfOwners[id] == _owners[i] */\n      0xffffffffffffffffffffffffffffffffffffffff\n      and\n        /* \"contracts/ERC1155MixedFungible.sol\":4802:4810  nfOwners */\n      0x02\n        /* \"contracts/ERC1155MixedFungible.sol\":4802:4814  nfOwners[id] */\n      0x00\n        /* \"contracts/ERC1155MixedFungible.sol\":4811:4813  id */\n      dup4\n        /* \"contracts/ERC1155MixedFungible.sol\":4802:4814  nfOwners[id] */\n      dup2\n      mstore\n      0x20\n      add\n      swap1\n      dup2\n      mstore\n      0x20\n      add\n      0x00\n      keccak256\n      0x00\n      swap1\n      sload\n      swap1\n      0x0100\n      exp\n      swap1\n      div\n      0xffffffffffffffffffffffffffffffffffffffff\n      and\n        /* \"contracts/ERC1155MixedFungible.sol\":4802:4828  nfOwners[id] == _owners[i] */\n      0xffffffffffffffffffffffffffffffffffffffff\n      and\n      eq\n        /* \"contracts/ERC1155MixedFungible.sol\":4802:4836  nfOwners[id] == _owners[i] ? 1 : 0 */\n      tag_124\n      jumpi\n        /* \"contracts/ERC1155MixedFungible.sol\":4835:4836  0 */\n      0x00\n        /* \"contracts/ERC1155MixedFungible.sol\":4802:4836  nfOwners[id] == _owners[i] ? 1 : 0 */\n      jump(tag_125)\n    tag_124:\n        /* \"contracts/ERC1155MixedFungible.sol\":4831:4832  1 */\n      0x01\n        /* \"contracts/ERC1155MixedFungible.sol\":4802:4836  nfOwners[id] == _owners[i] ? 1 : 0 */\n    tag_125:\n        /* \"contracts/ERC1155MixedFungible.sol\":4787:4836  balances_[i] = nfOwners[id] == _owners[i] ? 1 : 0 */\n      0xff\n      and\n        /* \"contracts/ERC1155MixedFungible.sol\":4787:4796  balances_ */\n      dup4\n        /* \"contracts/ERC1155MixedFungible.sol\":4797:4798  i */\n      dup4\n        /* \"contracts/ERC1155MixedFungible.sol\":4787:4799  balances_[i] */\n      dup2\n      mload\n      dup2\n      lt\n      tag_126\n      jumpi\n      invalid\n    tag_126:\n      0x20\n      mul\n      0x20\n      add\n      add\n        /* \"contracts/ERC1155MixedFungible.sol\":4787:4836  balances_[i] = nfOwners[id] == _owners[i] ? 1 : 0 */\n      dup2\n      dup2\n      mstore\n      pop\n      pop\n        /* \"contracts/ERC1155MixedFungible.sol\":4742:4926  if (isNonFungibleItem(id)) {... */\n      jump(tag_127)\n    tag_122:\n        /* \"contracts/ERC1155MixedFungible.sol\":4887:4895  balances */\n      0x00\n        /* \"contracts/ERC1155MixedFungible.sol\":4887:4899  balances[id] */\n      dup1\n        /* \"contracts/ERC1155MixedFungible.sol\":4896:4898  id */\n      dup3\n        /* \"contracts/ERC1155MixedFungible.sol\":4887:4899  balances[id] */\n      dup2\n      mstore\n      0x20\n      add\n      swap1\n      dup2\n      mstore\n      0x20\n      add\n      0x00\n      keccak256\n        /* \"contracts/ERC1155MixedFungible.sol\":4887:4911  balances[id][_owners[i]] */\n      0x00\n        /* \"contracts/ERC1155MixedFungible.sol\":4900:4907  _owners */\n      dup10\n      dup10\n        /* \"contracts/ERC1155MixedFungible.sol\":4908:4909  i */\n      dup6\n        /* \"contracts/ERC1155MixedFungible.sol\":4900:4910  _owners[i] */\n      dup2\n      dup2\n      lt\n      tag_128\n      jumpi\n      invalid\n    tag_128:\n      swap1\n      pop\n      0x20\n      mul\n      add\n      calldataload\n      0xffffffffffffffffffffffffffffffffffffffff\n      and\n        /* \"contracts/ERC1155MixedFungible.sol\":4887:4911  balances[id][_owners[i]] */\n      0xffffffffffffffffffffffffffffffffffffffff\n      and\n      0xffffffffffffffffffffffffffffffffffffffff\n      and\n      dup2\n      mstore\n      0x20\n      add\n      swap1\n      dup2\n      mstore\n      0x20\n      add\n      0x00\n      keccak256\n      sload\n        /* \"contracts/ERC1155MixedFungible.sol\":4872:4881  balances_ */\n      dup4\n        /* \"contracts/ERC1155MixedFungible.sol\":4882:4883  i */\n      dup4\n        /* \"contracts/ERC1155MixedFungible.sol\":4872:4884  balances_[i] */\n      dup2\n      mload\n      dup2\n      lt\n      tag_129\n      jumpi\n      invalid\n    tag_129:\n      0x20\n      mul\n      0x20\n      add\n      add\n        /* \"contracts/ERC1155MixedFungible.sol\":4872:4911  balances_[i] = balances[id][_owners[i]] */\n      dup2\n      dup2\n      mstore\n      pop\n      pop\n        /* \"contracts/ERC1155MixedFungible.sol\":4742:4926  if (isNonFungibleItem(id)) {... */\n    tag_127:\n        /* \"contracts/ERC1155MixedFungible.sol\":4649:4936  for (uint256 i = 0; i < _owners.length; ++i) {... */\n      pop\n        /* \"contracts/ERC1155MixedFungible.sol\":4689:4692  ++i */\n      dup1\n      0x01\n      add\n      swap1\n      pop\n        /* \"contracts/ERC1155MixedFungible.sol\":4649:4936  for (uint256 i = 0; i < _owners.length; ++i) {... */\n      jump(tag_117)\n    tag_118:\n      pop\n        /* \"contracts/ERC1155MixedFungible.sol\":4953:4962  balances_ */\n      dup1\n        /* \"contracts/ERC1155MixedFungible.sol\":4946:4962  return balances_ */\n      swap2\n      pop\n      pop\n        /* \"contracts/ERC1155MixedFungible.sol\":4402:4969  function balanceOfBatch(address[] calldata _owners, uint256[] calldata _ids) external view returns (uint256[] memory) {... */\n      swap5\n      swap4\n      pop\n      pop\n      pop\n      pop\n      jump\t// out\n        /* \"contracts/ERC1155MixedFungible.sol\":1449:1664  function isNonFungibleItem(uint256 _id) public pure returns(bool) {... */\n    tag_52:\n        /* \"contracts/ERC1155MixedFungible.sol\":1509:1513  bool */\n      0x00\n        /* \"contracts/ERC1155MixedFungible.sol\":633:641  1 << 255 */\n      0x8000000000000000000000000000000000000000000000000000000000000000\n      dup1\n        /* \"contracts/ERC1155MixedFungible.sol\":1594:1597  _id */\n      dup4\n        /* \"contracts/ERC1155MixedFungible.sol\":1594:1611  _id & TYPE_NF_BIT */\n      and\n        /* \"contracts/ERC1155MixedFungible.sol\":1594:1626  _id & TYPE_NF_BIT == TYPE_NF_BIT */\n      eq\n        /* \"contracts/ERC1155MixedFungible.sol\":1593:1657  (_id & TYPE_NF_BIT == TYPE_NF_BIT) && (_id & NF_INDEX_MASK != 0) */\n      dup1\n      iszero\n      tag_131\n      jumpi\n      pop\n        /* \"contracts/ERC1155MixedFungible.sol\":1655:1656  0 */\n      0x00\n        /* \"contracts/ERC1155MixedFungible.sol\":537:539  ~0 */\n      0xffffffffffffffffffffffffffffffffffffffffffffffffffffffffffffffff\n        /* \"contracts/ERC1155MixedFungible.sol\":1638:1651  NF_INDEX_MASK */\n      0xffffffffffffffffffffffffffffffff\n      and\n        /* \"contracts/ERC1155MixedFungible.sol\":1632:1635  _id */\n      dup4\n        /* \"contracts/ERC1155MixedFungible.sol\":1632:1651  _id & NF_INDEX_MASK */\n      and\n        /* \"contracts/ERC1155MixedFungible.sol\":1632:1656  _id & NF_INDEX_MASK != 0 */\n      eq\n      iszero\n        /* \"contracts/ERC1155MixedFungible.sol\":1593:1657  (_id & TYPE_NF_BIT == TYPE_NF_BIT) && (_id & NF_INDEX_MASK != 0) */\n    tag_131:\n        /* \"contracts/ERC1155MixedFungible.sol\":1586:1657  return (_id & TYPE_NF_BIT == TYPE_NF_BIT) && (_id & NF_INDEX_MASK != 0) */\n      swap1\n      pop\n        /* \"contracts/ERC1155MixedFungible.sol\":1449:1664  function isNonFungibleItem(uint256 _id) public pure returns(bool) {... */\n      swap2\n      swap1\n      pop\n      jump\t// out\n        /* \"contracts/ERC1155MixedFungible.sol\":1669:1766  function ownerOf(uint256 _id) public view returns (address) {... */\n    tag_55:\n        /* \"contracts/ERC1155MixedFungible.sol\":1720:1727  address */\n      0x00\n        /* \"contracts/ERC1155MixedFungible.sol\":1746:1754  nfOwners */\n      0x02\n        /* \"contracts/ERC1155MixedFungible.sol\":1746:1759  nfOwners[_id] */\n      0x00\n        /* \"contracts/ERC1155MixedFungible.sol\":1755:1758  _id */\n      dup4\n        /* \"contracts/ERC1155MixedFungible.sol\":1746:1759  nfOwners[_id] */\n      dup2\n      mstore\n      0x20\n      add\n      swap1\n      dup2\n      mstore\n      0x20\n      add\n      0x00\n      keccak256\n      0x00\n      swap1\n      sload\n      swap1\n      0x0100\n      exp\n      swap1\n      div\n      0xffffffffffffffffffffffffffffffffffffffff\n      and\n        /* \"contracts/ERC1155MixedFungible.sol\":1739:1759  return nfOwners[_id] */\n      swap1\n      pop\n        /* \"contracts/ERC1155MixedFungible.sol\":1669:1766  function ownerOf(uint256 _id) public view returns (address) {... */\n      swap2\n      swap1\n      pop\n      jump\t// out\n        /* \"contracts/ERC1155MixedFungible.sol\":1102:1215  function getNonFungibleBaseType(uint256 _id) public pure returns(uint256) {... */\n    tag_58:\n        /* \"contracts/ERC1155MixedFungible.sol\":1167:1174  uint256 */\n      0x00\n        /* \"contracts/ERC1155MixedFungible.sol\":433:436  128 */\n      0x80\n        /* \"contracts/ERC1155MixedFungible.sol\":425:427  ~0 */\n      0xffffffffffffffffffffffffffffffffffffffffffffffffffffffffffffffff\n        /* \"contracts/ERC1155MixedFungible.sol\":409:429  uint256(uint128(~0)) */\n      0xffffffffffffffffffffffffffffffff\n      and\n        /* \"contracts/ERC1155MixedFungible.sol\":409:436  uint256(uint128(~0)) << 128 */\n      swap1\n      shl\n        /* \"contracts/ERC1155MixedFungible.sol\":1193:1196  _id */\n      dup3\n        /* \"contracts/ERC1155MixedFungible.sol\":1193:1208  _id & TYPE_MASK */\n      and\n        /* \"contracts/ERC1155MixedFungible.sol\":1186:1208  return _id & TYPE_MASK */\n      swap1\n      pop\n        /* \"contracts/ERC1155MixedFungible.sol\":1102:1215  function getNonFungibleBaseType(uint256 _id) public pure returns(uint256) {... */\n      swap2\n      swap1\n      pop\n      jump\t// out\n        /* \"contracts/ERC1155MixedFungible.sol\":1220:1444  function isNonFungibleBaseType(uint256 _id) public pure returns(bool) {... */\n    tag_61:\n        /* \"contracts/ERC1155MixedFungible.sol\":1284:1288  bool */\n      0x00\n        /* \"contracts/ERC1155MixedFungible.sol\":633:641  1 << 255 */\n      0x8000000000000000000000000000000000000000000000000000000000000000\n      dup1\n        /* \"contracts/ERC1155MixedFungible.sol\":1374:1377  _id */\n      dup4\n        /* \"contracts/ERC1155MixedFungible.sol\":1374:1391  _id & TYPE_NF_BIT */\n      and\n        /* \"contracts/ERC1155MixedFungible.sol\":1374:1406  _id & TYPE_NF_BIT == TYPE_NF_BIT */\n      eq\n        /* \"contracts/ERC1155MixedFungible.sol\":1373:1437  (_id & TYPE_NF_BIT == TYPE_NF_BIT) && (_id & NF_INDEX_MASK == 0) */\n      dup1\n      iszero\n      tag_135\n      jumpi\n      pop\n        /* \"contracts/ERC1155MixedFungible.sol\":1435:1436  0 */\n      0x00\n        /* \"contracts/ERC1155MixedFungible.sol\":537:539  ~0 */\n      0xffffffffffffffffffffffffffffffffffffffffffffffffffffffffffffffff\n        /* \"contracts/ERC1155MixedFungible.sol\":1418:1431  NF_INDEX_MASK */\n      0xffffffffffffffffffffffffffffffff\n      and\n        /* \"contracts/ERC1155MixedFungible.sol\":1412:1415  _id */\n      dup4\n        /* \"contracts/ERC1155MixedFungible.sol\":1412:1431  _id & NF_INDEX_MASK */\n      and\n        /* \"contracts/ERC1155MixedFungible.sol\":1412:1436  _id & NF_INDEX_MASK == 0 */\n      eq\n        /* \"contracts/ERC1155MixedFungible.sol\":1373:1437  (_id & TYPE_NF_BIT == TYPE_NF_BIT) && (_id & NF_INDEX_MASK == 0) */\n    tag_135:\n        /* \"contracts/ERC1155MixedFungible.sol\":1366:1437  return (_id & TYPE_NF_BIT == TYPE_NF_BIT) && (_id & NF_INDEX_MASK == 0) */\n      swap1\n      pop\n        /* \"contracts/ERC1155MixedFungible.sol\":1220:1444  function isNonFungibleBaseType(uint256 _id) public pure returns(bool) {... */\n      swap2\n      swap1\n      pop\n      jump\t// out\n        /* \"contracts/ERC1155MixedFungible.sol\":983:1097  function getNonFungibleIndex(uint256 _id) public pure returns(uint256) {... */\n    tag_64:\n        /* \"contracts/ERC1155MixedFungible.sol\":1045:1052  uint256 */\n      0x00\n        /* \"contracts/ERC1155MixedFungible.sol\":537:539  ~0 */\n      0xffffffffffffffffffffffffffffffffffffffffffffffffffffffffffffffff\n        /* \"contracts/ERC1155MixedFungible.sol\":1077:1090  NF_INDEX_MASK */\n      0xffffffffffffffffffffffffffffffff\n      and\n        /* \"contracts/ERC1155MixedFungible.sol\":1071:1074  _id */\n      dup3\n        /* \"contracts/ERC1155MixedFungible.sol\":1071:1090  _id & NF_INDEX_MASK */\n      and\n        /* \"contracts/ERC1155MixedFungible.sol\":1064:1090  return _id & NF_INDEX_MASK */\n      swap1\n      pop\n        /* \"contracts/ERC1155MixedFungible.sol\":983:1097  function getNonFungibleIndex(uint256 _id) public pure returns(uint256) {... */\n      swap2\n      swap1\n      pop\n      jump\t// out\n        /* \"contracts/ERC1155.sol\":8817:9019  function setApprovalForAll(address _operator, bool _approved) external {... */\n    tag_67:\n        /* \"contracts/ERC1155.sol\":8940:8949  _approved */\n      dup1\n        /* \"contracts/ERC1155.sol\":8898:8914  operatorApproval */\n      0x01\n        /* \"contracts/ERC1155.sol\":8898:8926  operatorApproval[msg.sender] */\n      0x00\n        /* \"contracts/ERC1155.sol\":8915:8925  msg.sender */\n      caller\n        /* \"contracts/ERC1155.sol\":8898:8926  operatorApproval[msg.sender] */\n      0xffffffffffffffffffffffffffffffffffffffff\n      and\n      0xffffffffffffffffffffffffffffffffffffffff\n      and\n      dup2\n      mstore\n      0x20\n      add\n      swap1\n      dup2\n      mstore\n      0x20\n      add\n      0x00\n      keccak256\n        /* \"contracts/ERC1155.sol\":8898:8937  operatorApproval[msg.sender][_operator] */\n      0x00\n        /* \"contracts/ERC1155.sol\":8927:8936  _operator */\n      dup5\n        /* \"contracts/ERC1155.sol\":8898:8937  operatorApproval[msg.sender][_operator] */\n      0xffffffffffffffffffffffffffffffffffffffff\n      and\n      0xffffffffffffffffffffffffffffffffffffffff\n      and\n      dup2\n      mstore\n      0x20\n      add\n      swap1\n      dup2\n      mstore\n      0x20\n      add\n      0x00\n      keccak256\n      0x00\n        /* \"contracts/ERC1155.sol\":8898:8949  operatorApproval[msg.sender][_operator] = _approved */\n      0x0100\n      exp\n      dup2\n      sload\n      dup2\n      0xff\n      mul\n      not\n      and\n      swap1\n      dup4\n      iszero\n      iszero\n      mul\n      or\n      swap1\n      sstore\n      pop\n        /* \"contracts/ERC1155.sol\":8991:9000  _operator */\n      dup2\n        /* \"contracts/ERC1155.sol\":8964:9012  ApprovalForAll(msg.sender, _operator, _approved) */\n      0xffffffffffffffffffffffffffffffffffffffff\n      and\n        /* \"contracts/ERC1155.sol\":8979:8989  msg.sender */\n      caller\n        /* \"contracts/ERC1155.sol\":8964:9012  ApprovalForAll(msg.sender, _operator, _approved) */\n      0xffffffffffffffffffffffffffffffffffffffff\n      and\n      0x17307eab39ab6107e8899845ad3d59bd9653f200f220920489ca2b5937696c31\n        /* \"contracts/ERC1155.sol\":9002:9011  _approved */\n      dup4\n        /* \"contracts/ERC1155.sol\":8964:9012  ApprovalForAll(msg.sender, _operator, _approved) */\n      mload(0x40)\n      dup1\n      dup3\n      iszero\n      iszero\n      iszero\n      iszero\n      dup2\n      mstore\n      0x20\n      add\n      swap2\n      pop\n      pop\n      mload(0x40)\n      dup1\n      swap2\n      sub\n      swap1\n      log3\n        /* \"contracts/ERC1155.sol\":8817:9019  function setApprovalForAll(address _operator, bool _approved) external {... */\n      pop\n      pop\n      jump\t// out\n        /* \"contracts/ERC1155MixedFungible.sol\":873:978  function isFungible(uint256 _id) public pure returns(bool) {... */\n    tag_70:\n        /* \"contracts/ERC1155MixedFungible.sol\":926:930  bool */\n      0x00\n        /* \"contracts/ERC1155MixedFungible.sol\":970:971  0 */\n      dup1\n        /* \"contracts/ERC1155MixedFungible.sol\":633:641  1 << 255 */\n      0x8000000000000000000000000000000000000000000000000000000000000000\n        /* \"contracts/ERC1155MixedFungible.sol\":949:952  _id */\n      dup4\n        /* \"contracts/ERC1155MixedFungible.sol\":949:966  _id & TYPE_NF_BIT */\n      and\n        /* \"contracts/ERC1155MixedFungible.sol\":949:971  _id & TYPE_NF_BIT == 0 */\n      eq\n        /* \"contracts/ERC1155MixedFungible.sol\":942:971  return _id & TYPE_NF_BIT == 0 */\n      swap1\n      pop\n        /* \"contracts/ERC1155MixedFungible.sol\":873:978  function isFungible(uint256 _id) public pure returns(bool) {... */\n      swap2\n      swap1\n      pop\n      jump\t// out\n        /* \"contracts/ERC1155MixedFungible.sol\":750:868  function isNonFungible(uint256 _id) public pure returns(bool) {... */\n    tag_73:\n        /* \"contracts/ERC1155MixedFungible.sol\":806:810  bool */\n      0x00\n        /* \"contracts/ERC1155MixedFungible.sol\":633:641  1 << 255 */\n      0x8000000000000000000000000000000000000000000000000000000000000000\n      dup1\n        /* \"contracts/ERC1155MixedFungible.sol\":829:832  _id */\n      dup4\n        /* \"contracts/ERC1155MixedFungible.sol\":829:846  _id & TYPE_NF_BIT */\n      and\n        /* \"contracts/ERC1155MixedFungible.sol\":829:861  _id & TYPE_NF_BIT == TYPE_NF_BIT */\n      eq\n        /* \"contracts/ERC1155MixedFungible.sol\":822:861  return _id & TYPE_NF_BIT == TYPE_NF_BIT */\n      swap1\n      pop\n        /* \"contracts/ERC1155MixedFungible.sol\":750:868  function isNonFungible(uint256 _id) public pure returns(bool) {... */\n      swap2\n      swap1\n      pop\n      jump\t// out\n        /* \"contracts/ERC1155.sol\":9298:9447  function isApprovedForAll(address _owner, address _operator) external view returns (bool) {... */\n    tag_76:\n        /* \"contracts/ERC1155.sol\":9382:9386  bool */\n      0x00\n        /* \"contracts/ERC1155.sol\":9405:9421  operatorApproval */\n      0x01\n        /* \"contracts/ERC1155.sol\":9405:9429  operatorApproval[_owner] */\n      0x00\n        /* \"contracts/ERC1155.sol\":9422:9428  _owner */\n      dup5\n        /* \"contracts/ERC1155.sol\":9405:9429  operatorApproval[_owner] */\n      0xffffffffffffffffffffffffffffffffffffffff\n      and\n      0xffffffffffffffffffffffffffffffffffffffff\n      and\n      dup2\n      mstore\n      0x20\n      add\n      swap1\n      dup2\n      mstore\n      0x20\n      add\n      0x00\n      keccak256\n        /* \"contracts/ERC1155.sol\":9405:9440  operatorApproval[_owner][_operator] */\n      0x00\n        /* \"contracts/ERC1155.sol\":9430:9439  _operator */\n      dup4\n        /* \"contracts/ERC1155.sol\":9405:9440  operatorApproval[_owner][_operator] */\n      0xffffffffffffffffffffffffffffffffffffffff\n      and\n      0xffffffffffffffffffffffffffffffffffffffff\n      and\n      dup2\n      mstore\n      0x20\n      add\n      swap1\n      dup2\n      mstore\n      0x20\n      add\n      0x00\n      keccak256\n      0x00\n      swap1\n      sload\n      swap1\n      0x0100\n      exp\n      swap1\n      div\n      0xff\n      and\n        /* \"contracts/ERC1155.sol\":9398:9440  return operatorApproval[_owner][_operator] */\n      swap1\n      pop\n        /* \"contracts/ERC1155.sol\":9298:9447  function isApprovedForAll(address _owner, address _operator) external view returns (bool) {... */\n      swap3\n      swap2\n      pop\n      pop\n      jump\t// out\n        /* \"contracts/ERC1155MixedFungible.sol\":1788:2888  function safeTransferFrom(address _from, address _to, uint256 _id, uint256 _value, bytes calldata _data) external {... */\n    tag_82:\n        /* \"contracts/ERC1155MixedFungible.sol\":1936:1939  0x0 */\n      0x00\n        /* \"contracts/ERC1155MixedFungible.sol\":1921:1940  _to != address(0x0) */\n      0xffffffffffffffffffffffffffffffffffffffff\n      and\n        /* \"contracts/ERC1155MixedFungible.sol\":1921:1924  _to */\n      dup6\n        /* \"contracts/ERC1155MixedFungible.sol\":1921:1940  _to != address(0x0) */\n      0xffffffffffffffffffffffffffffffffffffffff\n      and\n      eq\n      iszero\n        /* \"contracts/ERC1155MixedFungible.sol\":1913:1972  require(_to != address(0x0), \"cannot send to zero address\") */\n      tag_142\n      jumpi\n      mload(0x40)\n      0x08c379a000000000000000000000000000000000000000000000000000000000\n      dup2\n      mstore\n      0x04\n      add\n      dup1\n      dup1\n      0x20\n      add\n      dup3\n      dup2\n      sub\n      dup3\n      mstore\n      0x1b\n      dup2\n      mstore\n      0x20\n      add\n      dup1\n      0x63616e6e6f742073656e6420746f207a65726f20616464726573730000000000\n      dup2\n      mstore\n      pop\n      0x20\n      add\n      swap2\n      pop\n      pop\n      mload(0x40)\n      dup1\n      swap2\n      sub\n      swap1\n      revert\n    tag_142:\n        /* \"contracts/ERC1155MixedFungible.sol\":1999:2009  msg.sender */\n      caller\n        /* \"contracts/ERC1155MixedFungible.sol\":1990:2009  _from == msg.sender */\n      0xffffffffffffffffffffffffffffffffffffffff\n      and\n        /* \"contracts/ERC1155MixedFungible.sol\":1990:1995  _from */\n      dup7\n        /* \"contracts/ERC1155MixedFungible.sol\":1990:2009  _from == msg.sender */\n      0xffffffffffffffffffffffffffffffffffffffff\n      and\n      eq\n        /* \"contracts/ERC1155MixedFungible.sol\":1990:2056  _from == msg.sender || operatorApproval[_from][msg.sender] == true */\n      dup1\n      tag_143\n      jumpi\n      pop\n        /* \"contracts/ERC1155MixedFungible.sol\":2052:2056  true */\n      0x01\n        /* \"contracts/ERC1155MixedFungible.sol\":2013:2056  operatorApproval[_from][msg.sender] == true */\n      iszero\n      iszero\n        /* \"contracts/ERC1155MixedFungible.sol\":2013:2029  operatorApproval */\n      0x01\n        /* \"contracts/ERC1155MixedFungible.sol\":2013:2036  operatorApproval[_from] */\n      0x00\n        /* \"contracts/ERC1155MixedFungible.sol\":2030:2035  _from */\n      dup9\n        /* \"contracts/ERC1155MixedFungible.sol\":2013:2036  operatorApproval[_from] */\n      0xffffffffffffffffffffffffffffffffffffffff\n      and\n      0xffffffffffffffffffffffffffffffffffffffff\n      and\n      dup2\n      mstore\n      0x20\n      add\n      swap1\n      dup2\n      mstore\n      0x20\n      add\n      0x00\n      keccak256\n        /* \"contracts/ERC1155MixedFungible.sol\":2013:2048  operatorApproval[_from][msg.sender] */\n      0x00\n        /* \"contracts/ERC1155MixedFungible.sol\":2037:2047  msg.sender */\n      caller\n        /* \"contracts/ERC1155MixedFungible.sol\":2013:2048  operatorApproval[_from][msg.sender] */\n      0xffffffffffffffffffffffffffffffffffffffff\n      and\n      0xffffffffffffffffffffffffffffffffffffffff\n      and\n      dup2\n      mstore\n      0x20\n      add\n      swap1\n      dup2\n      mstore\n      0x20\n      add\n      0x00\n      keccak256\n      0x00\n      swap1\n      sload\n      swap1\n      0x0100\n      exp\n      swap1\n      div\n      0xff\n      and\n        /* \"contracts/ERC1155MixedFungible.sol\":2013:2056  operatorApproval[_from][msg.sender] == true */\n      iszero\n      iszero\n      eq\n        /* \"contracts/ERC1155MixedFungible.sol\":1990:2056  _from == msg.sender || operatorApproval[_from][msg.sender] == true */\n    tag_143:\n        /* \"contracts/ERC1155MixedFungible.sol\":1982:2108  require(_from == msg.sender || operatorApproval[_from][msg.sender] == true, \"Need operator approval for 3rd party transfers.\") */\n      tag_144\n      jumpi\n      mload(0x40)\n      0x08c379a000000000000000000000000000000000000000000000000000000000\n      dup2\n      mstore\n      0x04\n      add\n      dup1\n      dup1\n      0x20\n      add\n      dup3\n      dup2\n      sub\n      dup3\n      mstore\n      0x2f\n      dup2\n      mstore\n      0x20\n      add\n      dup1\n      data_849b4236b9cc0954dc0e729ab0ed3552779085d502d2b1dad4e899fd8211d4be\n      0x2f\n      swap2\n      codecopy\n      0x40\n      add\n      swap2\n      pop\n      pop\n      mload(0x40)\n      dup1\n      swap2\n      sub\n      swap1\n      revert\n    tag_144:\n        /* \"contracts/ERC1155MixedFungible.sol\":2123:2141  isNonFungible(_id) */\n      tag_145\n        /* \"contracts/ERC1155MixedFungible.sol\":2137:2140  _id */\n      dup5\n        /* \"contracts/ERC1155MixedFungible.sol\":2123:2136  isNonFungible */\n      tag_73\n        /* \"contracts/ERC1155MixedFungible.sol\":2123:2141  isNonFungible(_id) */\n      jump\t// in\n    tag_145:\n        /* \"contracts/ERC1155MixedFungible.sol\":2119:2684  if (isNonFungible(_id)) {... */\n      iszero\n      tag_146\n      jumpi\n        /* \"contracts/ERC1155MixedFungible.sol\":2182:2187  _from */\n      dup6\n        /* \"contracts/ERC1155MixedFungible.sol\":2165:2187  nfOwners[_id] == _from */\n      0xffffffffffffffffffffffffffffffffffffffff\n      and\n        /* \"contracts/ERC1155MixedFungible.sol\":2165:2173  nfOwners */\n      0x02\n        /* \"contracts/ERC1155MixedFungible.sol\":2165:2178  nfOwners[_id] */\n      0x00\n        /* \"contracts/ERC1155MixedFungible.sol\":2174:2177  _id */\n      dup7\n        /* \"contracts/ERC1155MixedFungible.sol\":2165:2178  nfOwners[_id] */\n      dup2\n      mstore\n      0x20\n      add\n      swap1\n      dup2\n      mstore\n      0x20\n      add\n      0x00\n      keccak256\n      0x00\n      swap1\n      sload\n      swap1\n      0x0100\n      exp\n      swap1\n      div\n      0xffffffffffffffffffffffffffffffffffffffff\n      and\n        /* \"contracts/ERC1155MixedFungible.sol\":2165:2187  nfOwners[_id] == _from */\n      0xffffffffffffffffffffffffffffffffffffffff\n      and\n      eq\n        /* \"contracts/ERC1155MixedFungible.sol\":2157:2188  require(nfOwners[_id] == _from) */\n      tag_147\n      jumpi\n      0x00\n      dup1\n      revert\n    tag_147:\n        /* \"contracts/ERC1155MixedFungible.sol\":2218:2221  _to */\n      dup5\n        /* \"contracts/ERC1155MixedFungible.sol\":2202:2210  nfOwners */\n      0x02\n        /* \"contracts/ERC1155MixedFungible.sol\":2202:2215  nfOwners[_id] */\n      0x00\n        /* \"contracts/ERC1155MixedFungible.sol\":2211:2214  _id */\n      dup7\n        /* \"contracts/ERC1155MixedFungible.sol\":2202:2215  nfOwners[_id] */\n      dup2\n      mstore\n      0x20\n      add\n      swap1\n      dup2\n      mstore\n      0x20\n      add\n      0x00\n      keccak256\n      0x00\n        /* \"contracts/ERC1155MixedFungible.sol\":2202:2221  nfOwners[_id] = _to */\n      0x0100\n      exp\n      dup2\n      sload\n      dup2\n      0xffffffffffffffffffffffffffffffffffffffff\n      mul\n      not\n      and\n      swap1\n      dup4\n      0xffffffffffffffffffffffffffffffffffffffff\n      and\n      mul\n      or\n      swap1\n      sstore\n      pop\n        /* \"contracts/ERC1155MixedFungible.sol\":2119:2684  if (isNonFungible(_id)) {... */\n      jump(tag_148)\n    tag_146:\n        /* \"contracts/ERC1155MixedFungible.sol\":2574:2606  balances[_id][_from].sub(_value) */\n      tag_149\n        /* \"contracts/ERC1155MixedFungible.sol\":2599:2605  _value */\n      dup4\n        /* \"contracts/ERC1155MixedFungible.sol\":2574:2582  balances */\n      0x00\n        /* \"contracts/ERC1155MixedFungible.sol\":2574:2587  balances[_id] */\n      dup1\n        /* \"contracts/ERC1155MixedFungible.sol\":2583:2586  _id */\n      dup8\n        /* \"contracts/ERC1155MixedFungible.sol\":2574:2587  balances[_id] */\n      dup2\n      mstore\n      0x20\n      add\n      swap1\n      dup2\n      mstore\n      0x20\n      add\n      0x00\n      keccak256\n        /* \"contracts/ERC1155MixedFungible.sol\":2574:2594  balances[_id][_from] */\n      0x00\n        /* \"contracts/ERC1155MixedFungible.sol\":2588:2593  _from */\n      dup10\n        /* \"contracts/ERC1155MixedFungible.sol\":2574:2594  balances[_id][_from] */\n      0xffffffffffffffffffffffffffffffffffffffff\n      and\n      0xffffffffffffffffffffffffffffffffffffffff\n      and\n      dup2\n      mstore\n      0x20\n      add\n      swap1\n      dup2\n      mstore\n      0x20\n      add\n      0x00\n      keccak256\n      sload\n        /* \"contracts/ERC1155MixedFungible.sol\":2574:2598  balances[_id][_from].sub */\n      tag_106\n      swap1\n        /* \"contracts/ERC1155MixedFungible.sol\":2574:2606  balances[_id][_from].sub(_value) */\n      swap2\n      swap1\n      0xffffffff\n      and\n      jump\t// in\n    tag_149:\n        /* \"contracts/ERC1155MixedFungible.sol\":2551:2559  balances */\n      0x00\n        /* \"contracts/ERC1155MixedFungible.sol\":2551:2564  balances[_id] */\n      dup1\n        /* \"contracts/ERC1155MixedFungible.sol\":2560:2563  _id */\n      dup7\n        /* \"contracts/ERC1155MixedFungible.sol\":2551:2564  balances[_id] */\n      dup2\n      mstore\n      0x20\n      add\n      swap1\n      dup2\n      mstore\n      0x20\n      add\n      0x00\n      keccak256\n        /* \"contracts/ERC1155MixedFungible.sol\":2551:2571  balances[_id][_from] */\n      0x00\n        /* \"contracts/ERC1155MixedFungible.sol\":2565:2570  _from */\n      dup9\n        /* \"contracts/ERC1155MixedFungible.sol\":2551:2571  balances[_id][_from] */\n      0xffffffffffffffffffffffffffffffffffffffff\n      and\n      0xffffffffffffffffffffffffffffffffffffffff\n      and\n      dup2\n      mstore\n      0x20\n      add\n      swap1\n      dup2\n      mstore\n      0x20\n      add\n      0x00\n      keccak256\n        /* \"contracts/ERC1155MixedFungible.sol\":2551:2606  balances[_id][_from] = balances[_id][_from].sub(_value) */\n      dup2\n      swap1\n      sstore\n      pop\n        /* \"contracts/ERC1155MixedFungible.sol\":2643:2673  balances[_id][_to].add(_value) */\n      tag_150\n        /* \"contracts/ERC1155MixedFungible.sol\":2666:2672  _value */\n      dup4\n        /* \"contracts/ERC1155MixedFungible.sol\":2643:2651  balances */\n      0x00\n        /* \"contracts/ERC1155MixedFungible.sol\":2643:2656  balances[_id] */\n      dup1\n        /* \"contracts/ERC1155MixedFungible.sol\":2652:2655  _id */\n      dup8\n        /* \"contracts/ERC1155MixedFungible.sol\":2643:2656  balances[_id] */\n      dup2\n      mstore\n      0x20\n      add\n      swap1\n      dup2\n      mstore\n      0x20\n      add\n      0x00\n      keccak256\n        /* \"contracts/ERC1155MixedFungible.sol\":2643:2661  balances[_id][_to] */\n      0x00\n        /* \"contracts/ERC1155MixedFungible.sol\":2657:2660  _to */\n      dup9\n        /* \"contracts/ERC1155MixedFungible.sol\":2643:2661  balances[_id][_to] */\n      0xffffffffffffffffffffffffffffffffffffffff\n      and\n      0xffffffffffffffffffffffffffffffffffffffff\n      and\n      dup2\n      mstore\n      0x20\n      add\n      swap1\n      dup2\n      mstore\n      0x20\n      add\n      0x00\n      keccak256\n      sload\n        /* \"contracts/ERC1155MixedFungible.sol\":2643:2665  balances[_id][_to].add */\n      tag_108\n      swap1\n        /* \"contracts/ERC1155MixedFungible.sol\":2643:2673  balances[_id][_to].add(_value) */\n      swap2\n      swap1\n      0xffffffff\n      and\n      jump\t// in\n    tag_150:\n        /* \"contracts/ERC1155MixedFungible.sol\":2620:2628  balances */\n      0x00\n        /* \"contracts/ERC1155MixedFungible.sol\":2620:2633  balances[_id] */\n      dup1\n        /* \"contracts/ERC1155MixedFungible.sol\":2629:2632  _id */\n      dup7\n        /* \"contracts/ERC1155MixedFungible.sol\":2620:2633  balances[_id] */\n      dup2\n      mstore\n      0x20\n      add\n      swap1\n      dup2\n      mstore\n      0x20\n      add\n      0x00\n      keccak256\n        /* \"contracts/ERC1155MixedFungible.sol\":2620:2638  balances[_id][_to] */\n      0x00\n        /* \"contracts/ERC1155MixedFungible.sol\":2634:2637  _to */\n      dup8\n        /* \"contracts/ERC1155MixedFungible.sol\":2620:2638  balances[_id][_to] */\n      0xffffffffffffffffffffffffffffffffffffffff\n      and\n      0xffffffffffffffffffffffffffffffffffffffff\n      and\n      dup2\n      mstore\n      0x20\n      add\n      swap1\n      dup2\n      mstore\n      0x20\n      add\n      0x00\n      keccak256\n        /* \"contracts/ERC1155MixedFungible.sol\":2620:2673  balances[_id][_to]   = balances[_id][_to].add(_value) */\n      dup2\n      swap1\n      sstore\n      pop\n        /* \"contracts/ERC1155MixedFungible.sol\":2119:2684  if (isNonFungible(_id)) {... */\n    tag_148:\n        /* \"contracts/ERC1155MixedFungible.sol\":2733:2736  _to */\n      dup5\n        /* \"contracts/ERC1155MixedFungible.sol\":2699:2750  TransferSingle(msg.sender, _from, _to, _id, _value) */\n      0xffffffffffffffffffffffffffffffffffffffff\n      and\n        /* \"contracts/ERC1155MixedFungible.sol\":2726:2731  _from */\n      dup7\n        /* \"contracts/ERC1155MixedFungible.sol\":2699:2750  TransferSingle(msg.sender, _from, _to, _id, _value) */\n      0xffffffffffffffffffffffffffffffffffffffff\n      and\n        /* \"contracts/ERC1155MixedFungible.sol\":2714:2724  msg.sender */\n      caller\n        /* \"contracts/ERC1155MixedFungible.sol\":2699:2750  TransferSingle(msg.sender, _from, _to, _id, _value) */\n      0xffffffffffffffffffffffffffffffffffffffff\n      and\n      0xc3d58168c5ae7397731d063d5bbf3d657854427343f4c083240f7aacaa2d0f62\n        /* \"contracts/ERC1155MixedFungible.sol\":2738:2741  _id */\n      dup8\n        /* \"contracts/ERC1155MixedFungible.sol\":2743:2749  _value */\n      dup8\n        /* \"contracts/ERC1155MixedFungible.sol\":2699:2750  TransferSingle(msg.sender, _from, _to, _id, _value) */\n      mload(0x40)\n      dup1\n      dup4\n      dup2\n      mstore\n      0x20\n      add\n      dup3\n      dup2\n      mstore\n      0x20\n      add\n      swap3\n      pop\n      pop\n      pop\n      mload(0x40)\n      dup1\n      swap2\n      sub\n      swap1\n      log4\n        /* \"contracts/ERC1155MixedFungible.sol\":2765:2781  _to.isContract() */\n      tag_151\n        /* \"contracts/ERC1155MixedFungible.sol\":2765:2768  _to */\n      dup6\n        /* \"contracts/ERC1155MixedFungible.sol\":2765:2779  _to.isContract */\n      0xffffffffffffffffffffffffffffffffffffffff\n      and\n      tag_110\n        /* \"contracts/ERC1155MixedFungible.sol\":2765:2781  _to.isContract() */\n      jump\t// in\n    tag_151:\n        /* \"contracts/ERC1155MixedFungible.sol\":2761:2882  if (_to.isContract()) {... */\n      iszero\n      tag_152\n      jumpi\n        /* \"contracts/ERC1155MixedFungible.sol\":2797:2871  _doSafeTransferAcceptanceCheck(msg.sender, _from, _to, _id, _value, _data) */\n      tag_153\n        /* \"contracts/ERC1155MixedFungible.sol\":2828:2838  msg.sender */\n      caller\n        /* \"contracts/ERC1155MixedFungible.sol\":2840:2845  _from */\n      dup8\n        /* \"contracts/ERC1155MixedFungible.sol\":2847:2850  _to */\n      dup8\n        /* \"contracts/ERC1155MixedFungible.sol\":2852:2855  _id */\n      dup8\n        /* \"contracts/ERC1155MixedFungible.sol\":2857:2863  _value */\n      dup8\n        /* \"contracts/ERC1155MixedFungible.sol\":2865:2870  _data */\n      dup8\n      dup8\n        /* \"contracts/ERC1155MixedFungible.sol\":2797:2871  _doSafeTransferAcceptanceCheck(msg.sender, _from, _to, _id, _value, _data) */\n      dup1\n      dup1\n      0x1f\n      add\n      0x20\n      dup1\n      swap2\n      div\n      mul\n      0x20\n      add\n      mload(0x40)\n      swap1\n      dup2\n      add\n      0x40\n      mstore\n      dup1\n      swap4\n      swap3\n      swap2\n      swap1\n      dup2\n      dup2\n      mstore\n      0x20\n      add\n      dup4\n      dup4\n        /* \"--CODEGEN--\":30:33   */\n      dup1\n        /* \"--CODEGEN--\":22:28   */\n      dup3\n        /* \"--CODEGEN--\":14:20   */\n      dup5\n        /* \"--CODEGEN--\":1:34   */\n      calldatacopy\n        /* \"--CODEGEN--\":99:100   */\n      0x00\n        /* \"--CODEGEN--\":93:96   */\n      dup2\n        /* \"--CODEGEN--\":85:91   */\n      dup5\n        /* \"--CODEGEN--\":81:97   */\n      add\n        /* \"--CODEGEN--\":74:101   */\n      mstore\n        /* \"--CODEGEN--\":137:141   */\n      0x1f\n        /* \"--CODEGEN--\":133:142   */\n      not\n        /* \"--CODEGEN--\":126:130   */\n      0x1f\n        /* \"--CODEGEN--\":121:124   */\n      dup3\n        /* \"--CODEGEN--\":117:131   */\n      add\n        /* \"--CODEGEN--\":113:143   */\n      and\n        /* \"--CODEGEN--\":106:143   */\n      swap1\n      pop\n        /* \"--CODEGEN--\":169:172   */\n      dup1\n        /* \"--CODEGEN--\":161:167   */\n      dup4\n        /* \"--CODEGEN--\":157:173   */\n      add\n        /* \"--CODEGEN--\":147:173   */\n      swap3\n      pop\n        /* \"contracts/ERC1155MixedFungible.sol\":2797:2871  _doSafeTransferAcceptanceCheck(msg.sender, _from, _to, _id, _value, _data) */\n      pop\n      pop\n      pop\n      pop\n      pop\n      pop\n        /* \"contracts/ERC1155MixedFungible.sol\":2797:2827  _doSafeTransferAcceptanceCheck */\n      tag_154\n        /* \"contracts/ERC1155MixedFungible.sol\":2797:2871  _doSafeTransferAcceptanceCheck(msg.sender, _from, _to, _id, _value, _data) */\n      jump\t// in\n    tag_153:\n        /* \"contracts/ERC1155MixedFungible.sol\":2761:2882  if (_to.isContract()) {... */\n    tag_152:\n        /* \"contracts/ERC1155MixedFungible.sol\":1788:2888  function safeTransferFrom(address _from, address _to, uint256 _id, uint256 _value, bytes calldata _data) external {... */\n      pop\n      pop\n      pop\n      pop\n      pop\n      pop\n      jump\t// out\n        /* \"contracts/SafeMath.sol\":1123:1243  function sub(uint256 a, uint256 b) internal pure returns (uint256) {... */\n    tag_106:\n        /* \"contracts/SafeMath.sol\":1181:1188  uint256 */\n      0x00\n        /* \"contracts/SafeMath.sol\":1212:1213  a */\n      dup3\n        /* \"contracts/SafeMath.sol\":1207:1208  b */\n      dup3\n        /* \"contracts/SafeMath.sol\":1207:1213  b <= a */\n      gt\n      iszero\n        /* \"contracts/SafeMath.sol\":1200:1214  assert(b <= a) */\n      tag_156\n      jumpi\n      invalid\n    tag_156:\n        /* \"contracts/SafeMath.sol\":1235:1236  b */\n      dup2\n        /* \"contracts/SafeMath.sol\":1231:1232  a */\n      dup4\n        /* \"contracts/SafeMath.sol\":1231:1236  a - b */\n      sub\n        /* \"contracts/SafeMath.sol\":1224:1236  return a - b */\n      swap1\n      pop\n        /* \"contracts/SafeMath.sol\":1123:1243  function sub(uint256 a, uint256 b) internal pure returns (uint256) {... */\n      swap3\n      swap2\n      pop\n      pop\n      jump\t// out\n        /* \"contracts/SafeMath.sol\":1313:1450  function add(uint256 a, uint256 b) internal pure returns (uint256 c) {... */\n    tag_108:\n        /* \"contracts/SafeMath.sol\":1371:1380  uint256 c */\n      0x00\n        /* \"contracts/SafeMath.sol\":1400:1401  b */\n      dup2\n        /* \"contracts/SafeMath.sol\":1396:1397  a */\n      dup4\n        /* \"contracts/SafeMath.sol\":1396:1401  a + b */\n      add\n        /* \"contracts/SafeMath.sol\":1392:1401  c = a + b */\n      swap1\n      pop\n        /* \"contracts/SafeMath.sol\":1423:1424  a */\n      dup3\n        /* \"contracts/SafeMath.sol\":1418:1419  c */\n      dup2\n        /* \"contracts/SafeMath.sol\":1418:1424  c >= a */\n      lt\n      iszero\n        /* \"contracts/SafeMath.sol\":1411:1425  assert(c >= a) */\n      tag_158\n      jumpi\n      invalid\n    tag_158:\n        /* \"contracts/SafeMath.sol\":1442:1443  c */\n      dup1\n        /* \"contracts/SafeMath.sol\":1435:1443  return c */\n      swap1\n      pop\n        /* \"contracts/SafeMath.sol\":1313:1450  function add(uint256 a, uint256 b) internal pure returns (uint256 c) {... */\n      swap3\n      swap2\n      pop\n      pop\n      jump\t// out\n        /* \"contracts/Address.sol\":465:1089  function isContract(address account) internal view returns (bool) {... */\n    tag_110:\n        /* \"contracts/Address.sol\":525:529  bool */\n      0x00\n        /* \"contracts/Address.sol\":541:553  uint256 size */\n      dup1\n        /* \"contracts/Address.sol\":1048:1055  account */\n      dup3\n        /* \"contracts/Address.sol\":1036:1056  extcodesize(account) */\n      extcodesize\n        /* \"contracts/Address.sol\":1028:1056  size := extcodesize(account) */\n      swap1\n      pop\n        /* \"contracts/Address.sol\":1081:1082  0 */\n      0x00\n        /* \"contracts/Address.sol\":1074:1078  size */\n      dup2\n        /* \"contracts/Address.sol\":1074:1082  size > 0 */\n      gt\n        /* \"contracts/Address.sol\":1067:1082  return size > 0 */\n      swap2\n      pop\n      pop\n        /* \"contracts/Address.sol\":465:1089  function isContract(address account) internal view returns (bool) {... */\n      swap2\n      swap1\n      pop\n      jump\t// out\n        /* \"contracts/ERC1155.sol\":10688:11869  function _doSafeBatchTransferAcceptanceCheck(address _operator, address _from, address _to, uint256[] memory _ids, uint256[] memory _values, bytes memory _data) internal {... */\n    tag_113:\n        /* \"contracts/Common.sol\":311:321  0xbc197c81 */\n      0xbc197c81\n        /* \"contracts/ERC1155.sol\":11773:11795  ERC1155_BATCH_ACCEPTED */\n      0xe0\n      shl\n        /* \"contracts/ERC1155.sol\":11681:11795  ERC1155TokenReceiver(_to).onERC1155BatchReceived(_operator, _from, _ids, _values, _data) == ERC1155_BATCH_ACCEPTED */\n      not(0xffffffffffffffffffffffffffffffffffffffffffffffffffffffff)\n      and\n        /* \"contracts/ERC1155.sol\":11702:11705  _to */\n      dup5\n        /* \"contracts/ERC1155.sol\":11681:11729  ERC1155TokenReceiver(_to).onERC1155BatchReceived */\n      0xffffffffffffffffffffffffffffffffffffffff\n      and\n      0xbc197c81\n        /* \"contracts/ERC1155.sol\":11730:11739  _operator */\n      dup9\n        /* \"contracts/ERC1155.sol\":11741:11746  _from */\n      dup9\n        /* \"contracts/ERC1155.sol\":11748:11752  _ids */\n      dup8\n        /* \"contracts/ERC1155.sol\":11754:11761  _values */\n      dup8\n        /* \"contracts/ERC1155.sol\":11763:11768  _data */\n      dup8\n        /* \"contracts/ERC1155.sol\":11681:11769  ERC1155TokenReceiver(_to).onERC1155BatchReceived(_operator, _from, _ids, _values, _data) */\n      mload(0x40)\n      dup7\n      0xffffffff\n      and\n      0xe0\n      shl\n      dup2\n      mstore\n      0x04\n      add\n      dup1\n      dup7\n      0xffffffffffffffffffffffffffffffffffffffff\n      and\n      0xffffffffffffffffffffffffffffffffffffffff\n      and\n      dup2\n      mstore\n      0x20\n      add\n      dup6\n      0xffffffffffffffffffffffffffffffffffffffff\n      and\n      0xffffffffffffffffffffffffffffffffffffffff\n      and\n      dup2\n      mstore\n      0x20\n      add\n      dup1\n      0x20\n      add\n      dup1\n      0x20\n      add\n      dup1\n      0x20\n      add\n      dup5\n      dup2\n      sub\n      dup5\n      mstore\n      dup8\n      dup2\n      dup2\n      mload\n      dup2\n      mstore\n      0x20\n      add\n      swap2\n      pop\n      dup1\n      mload\n      swap1\n      0x20\n      add\n      swap1\n      0x20\n      mul\n      dup1\n      dup4\n      dup4\n        /* \"--CODEGEN--\":23:24   */\n      0x00\n        /* \"--CODEGEN--\":8:108   */\n    tag_161:\n        /* \"--CODEGEN--\":33:36   */\n      dup4\n        /* \"--CODEGEN--\":30:31   */\n      dup2\n        /* \"--CODEGEN--\":27:37   */\n      lt\n        /* \"--CODEGEN--\":8:108   */\n      iszero\n      tag_163\n      jumpi\n        /* \"--CODEGEN--\":99:100   */\n      dup1\n        /* \"--CODEGEN--\":94:97   */\n      dup3\n        /* \"--CODEGEN--\":90:101   */\n      add\n        /* \"--CODEGEN--\":84:102   */\n      mload\n        /* \"--CODEGEN--\":80:81   */\n      dup2\n        /* \"--CODEGEN--\":75:78   */\n      dup5\n        /* \"--CODEGEN--\":71:82   */\n      add\n        /* \"--CODEGEN--\":64:103   */\n      mstore\n        /* \"--CODEGEN--\":52:54   */\n      0x20\n        /* \"--CODEGEN--\":49:50   */\n      dup2\n        /* \"--CODEGEN--\":45:55   */\n      add\n        /* \"--CODEGEN--\":40:55   */\n      swap1\n      pop\n        /* \"--CODEGEN--\":8:108   */\n      jump(tag_161)\n    tag_163:\n        /* \"--CODEGEN--\":12:26   */\n      pop\n        /* \"contracts/ERC1155.sol\":11681:11769  ERC1155TokenReceiver(_to).onERC1155BatchReceived(_operator, _from, _ids, _values, _data) */\n      pop\n      pop\n      pop\n      swap1\n      pop\n      add\n      dup5\n      dup2\n      sub\n      dup4\n      mstore\n      dup7\n      dup2\n      dup2\n      mload\n      dup2\n      mstore\n      0x20\n      add\n      swap2\n      pop\n      dup1\n      mload\n      swap1\n      0x20\n      add\n      swap1\n      0x20\n      mul\n      dup1\n      dup4\n      dup4\n        /* \"--CODEGEN--\":23:24   */\n      0x00\n        /* \"--CODEGEN--\":8:108   */\n    tag_164:\n        /* \"--CODEGEN--\":33:36   */\n      dup4\n        /* \"--CODEGEN--\":30:31   */\n      dup2\n        /* \"--CODEGEN--\":27:37   */\n      lt\n        /* \"--CODEGEN--\":8:108   */\n      iszero\n      tag_166\n      jumpi\n        /* \"--CODEGEN--\":99:100   */\n      dup1\n        /* \"--CODEGEN--\":94:97   */\n      dup3\n        /* \"--CODEGEN--\":90:101   */\n      add\n        /* \"--CODEGEN--\":84:102   */\n      mload\n        /* \"--CODEGEN--\":80:81   */\n      dup2\n        /* \"--CODEGEN--\":75:78   */\n      dup5\n        /* \"--CODEGEN--\":71:82   */\n      add\n        /* \"--CODEGEN--\":64:103   */\n      mstore\n        /* \"--CODEGEN--\":52:54   */\n      0x20\n        /* \"--CODEGEN--\":49:50   */\n      dup2\n        /* \"--CODEGEN--\":45:55   */\n      add\n        /* \"--CODEGEN--\":40:55   */\n      swap1\n      pop\n        /* \"--CODEGEN--\":8:108   */\n      jump(tag_164)\n    tag_166:\n        /* \"--CODEGEN--\":12:26   */\n      pop\n        /* \"contracts/ERC1155.sol\":11681:11769  ERC1155TokenReceiver(_to).onERC1155BatchReceived(_operator, _from, _ids, _values, _data) */\n      pop\n      pop\n      pop\n      swap1\n      pop\n      add\n      dup5\n      dup2\n      sub\n      dup3\n      mstore\n      dup6\n      dup2\n      dup2\n      mload\n      dup2\n      mstore\n      0x20\n      add\n      swap2\n      pop\n      dup1\n      mload\n      swap1\n      0x20\n      add\n      swap1\n      dup1\n      dup4\n      dup4\n        /* \"--CODEGEN--\":23:24   */\n      0x00\n        /* \"--CODEGEN--\":8:108   */\n    tag_167:\n        /* \"--CODEGEN--\":33:36   */\n      dup4\n        /* \"--CODEGEN--\":30:31   */\n      dup2\n        /* \"--CODEGEN--\":27:37   */\n      lt\n        /* \"--CODEGEN--\":8:108   */\n      iszero\n      tag_169\n      jumpi\n        /* \"--CODEGEN--\":99:100   */\n      dup1\n        /* \"--CODEGEN--\":94:97   */\n      dup3\n        /* \"--CODEGEN--\":90:101   */\n      add\n        /* \"--CODEGEN--\":84:102   */\n      mload\n        /* \"--CODEGEN--\":80:81   */\n      dup2\n        /* \"--CODEGEN--\":75:78   */\n      dup5\n        /* \"--CODEGEN--\":71:82   */\n      add\n        /* \"--CODEGEN--\":64:103   */\n      mstore\n        /* \"--CODEGEN--\":52:54   */\n      0x20\n        /* \"--CODEGEN--\":49:50   */\n      dup2\n        /* \"--CODEGEN--\":45:55   */\n      add\n        /* \"--CODEGEN--\":40:55   */\n      swap1\n      pop\n        /* \"--CODEGEN--\":8:108   */\n      jump(tag_167)\n    tag_169:\n        /* \"--CODEGEN--\":12:26   */\n      pop\n        /* \"contracts/ERC1155.sol\":11681:11769  ERC1155TokenReceiver(_to).onERC1155BatchReceived(_operator, _from, _ids, _values, _data) */\n      pop\n      pop\n      pop\n      swap1\n      pop\n      swap1\n      dup2\n      add\n      swap1\n      0x1f\n      and\n      dup1\n      iszero\n      tag_170\n      jumpi\n      dup1\n      dup3\n      sub\n      dup1\n      mload\n      0x01\n      dup4\n      0x20\n      sub\n      0x0100\n      exp\n      sub\n      not\n      and\n      dup2\n      mstore\n      0x20\n      add\n      swap2\n      pop\n    tag_170:\n      pop\n      swap9\n      pop\n      pop\n      pop\n      pop\n      pop\n      pop\n      pop\n      pop\n      pop\n      0x20\n      mload(0x40)\n      dup1\n      dup4\n      sub\n      dup2\n      0x00\n      dup8\n      dup1\n      extcodesize\n      iszero\n        /* \"--CODEGEN--\":8:17   */\n      dup1\n        /* \"--CODEGEN--\":5:7   */\n      iszero\n      tag_171\n      jumpi\n        /* \"--CODEGEN--\":30:31   */\n      0x00\n        /* \"--CODEGEN--\":27:28   */\n      dup1\n        /* \"--CODEGEN--\":20:32   */\n      revert\n        /* \"--CODEGEN--\":5:7   */\n    tag_171:\n        /* \"contracts/ERC1155.sol\":11681:11769  ERC1155TokenReceiver(_to).onERC1155BatchReceived(_operator, _from, _ids, _values, _data) */\n      pop\n      gas\n      call\n      iszero\n        /* \"--CODEGEN--\":8:17   */\n      dup1\n        /* \"--CODEGEN--\":5:7   */\n      iszero\n      tag_172\n      jumpi\n        /* \"--CODEGEN--\":45:61   */\n      returndatasize\n        /* \"--CODEGEN--\":42:43   */\n      0x00\n        /* \"--CODEGEN--\":39:40   */\n      dup1\n        /* \"--CODEGEN--\":24:62   */\n      returndatacopy\n        /* \"--CODEGEN--\":77:93   */\n      returndatasize\n        /* \"--CODEGEN--\":74:75   */\n      0x00\n        /* \"--CODEGEN--\":67:94   */\n      revert\n        /* \"--CODEGEN--\":5:7   */\n    tag_172:\n        /* \"contracts/ERC1155.sol\":11681:11769  ERC1155TokenReceiver(_to).onERC1155BatchReceived(_operator, _from, _ids, _values, _data) */\n      pop\n      pop\n      pop\n      pop\n      mload(0x40)\n      returndatasize\n        /* \"--CODEGEN--\":13:15   */\n      0x20\n        /* \"--CODEGEN--\":8:11   */\n      dup2\n        /* \"--CODEGEN--\":5:16   */\n      lt\n        /* \"--CODEGEN--\":2:4   */\n      iszero\n      tag_173\n      jumpi\n        /* \"--CODEGEN--\":29:30   */\n      0x00\n        /* \"--CODEGEN--\":26:27   */\n      dup1\n        /* \"--CODEGEN--\":19:31   */\n      revert\n        /* \"--CODEGEN--\":2:4   */\n    tag_173:\n        /* \"contracts/ERC1155.sol\":11681:11769  ERC1155TokenReceiver(_to).onERC1155BatchReceived(_operator, _from, _ids, _values, _data) */\n      dup2\n      add\n      swap1\n      dup1\n      dup1\n      mload\n      swap1\n      0x20\n      add\n      swap1\n      swap3\n      swap2\n      swap1\n      pop\n      pop\n      pop\n        /* \"contracts/ERC1155.sol\":11681:11795  ERC1155TokenReceiver(_to).onERC1155BatchReceived(_operator, _from, _ids, _values, _data) == ERC1155_BATCH_ACCEPTED */\n      not(0xffffffffffffffffffffffffffffffffffffffffffffffffffffffff)\n      and\n      eq\n        /* \"contracts/ERC1155.sol\":11673:11862  require(ERC1155TokenReceiver(_to).onERC1155BatchReceived(_operator, _from, _ids, _values, _data) == ERC1155_BATCH_ACCEPTED, \"contract returned an unknown value from onERC1155BatchReceived\") */\n      tag_174\n      jumpi\n      mload(0x40)\n      0x08c379a000000000000000000000000000000000000000000000000000000000\n      dup2\n      mstore\n      0x04\n      add\n      dup1\n      dup1\n      0x20\n      add\n      dup3\n      dup2\n      sub\n      dup3\n      mstore\n      0x3e\n      dup2\n      mstore\n      0x20\n      add\n      dup1\n      data_907b1bc15e21fe4233c673581af2cf868cd5fa614b6015b432ff41fbc0222bad\n      0x3e\n      swap2\n      codecopy\n      0x40\n      add\n      swap2\n      pop\n      pop\n      mload(0x40)\n      dup1\n      swap2\n      sub\n      swap1\n      revert\n    tag_174:\n        /* \"contracts/ERC1155.sol\":10688:11869  function _doSafeBatchTransferAcceptanceCheck(address _operator, address _from, address _to, uint256[] memory _ids, uint256[] memory _values, bytes memory _data) internal {... */\n      pop\n      pop\n      pop\n      pop\n      pop\n      pop\n      jump\t// out\n        /* \"contracts/ERC1155.sol\":9554:10682  function _doSafeTransferAcceptanceCheck(address _operator, address _from, address _to, uint256 _id, uint256 _value, bytes memory _data) internal {... */\n    tag_154:\n        /* \"contracts/Common.sol\":164:174  0xf23a6e61 */\n      0xf23a6e61\n        /* \"contracts/ERC1155.sol\":10597:10613  ERC1155_ACCEPTED */\n      0xe0\n      shl\n        /* \"contracts/ERC1155.sol\":10512:10613  ERC1155TokenReceiver(_to).onERC1155Received(_operator, _from, _id, _value, _data) == ERC1155_ACCEPTED */\n      not(0xffffffffffffffffffffffffffffffffffffffffffffffffffffffff)\n      and\n        /* \"contracts/ERC1155.sol\":10533:10536  _to */\n      dup5\n        /* \"contracts/ERC1155.sol\":10512:10555  ERC1155TokenReceiver(_to).onERC1155Received */\n      0xffffffffffffffffffffffffffffffffffffffff\n      and\n      0xf23a6e61\n        /* \"contracts/ERC1155.sol\":10556:10565  _operator */\n      dup9\n        /* \"contracts/ERC1155.sol\":10567:10572  _from */\n      dup9\n        /* \"contracts/ERC1155.sol\":10574:10577  _id */\n      dup8\n        /* \"contracts/ERC1155.sol\":10579:10585  _value */\n      dup8\n        /* \"contracts/ERC1155.sol\":10587:10592  _data */\n      dup8\n        /* \"contracts/ERC1155.sol\":10512:10593  ERC1155TokenReceiver(_to).onERC1155Received(_operator, _from, _id, _value, _data) */\n      mload(0x40)\n      dup7\n      0xffffffff\n      and\n      0xe0\n      shl\n      dup2\n      mstore\n      0x04\n      add\n      dup1\n      dup7\n      0xffffffffffffffffffffffffffffffffffffffff\n      and\n      0xffffffffffffffffffffffffffffffffffffffff\n      and\n      dup2\n      mstore\n      0x20\n      add\n      dup6\n      0xffffffffffffffffffffffffffffffffffffffff\n      and\n      0xffffffffffffffffffffffffffffffffffffffff\n      and\n      dup2\n      mstore\n      0x20\n      add\n      dup5\n      dup2\n      mstore\n      0x20\n      add\n      dup4\n      dup2\n      mstore\n      0x20\n      add\n      dup1\n      0x20\n      add\n      dup3\n      dup2\n      sub\n      dup3\n      mstore\n      dup4\n      dup2\n      dup2\n      mload\n      dup2\n      mstore\n      0x20\n      add\n      swap2\n      pop\n      dup1\n      mload\n      swap1\n      0x20\n      add\n      swap1\n      dup1\n      dup4\n      dup4\n        /* \"--CODEGEN--\":23:24   */\n      0x00\n        /* \"--CODEGEN--\":8:108   */\n    tag_176:\n        /* \"--CODEGEN--\":33:36   */\n      dup4\n        /* \"--CODEGEN--\":30:31   */\n      dup2\n        /* \"--CODEGEN--\":27:37   */\n      lt\n        /* \"--CODEGEN--\":8:108   */\n      iszero\n      tag_178\n      jumpi\n        /* \"--CODEGEN--\":99:100   */\n      dup1\n        /* \"--CODEGEN--\":94:97   */\n      dup3\n        /* \"--CODEGEN--\":90:101   */\n      add\n        /* \"--CODEGEN--\":84:102   */\n      mload\n        /* \"--CODEGEN--\":80:81   */\n      dup2\n        /* \"--CODEGEN--\":75:78   */\n      dup5\n        /* \"--CODEGEN--\":71:82   */\n      add\n        /* \"--CODEGEN--\":64:103   */\n      mstore\n        /* \"--CODEGEN--\":52:54   */\n      0x20\n        /* \"--CODEGEN--\":49:50   */\n      dup2\n        /* \"--CODEGEN--\":45:55   */\n      add\n        /* \"--CODEGEN--\":40:55   */\n      swap1\n      pop\n        /* \"--CODEGEN--\":8:108   */\n      jump(tag_176)\n    tag_178:\n        /* \"--CODEGEN--\":12:26   */\n      pop\n        /* \"contracts/ERC1155.sol\":10512:10593  ERC1155TokenReceiver(_to).onERC1155Received(_operator, _from, _id, _value, _data) */\n      pop\n      pop\n      pop\n      swap1\n      pop\n      swap1\n      dup2\n      add\n      swap1\n      0x1f\n      and\n      dup1\n      iszero\n      tag_179\n      jumpi\n      dup1\n      dup3\n      sub\n      dup1\n      mload\n      0x01\n      dup4\n      0x20\n      sub\n      0x0100\n      exp\n      sub\n      not\n      and\n      dup2\n      mstore\n      0x20\n      add\n      swap2\n      pop\n    tag_179:\n      pop\n      swap7\n      pop\n      pop\n      pop\n      pop\n      pop\n      pop\n      pop\n      0x20\n      mload(0x40)\n      dup1\n      dup4\n      sub\n      dup2\n      0x00\n      dup8\n      dup1\n      extcodesize\n      iszero\n        /* \"--CODEGEN--\":8:17   */\n      dup1\n        /* \"--CODEGEN--\":5:7   */\n      iszero\n      tag_180\n      jumpi\n        /* \"--CODEGEN--\":30:31   */\n      0x00\n        /* \"--CODEGEN--\":27:28   */\n      dup1\n        /* \"--CODEGEN--\":20:32   */\n      revert\n        /* \"--CODEGEN--\":5:7   */\n    tag_180:\n        /* \"contracts/ERC1155.sol\":10512:10593  ERC1155TokenReceiver(_to).onERC1155Received(_operator, _from, _id, _value, _data) */\n      pop\n      gas\n      call\n      iszero\n        /* \"--CODEGEN--\":8:17   */\n      dup1\n        /* \"--CODEGEN--\":5:7   */\n      iszero\n      tag_181\n      jumpi\n        /* \"--CODEGEN--\":45:61   */\n      returndatasize\n        /* \"--CODEGEN--\":42:43   */\n      0x00\n        /* \"--CODEGEN--\":39:40   */\n      dup1\n        /* \"--CODEGEN--\":24:62   */\n      returndatacopy\n        /* \"--CODEGEN--\":77:93   */\n      returndatasize\n        /* \"--CODEGEN--\":74:75   */\n      0x00\n        /* \"--CODEGEN--\":67:94   */\n      revert\n        /* \"--CODEGEN--\":5:7   */\n    tag_181:\n        /* \"contracts/ERC1155.sol\":10512:10593  ERC1155TokenReceiver(_to).onERC1155Received(_operator, _from, _id, _value, _data) */\n      pop\n      pop\n      pop\n      pop\n      mload(0x40)\n      returndatasize\n        /* \"--CODEGEN--\":13:15   */\n      0x20\n        /* \"--CODEGEN--\":8:11   */\n      dup2\n        /* \"--CODEGEN--\":5:16   */\n      lt\n        /* \"--CODEGEN--\":2:4   */\n      iszero\n      tag_182\n      jumpi\n        /* \"--CODEGEN--\":29:30   */\n      0x00\n        /* \"--CODEGEN--\":26:27   */\n      dup1\n        /* \"--CODEGEN--\":19:31   */\n      revert\n        /* \"--CODEGEN--\":2:4   */\n    tag_182:\n        /* \"contracts/ERC1155.sol\":10512:10593  ERC1155TokenReceiver(_to).onERC1155Received(_operator, _from, _id, _value, _data) */\n      dup2\n      add\n      swap1\n      dup1\n      dup1\n      mload\n      swap1\n      0x20\n      add\n      swap1\n      swap3\n      swap2\n      swap1\n      pop\n      pop\n      pop\n        /* \"contracts/ERC1155.sol\":10512:10613  ERC1155TokenReceiver(_to).onERC1155Received(_operator, _from, _id, _value, _data) == ERC1155_ACCEPTED */\n      not(0xffffffffffffffffffffffffffffffffffffffffffffffffffffffff)\n      and\n      eq\n        /* \"contracts/ERC1155.sol\":10504:10675  require(ERC1155TokenReceiver(_to).onERC1155Received(_operator, _from, _id, _value, _data) == ERC1155_ACCEPTED, \"contract returned an unknown value from onERC1155Received\") */\n      tag_183\n      jumpi\n      mload(0x40)\n      0x08c379a000000000000000000000000000000000000000000000000000000000\n      dup2\n      mstore\n      0x04\n      add\n      dup1\n      dup1\n      0x20\n      add\n      dup3\n      dup2\n      sub\n      dup3\n      mstore\n      0x39\n      dup2\n      mstore\n      0x20\n      add\n      dup1\n      data_ef98af68c848abc187fba39b58082936b9de327b8b5fd25aacd07d63c4d89e42\n      0x39\n      swap2\n      codecopy\n      0x40\n      add\n      swap2\n      pop\n      pop\n      mload(0x40)\n      dup1\n      swap2\n      sub\n      swap1\n      revert\n    tag_183:\n        /* \"contracts/ERC1155.sol\":9554:10682  function _doSafeTransferAcceptanceCheck(address _operator, address _from, address _to, uint256 _id, uint256 _value, bytes memory _data) internal {... */\n      pop\n      pop\n      pop\n      pop\n      pop\n      pop\n      jump\t// out\n    stop\n    data_849b4236b9cc0954dc0e729ab0ed3552779085d502d2b1dad4e899fd8211d4be 4e656564206f70657261746f7220617070726f76616c20666f7220337264207061727479207472616e73666572732e\n    data_907b1bc15e21fe4233c673581af2cf868cd5fa614b6015b432ff41fbc0222bad 636f6e74726163742072657475726e656420616e20756e6b6e6f776e2076616c75652066726f6d206f6e4552433131353542617463685265636569766564\n    data_ef98af68c848abc187fba39b58082936b9de327b8b5fd25aacd07d63c4d89e42 636f6e74726163742072657475726e656420616e20756e6b6e6f776e2076616c75652066726f6d206f6e455243313135355265636569766564\n\n    auxdata: 0xa265627a7a723158207de3b308f663cc60c7e71dbbff35994de499daa31a25aba5db06e706953e08c464736f6c63430005110032\n}\n",
				"bytecode": {
					"linkReferences": {},
					"object": "608060405234801561001057600080fd5b50612043806100206000396000f3fe608060405234801561001057600080fd5b50600436106100e95760003560e01c80637269a3271161008c578063adebf6f211610066578063adebf6f214610609578063e44591f01461064f578063e985e9c514610695578063f242432a14610711576100e9565b80637269a327146105315780639cca1c6414610577578063a22cb465146105b9576100e9565b80634e1273f4116100c85780634e1273f4146103185780635e81b9581461043b5780636352211e146104815780636f969c2d146104ef576100e9565b8062fdd58e146100ee57806301ffc9a7146101505780632eb2c2d6146101b5575b600080fd5b61013a6004803603604081101561010457600080fd5b81019080803573ffffffffffffffffffffffffffffffffffffffff169060200190929190803590602001909291905050506107de565b6040518082815260200191505060405180910390f35b61019b6004803603602081101561016657600080fd5b8101908080357bffffffffffffffffffffffffffffffffffffffffffffffffffffffff191690602001909291905050506108c1565b604051808215151515815260200191505060405180910390f35b610316600480360360a08110156101cb57600080fd5b81019080803573ffffffffffffffffffffffffffffffffffffffff169060200190929190803573ffffffffffffffffffffffffffffffffffffffff1690602001909291908035906020019064010000000081111561022857600080fd5b82018360208201111561023a57600080fd5b8035906020019184602083028401116401000000008311171561025c57600080fd5b90919293919293908035906020019064010000000081111561027d57600080fd5b82018360208201111561028f57600080fd5b803590602001918460208302840111640100000000831117156102b157600080fd5b9091929391929390803590602001906401000000008111156102d257600080fd5b8201836020820111156102e457600080fd5b8035906020019184600183028401116401000000008311171561030657600080fd5b9091929391929390505050610972565b005b6103e46004803603604081101561032e57600080fd5b810190808035906020019064010000000081111561034b57600080fd5b82018360208201111561035d57600080fd5b8035906020019184602083028401116401000000008311171561037f57600080fd5b9091929391929390803590602001906401000000008111156103a057600080fd5b8201836020820111156103b257600080fd5b803590602001918460208302840111640100000000831117156103d457600080fd5b9091929391929390505050611019565b6040518080602001828103825283818151815260200191508051906020019060200280838360005b8381101561042757808201518184015260208101905061040c565b505050509050019250505060405180910390f35b6104676004803603602081101561045157600080fd5b81019080803590602001909291905050506111fc565b604051808215151515815260200191505060405180910390f35b6104ad6004803603602081101561049757600080fd5b810190808035906020019092919050505061126b565b604051808273ffffffffffffffffffffffffffffffffffffffff1673ffffffffffffffffffffffffffffffffffffffff16815260200191505060405180910390f35b61051b6004803603602081101561050557600080fd5b81019080803590602001909291905050506112a8565b6040518082815260200191505060405180910390f35b61055d6004803603602081101561054757600080fd5b81019080803590602001909291905050506112ea565b604051808215151515815260200191505060405180910390f35b6105a36004803603602081101561058d57600080fd5b8101908080359060200190929190505050611358565b6040518082815260200191505060405180910390f35b610607600480360360408110156105cf57600080fd5b81019080803573ffffffffffffffffffffffffffffffffffffffff169060200190929190803515159060200190929190505050611396565b005b6106356004803603602081101561061f57600080fd5b8101908080359060200190929190505050611497565b604051808215151515815260200191505060405180910390f35b61067b6004803603602081101561066557600080fd5b81019080803590602001909291905050506114c5565b604051808215151515815260200191505060405180910390f35b6106f7600480360360408110156106ab57600080fd5b81019080803573ffffffffffffffffffffffffffffffffffffffff169060200190929190803573ffffffffffffffffffffffffffffffffffffffff1690602001909291905050506114f3565b604051808215151515815260200191505060405180910390f35b6107dc600480360360a081101561072757600080fd5b81019080803573ffffffffffffffffffffffffffffffffffffffff169060200190929190803573ffffffffffffffffffffffffffffffffffffffff16906020019092919080359060200190929190803590602001909291908035906020019064010000000081111561079857600080fd5b8201836020820111156107aa57600080fd5b803590602001918460018302840111640100000000831117156107cc57600080fd5b9091929391929390505050611587565b005b60006107e9826111fc565b15610868578273ffffffffffffffffffffffffffffffffffffffff166002600084815260200190815260200160002060009054906101000a900473ffffffffffffffffffffffffffffffffffffffff1673ffffffffffffffffffffffffffffffffffffffff161461085b57600061085e565b60015b60ff1690506108bb565b60008083815260200190815260200160002060008473ffffffffffffffffffffffffffffffffffffffff1673ffffffffffffffffffffffffffffffffffffffff1681526020019081526020016000205490505b92915050565b60006301ffc9a760e01b7bffffffffffffffffffffffffffffffffffffffffffffffffffffffff1916827bffffffffffffffffffffffffffffffffffffffffffffffffffffffff1916148061095a575063d9b67a2660e01b7bffffffffffffffffffffffffffffffffffffffffffffffffffffffff1916827bffffffffffffffffffffffffffffffffffffffffffffffffffffffff1916145b15610968576001905061096d565b600090505b919050565b600073ffffffffffffffffffffffffffffffffffffffff168773ffffffffffffffffffffffffffffffffffffffff161415610a15576040517f08c379a000000000000000000000000000000000000000000000000000000000815260040180806020018281038252601b8152602001807f63616e6e6f742073656e6420746f207a65726f2061646472657373000000000081525060200191505060405180910390fd5b838390508686905014610a90576040517f08c379a00000000000000000000000000000000000000000000000000000000081526004018080602001828103825260178152602001807f4172726179206c656e677468206d757374206d6174636800000000000000000081525060200191505060405180910390fd5b3373ffffffffffffffffffffffffffffffffffffffff168873ffffffffffffffffffffffffffffffffffffffff161480610b57575060011515600160008a73ffffffffffffffffffffffffffffffffffffffff1673ffffffffffffffffffffffffffffffffffffffff16815260200190815260200160002060003373ffffffffffffffffffffffffffffffffffffffff1673ffffffffffffffffffffffffffffffffffffffff16815260200190815260200160002060009054906101000a900460ff161515145b610bac576040517f08c379a000000000000000000000000000000000000000000000000000000000815260040180806020018281038252602f815260200180611f69602f913960400191505060405180910390fd5b60008090505b86869050811015610e33576000878783818110610bcb57fe5b9050602002013590506000868684818110610be257fe5b905060200201359050610bf4826114c5565b15610cbb578a73ffffffffffffffffffffffffffffffffffffffff166002600084815260200190815260200160002060009054906101000a900473ffffffffffffffffffffffffffffffffffffffff1673ffffffffffffffffffffffffffffffffffffffff1614610c6457600080fd5b896002600084815260200190815260200160002060006101000a81548173ffffffffffffffffffffffffffffffffffffffff021916908373ffffffffffffffffffffffffffffffffffffffff160217905550610e26565b610d1d8160008085815260200190815260200160002060008e73ffffffffffffffffffffffffffffffffffffffff1673ffffffffffffffffffffffffffffffffffffffff16815260200190815260200160002054611a8490919063ffffffff16565b60008084815260200190815260200160002060008d73ffffffffffffffffffffffffffffffffffffffff1673ffffffffffffffffffffffffffffffffffffffff16815260200190815260200160002081905550610dd260008084815260200190815260200160002060008c73ffffffffffffffffffffffffffffffffffffffff1673ffffffffffffffffffffffffffffffffffffffff1681526020019081526020016000205482611a9b90919063ffffffff16565b60008084815260200190815260200160002060008c73ffffffffffffffffffffffffffffffffffffffff1673ffffffffffffffffffffffffffffffffffffffff168152602001908152602001600020819055505b5050806001019050610bb2565b508673ffffffffffffffffffffffffffffffffffffffff168873ffffffffffffffffffffffffffffffffffffffff163373ffffffffffffffffffffffffffffffffffffffff167f4a39dc06d4c0dbc64b70af90fd698a233a518aa5d07e595d983b8c0526c8f7fb898989896040518080602001806020018381038352878782818152602001925060200280828437600081840152601f19601f8201169050808301925050508381038252858582818152602001925060200280828437600081840152601f19601f820116905080830192505050965050505050505060405180910390a4610f358773ffffffffffffffffffffffffffffffffffffffff16611ab5565b1561100f5761100e338989898980806020026020016040519081016040528093929190818152602001838360200280828437600081840152601f19601f82011690508083019250505050505050888880806020026020016040519081016040528093929190818152602001838360200280828437600081840152601f19601f8201169050808301925050505050505087878080601f016020809104026020016040519081016040528093929190818152602001838380828437600081840152601f19601f82011690508083019250505050505050611ac8565b5b5050505050505050565b606082829050858590501461102d57600080fd5b6060858590506040519080825280602002602001820160405280156110615781602001602082028038833980820191505090505b50905060008090505b868690508110156111ef57600085858381811061108357fe5b905060200201359050611095816111fc565b15611152578787838181106110a657fe5b9050602002013573ffffffffffffffffffffffffffffffffffffffff1673ffffffffffffffffffffffffffffffffffffffff166002600083815260200190815260200160002060009054906101000a900473ffffffffffffffffffffffffffffffffffffffff1673ffffffffffffffffffffffffffffffffffffffff161461112f576000611132565b60015b60ff1683838151811061114157fe5b6020026020010181815250506111e3565b600080828152602001908152602001600020600089898581811061117257fe5b9050602002013573ffffffffffffffffffffffffffffffffffffffff1673ffffffffffffffffffffffffffffffffffffffff1673ffffffffffffffffffffffffffffffffffffffff168152602001908152602001600020548383815181106111d657fe5b6020026020010181815250505b5080600101905061106a565b5080915050949350505050565b60007f8000000000000000000000000000000000000000000000000000000000000000808316148015611264575060007fffffffffffffffffffffffffffffffffffffffffffffffffffffffffffffffff6fffffffffffffffffffffffffffffffff16831614155b9050919050565b60006002600083815260200190815260200160002060009054906101000a900473ffffffffffffffffffffffffffffffffffffffff169050919050565b600060807fffffffffffffffffffffffffffffffffffffffffffffffffffffffffffffffff6fffffffffffffffffffffffffffffffff16901b82169050919050565b60007f8000000000000000000000000000000000000000000000000000000000000000808316148015611351575060007fffffffffffffffffffffffffffffffffffffffffffffffffffffffffffffffff6fffffffffffffffffffffffffffffffff168316145b9050919050565b60007fffffffffffffffffffffffffffffffffffffffffffffffffffffffffffffffff6fffffffffffffffffffffffffffffffff1682169050919050565b80600160003373ffffffffffffffffffffffffffffffffffffffff1673ffffffffffffffffffffffffffffffffffffffff16815260200190815260200160002060008473ffffffffffffffffffffffffffffffffffffffff1673ffffffffffffffffffffffffffffffffffffffff16815260200190815260200160002060006101000a81548160ff0219169083151502179055508173ffffffffffffffffffffffffffffffffffffffff163373ffffffffffffffffffffffffffffffffffffffff167f17307eab39ab6107e8899845ad3d59bd9653f200f220920489ca2b5937696c3183604051808215151515815260200191505060405180910390a35050565b6000807f80000000000000000000000000000000000000000000000000000000000000008316149050919050565b60007f8000000000000000000000000000000000000000000000000000000000000000808316149050919050565b6000600160008473ffffffffffffffffffffffffffffffffffffffff1673ffffffffffffffffffffffffffffffffffffffff16815260200190815260200160002060008373ffffffffffffffffffffffffffffffffffffffff1673ffffffffffffffffffffffffffffffffffffffff16815260200190815260200160002060009054906101000a900460ff16905092915050565b600073ffffffffffffffffffffffffffffffffffffffff168573ffffffffffffffffffffffffffffffffffffffff16141561162a576040517f08c379a000000000000000000000000000000000000000000000000000000000815260040180806020018281038252601b8152602001807f63616e6e6f742073656e6420746f207a65726f2061646472657373000000000081525060200191505060405180910390fd5b3373ffffffffffffffffffffffffffffffffffffffff168673ffffffffffffffffffffffffffffffffffffffff1614806116f1575060011515600160008873ffffffffffffffffffffffffffffffffffffffff1673ffffffffffffffffffffffffffffffffffffffff16815260200190815260200160002060003373ffffffffffffffffffffffffffffffffffffffff1673ffffffffffffffffffffffffffffffffffffffff16815260200190815260200160002060009054906101000a900460ff161515145b611746576040517f08c379a000000000000000000000000000000000000000000000000000000000815260040180806020018281038252602f815260200180611f69602f913960400191505060405180910390fd5b61174f846114c5565b15611816578573ffffffffffffffffffffffffffffffffffffffff166002600086815260200190815260200160002060009054906101000a900473ffffffffffffffffffffffffffffffffffffffff1673ffffffffffffffffffffffffffffffffffffffff16146117bf57600080fd5b846002600086815260200190815260200160002060006101000a81548173ffffffffffffffffffffffffffffffffffffffff021916908373ffffffffffffffffffffffffffffffffffffffff160217905550611981565b6118788360008087815260200190815260200160002060008973ffffffffffffffffffffffffffffffffffffffff1673ffffffffffffffffffffffffffffffffffffffff16815260200190815260200160002054611a8490919063ffffffff16565b60008086815260200190815260200160002060008873ffffffffffffffffffffffffffffffffffffffff1673ffffffffffffffffffffffffffffffffffffffff1681526020019081526020016000208190555061192d8360008087815260200190815260200160002060008873ffffffffffffffffffffffffffffffffffffffff1673ffffffffffffffffffffffffffffffffffffffff16815260200190815260200160002054611a9b90919063ffffffff16565b60008086815260200190815260200160002060008773ffffffffffffffffffffffffffffffffffffffff1673ffffffffffffffffffffffffffffffffffffffff168152602001908152602001600020819055505b8473ffffffffffffffffffffffffffffffffffffffff168673ffffffffffffffffffffffffffffffffffffffff163373ffffffffffffffffffffffffffffffffffffffff167fc3d58168c5ae7397731d063d5bbf3d657854427343f4c083240f7aacaa2d0f628787604051808381526020018281526020019250505060405180910390a4611a248573ffffffffffffffffffffffffffffffffffffffff16611ab5565b15611a7c57611a7b338787878787878080601f016020809104026020016040519081016040528093929190818152602001838380828437600081840152601f19601f82011690508083019250505050505050611d59565b5b505050505050565b600082821115611a9057fe5b818303905092915050565b6000818301905082811015611aac57fe5b80905092915050565b600080823b905060008111915050919050565b63bc197c8160e01b7bffffffffffffffffffffffffffffffffffffffffffffffffffffffff19168473ffffffffffffffffffffffffffffffffffffffff1663bc197c8188888787876040518663ffffffff1660e01b8152600401808673ffffffffffffffffffffffffffffffffffffffff1673ffffffffffffffffffffffffffffffffffffffff1681526020018573ffffffffffffffffffffffffffffffffffffffff1673ffffffffffffffffffffffffffffffffffffffff168152602001806020018060200180602001848103845287818151815260200191508051906020019060200280838360005b83811015611bce578082015181840152602081019050611bb3565b50505050905001848103835286818151815260200191508051906020019060200280838360005b83811015611c10578082015181840152602081019050611bf5565b50505050905001848103825285818151815260200191508051906020019080838360005b83811015611c4f578082015181840152602081019050611c34565b50505050905090810190601f168015611c7c5780820380516001836020036101000a031916815260200191505b5098505050505050505050602060405180830381600087803b158015611ca157600080fd5b505af1158015611cb5573d6000803e3d6000fd5b505050506040513d6020811015611ccb57600080fd5b81019080805190602001909291905050507bffffffffffffffffffffffffffffffffffffffffffffffffffffffff191614611d51576040517f08c379a000000000000000000000000000000000000000000000000000000000815260040180806020018281038252603e815260200180611f98603e913960400191505060405180910390fd5b505050505050565b63f23a6e6160e01b7bffffffffffffffffffffffffffffffffffffffffffffffffffffffff19168473ffffffffffffffffffffffffffffffffffffffff1663f23a6e6188888787876040518663ffffffff1660e01b8152600401808673ffffffffffffffffffffffffffffffffffffffff1673ffffffffffffffffffffffffffffffffffffffff1681526020018573ffffffffffffffffffffffffffffffffffffffff1673ffffffffffffffffffffffffffffffffffffffff16815260200184815260200183815260200180602001828103825283818151815260200191508051906020019080838360005b83811015611e60578082015181840152602081019050611e45565b50505050905090810190601f168015611e8d5780820380516001836020036101000a031916815260200191505b509650505050505050602060405180830381600087803b158015611eb057600080fd5b505af1158015611ec4573d6000803e3d6000fd5b505050506040513d6020811015611eda57600080fd5b81019080805190602001909291905050507bffffffffffffffffffffffffffffffffffffffffffffffffffffffff191614611f60576040517f08c379a0000000000000000000000000000000000000000000000000000000008152600401808060200182810382526039815260200180611fd66039913960400191505060405180910390fd5b50505050505056fe4e656564206f70657261746f7220617070726f76616c20666f7220337264207061727479207472616e73666572732e636f6e74726163742072657475726e656420616e20756e6b6e6f776e2076616c75652066726f6d206f6e4552433131353542617463685265636569766564636f6e74726163742072657475726e656420616e20756e6b6e6f776e2076616c75652066726f6d206f6e455243313135355265636569766564a265627a7a723158207de3b308f663cc60c7e71dbbff35994de499daa31a25aba5db06e706953e08c464736f6c63430005110032",
					"opcodes": "PUSH1 0x80 PUSH1 0x40 MSTORE CALLVALUE DUP1 ISZERO PUSH2 0x10 JUMPI PUSH1 0x0 DUP1 REVERT JUMPDEST POP PUSH2 0x2043 DUP1 PUSH2 0x20 PUSH1 0x0 CODECOPY PUSH1 0x0 RETURN INVALID PUSH1 0x80 PUSH1 0x40 MSTORE CALLVALUE DUP1 ISZERO PUSH2 0x10 JUMPI PUSH1 0x0 DUP1 REVERT JUMPDEST POP PUSH1 0x4 CALLDATASIZE LT PUSH2 0xE9 JUMPI PUSH1 0x0 CALLDATALOAD PUSH1 0xE0 SHR DUP1 PUSH4 0x7269A327 GT PUSH2 0x8C JUMPI DUP1 PUSH4 0xADEBF6F2 GT PUSH2 0x66 JUMPI DUP1 PUSH4 0xADEBF6F2 EQ PUSH2 0x609 JUMPI DUP1 PUSH4 0xE44591F0 EQ PUSH2 0x64F JUMPI DUP1 PUSH4 0xE985E9C5 EQ PUSH2 0x695 JUMPI DUP1 PUSH4 0xF242432A EQ PUSH2 0x711 JUMPI PUSH2 0xE9 JUMP JUMPDEST DUP1 PUSH4 0x7269A327 EQ PUSH2 0x531 JUMPI DUP1 PUSH4 0x9CCA1C64 EQ PUSH2 0x577 JUMPI DUP1 PUSH4 0xA22CB465 EQ PUSH2 0x5B9 JUMPI PUSH2 0xE9 JUMP JUMPDEST DUP1 PUSH4 0x4E1273F4 GT PUSH2 0xC8 JUMPI DUP1 PUSH4 0x4E1273F4 EQ PUSH2 0x318 JUMPI DUP1 PUSH4 0x5E81B958 EQ PUSH2 0x43B JUMPI DUP1 PUSH4 0x6352211E EQ PUSH2 0x481 JUMPI DUP1 PUSH4 0x6F969C2D EQ PUSH2 0x4EF JUMPI PUSH2 0xE9 JUMP JUMPDEST DUP1 PUSH3 0xFDD58E EQ PUSH2 0xEE JUMPI DUP1 PUSH4 0x1FFC9A7 EQ PUSH2 0x150 JUMPI DUP1 PUSH4 0x2EB2C2D6 EQ PUSH2 0x1B5 JUMPI JUMPDEST PUSH1 0x0 DUP1 REVERT JUMPDEST PUSH2 0x13A PUSH1 0x4 DUP1 CALLDATASIZE SUB PUSH1 0x40 DUP2 LT ISZERO PUSH2 0x104 JUMPI PUSH1 0x0 DUP1 REVERT JUMPDEST DUP2 ADD SWAP1 DUP1 DUP1 CALLDATALOAD PUSH20 0xFFFFFFFFFFFFFFFFFFFFFFFFFFFFFFFFFFFFFFFF AND SWAP1 PUSH1 0x20 ADD SWAP1 SWAP3 SWAP2 SWAP1 DUP1 CALLDATALOAD SWAP1 PUSH1 0x20 ADD SWAP1 SWAP3 SWAP2 SWAP1 POP POP POP PUSH2 0x7DE JUMP JUMPDEST PUSH1 0x40 MLOAD DUP1 DUP3 DUP2 MSTORE PUSH1 0x20 ADD SWAP2 POP POP PUSH1 0x40 MLOAD DUP1 SWAP2 SUB SWAP1 RETURN JUMPDEST PUSH2 0x19B PUSH1 0x4 DUP1 CALLDATASIZE SUB PUSH1 0x20 DUP2 LT ISZERO PUSH2 0x166 JUMPI PUSH1 0x0 DUP1 REVERT JUMPDEST DUP2 ADD SWAP1 DUP1 DUP1 CALLDATALOAD PUSH28 0xFFFFFFFFFFFFFFFFFFFFFFFFFFFFFFFFFFFFFFFFFFFFFFFFFFFFFFFF NOT AND SWAP1 PUSH1 0x20 ADD SWAP1 SWAP3 SWAP2 SWAP1 POP POP POP PUSH2 0x8C1 JUMP JUMPDEST PUSH1 0x40 MLOAD DUP1 DUP3 ISZERO ISZERO ISZERO ISZERO DUP2 MSTORE PUSH1 0x20 ADD SWAP2 POP POP PUSH1 0x40 MLOAD DUP1 SWAP2 SUB SWAP1 RETURN JUMPDEST PUSH2 0x316 PUSH1 0x4 DUP1 CALLDATASIZE SUB PUSH1 0xA0 DUP2 LT ISZERO PUSH2 0x1CB JUMPI PUSH1 0x0 DUP1 REVERT JUMPDEST DUP2 ADD SWAP1 DUP1 DUP1 CALLDATALOAD PUSH20 0xFFFFFFFFFFFFFFFFFFFFFFFFFFFFFFFFFFFFFFFF AND SWAP1 PUSH1 0x20 ADD SWAP1 SWAP3 SWAP2 SWAP1 DUP1 CALLDATALOAD PUSH20 0xFFFFFFFFFFFFFFFFFFFFFFFFFFFFFFFFFFFFFFFF AND SWAP1 PUSH1 0x20 ADD SWAP1 SWAP3 SWAP2 SWAP1 DUP1 CALLDATALOAD SWAP1 PUSH1 0x20 ADD SWAP1 PUSH5 0x100000000 DUP2 GT ISZERO PUSH2 0x228 JUMPI PUSH1 0x0 DUP1 REVERT JUMPDEST DUP3 ADD DUP4 PUSH1 0x20 DUP3 ADD GT ISZERO PUSH2 0x23A JUMPI PUSH1 0x0 DUP1 REVERT JUMPDEST DUP1 CALLDATALOAD SWAP1 PUSH1 0x20 ADD SWAP2 DUP5 PUSH1 0x20 DUP4 MUL DUP5 ADD GT PUSH5 0x100000000 DUP4 GT OR ISZERO PUSH2 0x25C JUMPI PUSH1 0x0 DUP1 REVERT JUMPDEST SWAP1 SWAP2 SWAP3 SWAP4 SWAP2 SWAP3 SWAP4 SWAP1 DUP1 CALLDATALOAD SWAP1 PUSH1 0x20 ADD SWAP1 PUSH5 0x100000000 DUP2 GT ISZERO PUSH2 0x27D JUMPI PUSH1 0x0 DUP1 REVERT JUMPDEST DUP3 ADD DUP4 PUSH1 0x20 DUP3 ADD GT ISZERO PUSH2 0x28F JUMPI PUSH1 0x0 DUP1 REVERT JUMPDEST DUP1 CALLDATALOAD SWAP1 PUSH1 0x20 ADD SWAP2 DUP5 PUSH1 0x20 DUP4 MUL DUP5 ADD GT PUSH5 0x100000000 DUP4 GT OR ISZERO PUSH2 0x2B1 JUMPI PUSH1 0x0 DUP1 REVERT JUMPDEST SWAP1 SWAP2 SWAP3 SWAP4 SWAP2 SWAP3 SWAP4 SWAP1 DUP1 CALLDATALOAD SWAP1 PUSH1 0x20 ADD SWAP1 PUSH5 0x100000000 DUP2 GT ISZERO PUSH2 0x2D2 JUMPI PUSH1 0x0 DUP1 REVERT JUMPDEST DUP3 ADD DUP4 PUSH1 0x20 DUP3 ADD GT ISZERO PUSH2 0x2E4 JUMPI PUSH1 0x0 DUP1 REVERT JUMPDEST DUP1 CALLDATALOAD SWAP1 PUSH1 0x20 ADD SWAP2 DUP5 PUSH1 0x1 DUP4 MUL DUP5 ADD GT PUSH5 0x100000000 DUP4 GT OR ISZERO PUSH2 0x306 JUMPI PUSH1 0x0 DUP1 REVERT JUMPDEST SWAP1 SWAP2 SWAP3 SWAP4 SWAP2 SWAP3 SWAP4 SWAP1 POP POP POP PUSH2 0x972 JUMP JUMPDEST STOP JUMPDEST PUSH2 0x3E4 PUSH1 0x4 DUP1 CALLDATASIZE SUB PUSH1 0x40 DUP2 LT ISZERO PUSH2 0x32E JUMPI PUSH1 0x0 DUP1 REVERT JUMPDEST DUP2 ADD SWAP1 DUP1 DUP1 CALLDATALOAD SWAP1 PUSH1 0x20 ADD SWAP1 PUSH5 0x100000000 DUP2 GT ISZERO PUSH2 0x34B JUMPI PUSH1 0x0 DUP1 REVERT JUMPDEST DUP3 ADD DUP4 PUSH1 0x20 DUP3 ADD GT ISZERO PUSH2 0x35D JUMPI PUSH1 0x0 DUP1 REVERT JUMPDEST DUP1 CALLDATALOAD SWAP1 PUSH1 0x20 ADD SWAP2 DUP5 PUSH1 0x20 DUP4 MUL DUP5 ADD GT PUSH5 0x100000000 DUP4 GT OR ISZERO PUSH2 0x37F JUMPI PUSH1 0x0 DUP1 REVERT JUMPDEST SWAP1 SWAP2 SWAP3 SWAP4 SWAP2 SWAP3 SWAP4 SWAP1 DUP1 CALLDATALOAD SWAP1 PUSH1 0x20 ADD SWAP1 PUSH5 0x100000000 DUP2 GT ISZERO PUSH2 0x3A0 JUMPI PUSH1 0x0 DUP1 REVERT JUMPDEST DUP3 ADD DUP4 PUSH1 0x20 DUP3 ADD GT ISZERO PUSH2 0x3B2 JUMPI PUSH1 0x0 DUP1 REVERT JUMPDEST DUP1 CALLDATALOAD SWAP1 PUSH1 0x20 ADD SWAP2 DUP5 PUSH1 0x20 DUP4 MUL DUP5 ADD GT PUSH5 0x100000000 DUP4 GT OR ISZERO PUSH2 0x3D4 JUMPI PUSH1 0x0 DUP1 REVERT JUMPDEST SWAP1 SWAP2 SWAP3 SWAP4 SWAP2 SWAP3 SWAP4 SWAP1 POP POP POP PUSH2 0x1019 JUMP JUMPDEST PUSH1 0x40 MLOAD DUP1 DUP1 PUSH1 0x20 ADD DUP3 DUP2 SUB DUP3 MSTORE DUP4 DUP2 DUP2 MLOAD DUP2 MSTORE PUSH1 0x20 ADD SWAP2 POP DUP1 MLOAD SWAP1 PUSH1 0x20 ADD SWAP1 PUSH1 0x20 MUL DUP1 DUP4 DUP4 PUSH1 0x0 JUMPDEST DUP4 DUP2 LT ISZERO PUSH2 0x427 JUMPI DUP1 DUP3 ADD MLOAD DUP2 DUP5 ADD MSTORE PUSH1 0x20 DUP2 ADD SWAP1 POP PUSH2 0x40C JUMP JUMPDEST POP POP POP POP SWAP1 POP ADD SWAP3 POP POP POP PUSH1 0x40 MLOAD DUP1 SWAP2 SUB SWAP1 RETURN JUMPDEST PUSH2 0x467 PUSH1 0x4 DUP1 CALLDATASIZE SUB PUSH1 0x20 DUP2 LT ISZERO PUSH2 0x451 JUMPI PUSH1 0x0 DUP1 REVERT JUMPDEST DUP2 ADD SWAP1 DUP1 DUP1 CALLDATALOAD SWAP1 PUSH1 0x20 ADD SWAP1 SWAP3 SWAP2 SWAP1 POP POP POP PUSH2 0x11FC JUMP JUMPDEST PUSH1 0x40 MLOAD DUP1 DUP3 ISZERO ISZERO ISZERO ISZERO DUP2 MSTORE PUSH1 0x20 ADD SWAP2 POP POP PUSH1 0x40 MLOAD DUP1 SWAP2 SUB SWAP1 RETURN JUMPDEST PUSH2 0x4AD PUSH1 0x4 DUP1 CALLDATASIZE SUB PUSH1 0x20 DUP2 LT ISZERO PUSH2 0x497 JUMPI PUSH1 0x0 DUP1 REVERT JUMPDEST DUP2 ADD SWAP1 DUP1 DUP1 CALLDATALOAD SWAP1 PUSH1 0x20 ADD SWAP1 SWAP3 SWAP2 SWAP1 POP POP POP PUSH2 0x126B JUMP JUMPDEST PUSH1 0x40 MLOAD DUP1 DUP3 PUSH20 0xFFFFFFFFFFFFFFFFFFFFFFFFFFFFFFFFFFFFFFFF AND PUSH20 0xFFFFFFFFFFFFFFFFFFFFFFFFFFFFFFFFFFFFFFFF AND DUP2 MSTORE PUSH1 0x20 ADD SWAP2 POP POP PUSH1 0x40 MLOAD DUP1 SWAP2 SUB SWAP1 RETURN JUMPDEST PUSH2 0x51B PUSH1 0x4 DUP1 CALLDATASIZE SUB PUSH1 0x20 DUP2 LT ISZERO PUSH2 0x505 JUMPI PUSH1 0x0 DUP1 REVERT JUMPDEST DUP2 ADD SWAP1 DUP1 DUP1 CALLDATALOAD SWAP1 PUSH1 0x20 ADD SWAP1 SWAP3 SWAP2 SWAP1 POP POP POP PUSH2 0x12A8 JUMP JUMPDEST PUSH1 0x40 MLOAD DUP1 DUP3 DUP2 MSTORE PUSH1 0x20 ADD SWAP2 POP POP PUSH1 0x40 MLOAD DUP1 SWAP2 SUB SWAP1 RETURN JUMPDEST PUSH2 0x55D PUSH1 0x4 DUP1 CALLDATASIZE SUB PUSH1 0x20 DUP2 LT ISZERO PUSH2 0x547 JUMPI PUSH1 0x0 DUP1 REVERT JUMPDEST DUP2 ADD SWAP1 DUP1 DUP1 CALLDATALOAD SWAP1 PUSH1 0x20 ADD SWAP1 SWAP3 SWAP2 SWAP1 POP POP POP PUSH2 0x12EA JUMP JUMPDEST PUSH1 0x40 MLOAD DUP1 DUP3 ISZERO ISZERO ISZERO ISZERO DUP2 MSTORE PUSH1 0x20 ADD SWAP2 POP POP PUSH1 0x40 MLOAD DUP1 SWAP2 SUB SWAP1 RETURN JUMPDEST PUSH2 0x5A3 PUSH1 0x4 DUP1 CALLDATASIZE SUB PUSH1 0x20 DUP2 LT ISZERO PUSH2 0x58D JUMPI PUSH1 0x0 DUP1 REVERT JUMPDEST DUP2 ADD SWAP1 DUP1 DUP1 CALLDATALOAD SWAP1 PUSH1 0x20 ADD SWAP1 SWAP3 SWAP2 SWAP1 POP POP POP PUSH2 0x1358 JUMP JUMPDEST PUSH1 0x40 MLOAD DUP1 DUP3 DUP2 MSTORE PUSH1 0x20 ADD SWAP2 POP POP PUSH1 0x40 MLOAD DUP1 SWAP2 SUB SWAP1 RETURN JUMPDEST PUSH2 0x607 PUSH1 0x4 DUP1 CALLDATASIZE SUB PUSH1 0x40 DUP2 LT ISZERO PUSH2 0x5CF JUMPI PUSH1 0x0 DUP1 REVERT JUMPDEST DUP2 ADD SWAP1 DUP1 DUP1 CALLDATALOAD PUSH20 0xFFFFFFFFFFFFFFFFFFFFFFFFFFFFFFFFFFFFFFFF AND SWAP1 PUSH1 0x20 ADD SWAP1 SWAP3 SWAP2 SWAP1 DUP1 CALLDATALOAD ISZERO ISZERO SWAP1 PUSH1 0x20 ADD SWAP1 SWAP3 SWAP2 SWAP1 POP POP POP PUSH2 0x1396 JUMP JUMPDEST STOP JUMPDEST PUSH2 0x635 PUSH1 0x4 DUP1 CALLDATASIZE SUB PUSH1 0x20 DUP2 LT ISZERO PUSH2 0x61F JUMPI PUSH1 0x0 DUP1 REVERT JUMPDEST DUP2 ADD SWAP1 DUP1 DUP1 CALLDATALOAD SWAP1 PUSH1 0x20 ADD SWAP1 SWAP3 SWAP2 SWAP1 POP POP POP PUSH2 0x1497 JUMP JUMPDEST PUSH1 0x40 MLOAD DUP1 DUP3 ISZERO ISZERO ISZERO ISZERO DUP2 MSTORE PUSH1 0x20 ADD SWAP2 POP POP PUSH1 0x40 MLOAD DUP1 SWAP2 SUB SWAP1 RETURN JUMPDEST PUSH2 0x67B PUSH1 0x4 DUP1 CALLDATASIZE SUB PUSH1 0x20 DUP2 LT ISZERO PUSH2 0x665 JUMPI PUSH1 0x0 DUP1 REVERT JUMPDEST DUP2 ADD SWAP1 DUP1 DUP1 CALLDATALOAD SWAP1 PUSH1 0x20 ADD SWAP1 SWAP3 SWAP2 SWAP1 POP POP POP PUSH2 0x14C5 JUMP JUMPDEST PUSH1 0x40 MLOAD DUP1 DUP3 ISZERO ISZERO ISZERO ISZERO DUP2 MSTORE PUSH1 0x20 ADD SWAP2 POP POP PUSH1 0x40 MLOAD DUP1 SWAP2 SUB SWAP1 RETURN JUMPDEST PUSH2 0x6F7 PUSH1 0x4 DUP1 CALLDATASIZE SUB PUSH1 0x40 DUP2 LT ISZERO PUSH2 0x6AB JUMPI PUSH1 0x0 DUP1 REVERT JUMPDEST DUP2 ADD SWAP1 DUP1 DUP1 CALLDATALOAD PUSH20 0xFFFFFFFFFFFFFFFFFFFFFFFFFFFFFFFFFFFFFFFF AND SWAP1 PUSH1 0x20 ADD SWAP1 SWAP3 SWAP2 SWAP1 DUP1 CALLDATALOAD PUSH20 0xFFFFFFFFFFFFFFFFFFFFFFFFFFFFFFFFFFFFFFFF AND SWAP1 PUSH1 0x20 ADD SWAP1 SWAP3 SWAP2 SWAP1 POP POP POP PUSH2 0x14F3 JUMP JUMPDEST PUSH1 0x40 MLOAD DUP1 DUP3 ISZERO ISZERO ISZERO ISZERO DUP2 MSTORE PUSH1 0x20 ADD SWAP2 POP POP PUSH1 0x40 MLOAD DUP1 SWAP2 SUB SWAP1 RETURN JUMPDEST PUSH2 0x7DC PUSH1 0x4 DUP1 CALLDATASIZE SUB PUSH1 0xA0 DUP2 LT ISZERO PUSH2 0x727 JUMPI PUSH1 0x0 DUP1 REVERT JUMPDEST DUP2 ADD SWAP1 DUP1 DUP1 CALLDATALOAD PUSH20 0xFFFFFFFFFFFFFFFFFFFFFFFFFFFFFFFFFFFFFFFF AND SWAP1 PUSH1 0x20 ADD SWAP1 SWAP3 SWAP2 SWAP1 DUP1 CALLDATALOAD PUSH20 0xFFFFFFFFFFFFFFFFFFFFFFFFFFFFFFFFFFFFFFFF AND SWAP1 PUSH1 0x20 ADD SWAP1 SWAP3 SWAP2 SWAP1 DUP1 CALLDATALOAD SWAP1 PUSH1 0x20 ADD SWAP1 SWAP3 SWAP2 SWAP1 DUP1 CALLDATALOAD SWAP1 PUSH1 0x20 ADD SWAP1 SWAP3 SWAP2 SWAP1 DUP1 CALLDATALOAD SWAP1 PUSH1 0x20 ADD SWAP1 PUSH5 0x100000000 DUP2 GT ISZERO PUSH2 0x798 JUMPI PUSH1 0x0 DUP1 REVERT JUMPDEST DUP3 ADD DUP4 PUSH1 0x20 DUP3 ADD GT ISZERO PUSH2 0x7AA JUMPI PUSH1 0x0 DUP1 REVERT JUMPDEST DUP1 CALLDATALOAD SWAP1 PUSH1 0x20 ADD SWAP2 DUP5 PUSH1 0x1 DUP4 MUL DUP5 ADD GT PUSH5 0x100000000 DUP4 GT OR ISZERO PUSH2 0x7CC JUMPI PUSH1 0x0 DUP1 REVERT JUMPDEST SWAP1 SWAP2 SWAP3 SWAP4 SWAP2 SWAP3 SWAP4 SWAP1 POP POP POP PUSH2 0x1587 JUMP JUMPDEST STOP JUMPDEST PUSH1 0x0 PUSH2 0x7E9 DUP3 PUSH2 0x11FC JUMP JUMPDEST ISZERO PUSH2 0x868 JUMPI DUP3 PUSH20 0xFFFFFFFFFFFFFFFFFFFFFFFFFFFFFFFFFFFFFFFF AND PUSH1 0x2 PUSH1 0x0 DUP5 DUP2 MSTORE PUSH1 0x20 ADD SWAP1 DUP2 MSTORE PUSH1 0x20 ADD PUSH1 0x0 KECCAK256 PUSH1 0x0 SWAP1 SLOAD SWAP1 PUSH2 0x100 EXP SWAP1 DIV PUSH20 0xFFFFFFFFFFFFFFFFFFFFFFFFFFFFFFFFFFFFFFFF AND PUSH20 0xFFFFFFFFFFFFFFFFFFFFFFFFFFFFFFFFFFFFFFFF AND EQ PUSH2 0x85B JUMPI PUSH1 0x0 PUSH2 0x85E JUMP JUMPDEST PUSH1 0x1 JUMPDEST PUSH1 0xFF AND SWAP1 POP PUSH2 0x8BB JUMP JUMPDEST PUSH1 0x0 DUP1 DUP4 DUP2 MSTORE PUSH1 0x20 ADD SWAP1 DUP2 MSTORE PUSH1 0x20 ADD PUSH1 0x0 KECCAK256 PUSH1 0x0 DUP5 PUSH20 0xFFFFFFFFFFFFFFFFFFFFFFFFFFFFFFFFFFFFFFFF AND PUSH20 0xFFFFFFFFFFFFFFFFFFFFFFFFFFFFFFFFFFFFFFFF AND DUP2 MSTORE PUSH1 0x20 ADD SWAP1 DUP2 MSTORE PUSH1 0x20 ADD PUSH1 0x0 KECCAK256 SLOAD SWAP1 POP JUMPDEST SWAP3 SWAP2 POP POP JUMP JUMPDEST PUSH1 0x0 PUSH4 0x1FFC9A7 PUSH1 0xE0 SHL PUSH28 0xFFFFFFFFFFFFFFFFFFFFFFFFFFFFFFFFFFFFFFFFFFFFFFFFFFFFFFFF NOT AND DUP3 PUSH28 0xFFFFFFFFFFFFFFFFFFFFFFFFFFFFFFFFFFFFFFFFFFFFFFFFFFFFFFFF NOT AND EQ DUP1 PUSH2 0x95A JUMPI POP PUSH4 0xD9B67A26 PUSH1 0xE0 SHL PUSH28 0xFFFFFFFFFFFFFFFFFFFFFFFFFFFFFFFFFFFFFFFFFFFFFFFFFFFFFFFF NOT AND DUP3 PUSH28 0xFFFFFFFFFFFFFFFFFFFFFFFFFFFFFFFFFFFFFFFFFFFFFFFFFFFFFFFF NOT AND EQ JUMPDEST ISZERO PUSH2 0x968 JUMPI PUSH1 0x1 SWAP1 POP PUSH2 0x96D JUMP JUMPDEST PUSH1 0x0 SWAP1 POP JUMPDEST SWAP2 SWAP1 POP JUMP JUMPDEST PUSH1 0x0 PUSH20 0xFFFFFFFFFFFFFFFFFFFFFFFFFFFFFFFFFFFFFFFF AND DUP8 PUSH20 0xFFFFFFFFFFFFFFFFFFFFFFFFFFFFFFFFFFFFFFFF AND EQ ISZERO PUSH2 0xA15 JUMPI PUSH1 0x40 MLOAD PUSH32 0x8C379A000000000000000000000000000000000000000000000000000000000 DUP2 MSTORE PUSH1 0x4 ADD DUP1 DUP1 PUSH1 0x20 ADD DUP3 DUP2 SUB DUP3 MSTORE PUSH1 0x1B DUP2 MSTORE PUSH1 0x20 ADD DUP1 PUSH32 0x63616E6E6F742073656E6420746F207A65726F20616464726573730000000000 DUP2 MSTORE POP PUSH1 0x20 ADD SWAP2 POP POP PUSH1 0x40 MLOAD DUP1 SWAP2 SUB SWAP1 REVERT JUMPDEST DUP4 DUP4 SWAP1 POP DUP7 DUP7 SWAP1 POP EQ PUSH2 0xA90 JUMPI PUSH1 0x40 MLOAD PUSH32 0x8C379A000000000000000000000000000000000000000000000000000000000 DUP2 MSTORE PUSH1 0x4 ADD DUP1 DUP1 PUSH1 0x20 ADD DUP3 DUP2 SUB DUP3 MSTORE PUSH1 0x17 DUP2 MSTORE PUSH1 0x20 ADD DUP1 PUSH32 0x4172726179206C656E677468206D757374206D61746368000000000000000000 DUP2 MSTORE POP PUSH1 0x20 ADD SWAP2 POP POP PUSH1 0x40 MLOAD DUP1 SWAP2 SUB SWAP1 REVERT JUMPDEST CALLER PUSH20 0xFFFFFFFFFFFFFFFFFFFFFFFFFFFFFFFFFFFFFFFF AND DUP9 PUSH20 0xFFFFFFFFFFFFFFFFFFFFFFFFFFFFFFFFFFFFFFFF AND EQ DUP1 PUSH2 0xB57 JUMPI POP PUSH1 0x1 ISZERO ISZERO PUSH1 0x1 PUSH1 0x0 DUP11 PUSH20 0xFFFFFFFFFFFFFFFFFFFFFFFFFFFFFFFFFFFFFFFF AND PUSH20 0xFFFFFFFFFFFFFFFFFFFFFFFFFFFFFFFFFFFFFFFF AND DUP2 MSTORE PUSH1 0x20 ADD SWAP1 DUP2 MSTORE PUSH1 0x20 ADD PUSH1 0x0 KECCAK256 PUSH1 0x0 CALLER PUSH20 0xFFFFFFFFFFFFFFFFFFFFFFFFFFFFFFFFFFFFFFFF AND PUSH20 0xFFFFFFFFFFFFFFFFFFFFFFFFFFFFFFFFFFFFFFFF AND DUP2 MSTORE PUSH1 0x20 ADD SWAP1 DUP2 MSTORE PUSH1 0x20 ADD PUSH1 0x0 KECCAK256 PUSH1 0x0 SWAP1 SLOAD SWAP1 PUSH2 0x100 EXP SWAP1 DIV PUSH1 0xFF AND ISZERO ISZERO EQ JUMPDEST PUSH2 0xBAC JUMPI PUSH1 0x40 MLOAD PUSH32 0x8C379A000000000000000000000000000000000000000000000000000000000 DUP2 MSTORE PUSH1 0x4 ADD DUP1 DUP1 PUSH1 0x20 ADD DUP3 DUP2 SUB DUP3 MSTORE PUSH1 0x2F DUP2 MSTORE PUSH1 0x20 ADD DUP1 PUSH2 0x1F69 PUSH1 0x2F SWAP2 CODECOPY PUSH1 0x40 ADD SWAP2 POP POP PUSH1 0x40 MLOAD DUP1 SWAP2 SUB SWAP1 REVERT JUMPDEST PUSH1 0x0 DUP1 SWAP1 POP JUMPDEST DUP7 DUP7 SWAP1 POP DUP2 LT ISZERO PUSH2 0xE33 JUMPI PUSH1 0x0 DUP8 DUP8 DUP4 DUP2 DUP2 LT PUSH2 0xBCB JUMPI INVALID JUMPDEST SWAP1 POP PUSH1 0x20 MUL ADD CALLDATALOAD SWAP1 POP PUSH1 0x0 DUP7 DUP7 DUP5 DUP2 DUP2 LT PUSH2 0xBE2 JUMPI INVALID JUMPDEST SWAP1 POP PUSH1 0x20 MUL ADD CALLDATALOAD SWAP1 POP PUSH2 0xBF4 DUP3 PUSH2 0x14C5 JUMP JUMPDEST ISZERO PUSH2 0xCBB JUMPI DUP11 PUSH20 0xFFFFFFFFFFFFFFFFFFFFFFFFFFFFFFFFFFFFFFFF AND PUSH1 0x2 PUSH1 0x0 DUP5 DUP2 MSTORE PUSH1 0x20 ADD SWAP1 DUP2 MSTORE PUSH1 0x20 ADD PUSH1 0x0 KECCAK256 PUSH1 0x0 SWAP1 SLOAD SWAP1 PUSH2 0x100 EXP SWAP1 DIV PUSH20 0xFFFFFFFFFFFFFFFFFFFFFFFFFFFFFFFFFFFFFFFF AND PUSH20 0xFFFFFFFFFFFFFFFFFFFFFFFFFFFFFFFFFFFFFFFF AND EQ PUSH2 0xC64 JUMPI PUSH1 0x0 DUP1 REVERT JUMPDEST DUP10 PUSH1 0x2 PUSH1 0x0 DUP5 DUP2 MSTORE PUSH1 0x20 ADD SWAP1 DUP2 MSTORE PUSH1 0x20 ADD PUSH1 0x0 KECCAK256 PUSH1 0x0 PUSH2 0x100 EXP DUP2 SLOAD DUP2 PUSH20 0xFFFFFFFFFFFFFFFFFFFFFFFFFFFFFFFFFFFFFFFF MUL NOT AND SWAP1 DUP4 PUSH20 0xFFFFFFFFFFFFFFFFFFFFFFFFFFFFFFFFFFFFFFFF AND MUL OR SWAP1 SSTORE POP PUSH2 0xE26 JUMP JUMPDEST PUSH2 0xD1D DUP2 PUSH1 0x0 DUP1 DUP6 DUP2 MSTORE PUSH1 0x20 ADD SWAP1 DUP2 MSTORE PUSH1 0x20 ADD PUSH1 0x0 KECCAK256 PUSH1 0x0 DUP15 PUSH20 0xFFFFFFFFFFFFFFFFFFFFFFFFFFFFFFFFFFFFFFFF AND PUSH20 0xFFFFFFFFFFFFFFFFFFFFFFFFFFFFFFFFFFFFFFFF AND DUP2 MSTORE PUSH1 0x20 ADD SWAP1 DUP2 MSTORE PUSH1 0x20 ADD PUSH1 0x0 KECCAK256 SLOAD PUSH2 0x1A84 SWAP1 SWAP2 SWAP1 PUSH4 0xFFFFFFFF AND JUMP JUMPDEST PUSH1 0x0 DUP1 DUP5 DUP2 MSTORE PUSH1 0x20 ADD SWAP1 DUP2 MSTORE PUSH1 0x20 ADD PUSH1 0x0 KECCAK256 PUSH1 0x0 DUP14 PUSH20 0xFFFFFFFFFFFFFFFFFFFFFFFFFFFFFFFFFFFFFFFF AND PUSH20 0xFFFFFFFFFFFFFFFFFFFFFFFFFFFFFFFFFFFFFFFF AND DUP2 MSTORE PUSH1 0x20 ADD SWAP1 DUP2 MSTORE PUSH1 0x20 ADD PUSH1 0x0 KECCAK256 DUP2 SWAP1 SSTORE POP PUSH2 0xDD2 PUSH1 0x0 DUP1 DUP5 DUP2 MSTORE PUSH1 0x20 ADD SWAP1 DUP2 MSTORE PUSH1 0x20 ADD PUSH1 0x0 KECCAK256 PUSH1 0x0 DUP13 PUSH20 0xFFFFFFFFFFFFFFFFFFFFFFFFFFFFFFFFFFFFFFFF AND PUSH20 0xFFFFFFFFFFFFFFFFFFFFFFFFFFFFFFFFFFFFFFFF AND DUP2 MSTORE PUSH1 0x20 ADD SWAP1 DUP2 MSTORE PUSH1 0x20 ADD PUSH1 0x0 KECCAK256 SLOAD DUP3 PUSH2 0x1A9B SWAP1 SWAP2 SWAP1 PUSH4 0xFFFFFFFF AND JUMP JUMPDEST PUSH1 0x0 DUP1 DUP5 DUP2 MSTORE PUSH1 0x20 ADD SWAP1 DUP2 MSTORE PUSH1 0x20 ADD PUSH1 0x0 KECCAK256 PUSH1 0x0 DUP13 PUSH20 0xFFFFFFFFFFFFFFFFFFFFFFFFFFFFFFFFFFFFFFFF AND PUSH20 0xFFFFFFFFFFFFFFFFFFFFFFFFFFFFFFFFFFFFFFFF AND DUP2 MSTORE PUSH1 0x20 ADD SWAP1 DUP2 MSTORE PUSH1 0x20 ADD PUSH1 0x0 KECCAK256 DUP2 SWAP1 SSTORE POP JUMPDEST POP POP DUP1 PUSH1 0x1 ADD SWAP1 POP PUSH2 0xBB2 JUMP JUMPDEST POP DUP7 PUSH20 0xFFFFFFFFFFFFFFFFFFFFFFFFFFFFFFFFFFFFFFFF AND DUP9 PUSH20 0xFFFFFFFFFFFFFFFFFFFFFFFFFFFFFFFFFFFFFFFF AND CALLER PUSH20 0xFFFFFFFFFFFFFFFFFFFFFFFFFFFFFFFFFFFFFFFF AND PUSH32 0x4A39DC06D4C0DBC64B70AF90FD698A233A518AA5D07E595D983B8C0526C8F7FB DUP10 DUP10 DUP10 DUP10 PUSH1 0x40 MLOAD DUP1 DUP1 PUSH1 0x20 ADD DUP1 PUSH1 0x20 ADD DUP4 DUP2 SUB DUP4 MSTORE DUP8 DUP8 DUP3 DUP2 DUP2 MSTORE PUSH1 0x20 ADD SWAP3 POP PUSH1 0x20 MUL DUP1 DUP3 DUP5 CALLDATACOPY PUSH1 0x0 DUP2 DUP5 ADD MSTORE PUSH1 0x1F NOT PUSH1 0x1F DUP3 ADD AND SWAP1 POP DUP1 DUP4 ADD SWAP3 POP POP POP DUP4 DUP2 SUB DUP3 MSTORE DUP6 DUP6 DUP3 DUP2 DUP2 MSTORE PUSH1 0x20 ADD SWAP3 POP PUSH1 0x20 MUL DUP1 DUP3 DUP5 CALLDATACOPY PUSH1 0x0 DUP2 DUP5 ADD MSTORE PUSH1 0x1F NOT PUSH1 0x1F DUP3 ADD AND SWAP1 POP DUP1 DUP4 ADD SWAP3 POP POP POP SWAP7 POP POP POP POP POP POP POP PUSH1 0x40 MLOAD DUP1 SWAP2 SUB SWAP1 LOG4 PUSH2 0xF35 DUP8 PUSH20 0xFFFFFFFFFFFFFFFFFFFFFFFFFFFFFFFFFFFFFFFF AND PUSH2 0x1AB5 JUMP JUMPDEST ISZERO PUSH2 0x100F JUMPI PUSH2 0x100E CALLER DUP10 DUP10 DUP10 DUP10 DUP1 DUP1 PUSH1 0x20 MUL PUSH1 0x20 ADD PUSH1 0x40 MLOAD SWAP1 DUP2 ADD PUSH1 0x40 MSTORE DUP1 SWAP4 SWAP3 SWAP2 SWAP1 DUP2 DUP2 MSTORE PUSH1 0x20 ADD DUP4 DUP4 PUSH1 0x20 MUL DUP1 DUP3 DUP5 CALLDATACOPY PUSH1 0x0 DUP2 DUP5 ADD MSTORE PUSH1 0x1F NOT PUSH1 0x1F DUP3 ADD AND SWAP1 POP DUP1 DUP4 ADD SWAP3 POP POP POP POP POP POP POP DUP9 DUP9 DUP1 DUP1 PUSH1 0x20 MUL PUSH1 0x20 ADD PUSH1 0x40 MLOAD SWAP1 DUP2 ADD PUSH1 0x40 MSTORE DUP1 SWAP4 SWAP3 SWAP2 SWAP1 DUP2 DUP2 MSTORE PUSH1 0x20 ADD DUP4 DUP4 PUSH1 0x20 MUL DUP1 DUP3 DUP5 CALLDATACOPY PUSH1 0x0 DUP2 DUP5 ADD MSTORE PUSH1 0x1F NOT PUSH1 0x1F DUP3 ADD AND SWAP1 POP DUP1 DUP4 ADD SWAP3 POP POP POP POP POP POP POP DUP8 DUP8 DUP1 DUP1 PUSH1 0x1F ADD PUSH1 0x20 DUP1 SWAP2 DIV MUL PUSH1 0x20 ADD PUSH1 0x40 MLOAD SWAP1 DUP2 ADD PUSH1 0x40 MSTORE DUP1 SWAP4 SWAP3 SWAP2 SWAP1 DUP2 DUP2 MSTORE PUSH1 0x20 ADD DUP4 DUP4 DUP1 DUP3 DUP5 CALLDATACOPY PUSH1 0x0 DUP2 DUP5 ADD MSTORE PUSH1 0x1F NOT PUSH1 0x1F DUP3 ADD AND SWAP1 POP DUP1 DUP4 ADD SWAP3 POP POP POP POP POP POP POP PUSH2 0x1AC8 JUMP JUMPDEST JUMPDEST POP POP POP POP POP POP POP POP JUMP JUMPDEST PUSH1 0x60 DUP3 DUP3 SWAP1 POP DUP6 DUP6 SWAP1 POP EQ PUSH2 0x102D JUMPI PUSH1 0x0 DUP1 REVERT JUMPDEST PUSH1 0x60 DUP6 DUP6 SWAP1 POP PUSH1 0x40 MLOAD SWAP1 DUP1 DUP3 MSTORE DUP1 PUSH1 0x20 MUL PUSH1 0x20 ADD DUP3 ADD PUSH1 0x40 MSTORE DUP1 ISZERO PUSH2 0x1061 JUMPI DUP2 PUSH1 0x20 ADD PUSH1 0x20 DUP3 MUL DUP1 CODESIZE DUP4 CODECOPY DUP1 DUP3 ADD SWAP2 POP POP SWAP1 POP JUMPDEST POP SWAP1 POP PUSH1 0x0 DUP1 SWAP1 POP JUMPDEST DUP7 DUP7 SWAP1 POP DUP2 LT ISZERO PUSH2 0x11EF JUMPI PUSH1 0x0 DUP6 DUP6 DUP4 DUP2 DUP2 LT PUSH2 0x1083 JUMPI INVALID JUMPDEST SWAP1 POP PUSH1 0x20 MUL ADD CALLDATALOAD SWAP1 POP PUSH2 0x1095 DUP2 PUSH2 0x11FC JUMP JUMPDEST ISZERO PUSH2 0x1152 JUMPI DUP8 DUP8 DUP4 DUP2 DUP2 LT PUSH2 0x10A6 JUMPI INVALID JUMPDEST SWAP1 POP PUSH1 0x20 MUL ADD CALLDATALOAD PUSH20 0xFFFFFFFFFFFFFFFFFFFFFFFFFFFFFFFFFFFFFFFF AND PUSH20 0xFFFFFFFFFFFFFFFFFFFFFFFFFFFFFFFFFFFFFFFF AND PUSH1 0x2 PUSH1 0x0 DUP4 DUP2 MSTORE PUSH1 0x20 ADD SWAP1 DUP2 MSTORE PUSH1 0x20 ADD PUSH1 0x0 KECCAK256 PUSH1 0x0 SWAP1 SLOAD SWAP1 PUSH2 0x100 EXP SWAP1 DIV PUSH20 0xFFFFFFFFFFFFFFFFFFFFFFFFFFFFFFFFFFFFFFFF AND PUSH20 0xFFFFFFFFFFFFFFFFFFFFFFFFFFFFFFFFFFFFFFFF AND EQ PUSH2 0x112F JUMPI PUSH1 0x0 PUSH2 0x1132 JUMP JUMPDEST PUSH1 0x1 JUMPDEST PUSH1 0xFF AND DUP4 DUP4 DUP2 MLOAD DUP2 LT PUSH2 0x1141 JUMPI INVALID JUMPDEST PUSH1 0x20 MUL PUSH1 0x20 ADD ADD DUP2 DUP2 MSTORE POP POP PUSH2 0x11E3 JUMP JUMPDEST PUSH1 0x0 DUP1 DUP3 DUP2 MSTORE PUSH1 0x20 ADD SWAP1 DUP2 MSTORE PUSH1 0x20 ADD PUSH1 0x0 KECCAK256 PUSH1 0x0 DUP10 DUP10 DUP6 DUP2 DUP2 LT PUSH2 0x1172 JUMPI INVALID JUMPDEST SWAP1 POP PUSH1 0x20 MUL ADD CALLDATALOAD PUSH20 0xFFFFFFFFFFFFFFFFFFFFFFFFFFFFFFFFFFFFFFFF AND PUSH20 0xFFFFFFFFFFFFFFFFFFFFFFFFFFFFFFFFFFFFFFFF AND PUSH20 0xFFFFFFFFFFFFFFFFFFFFFFFFFFFFFFFFFFFFFFFF AND DUP2 MSTORE PUSH1 0x20 ADD SWAP1 DUP2 MSTORE PUSH1 0x20 ADD PUSH1 0x0 KECCAK256 SLOAD DUP4 DUP4 DUP2 MLOAD DUP2 LT PUSH2 0x11D6 JUMPI INVALID JUMPDEST PUSH1 0x20 MUL PUSH1 0x20 ADD ADD DUP2 DUP2 MSTORE POP POP JUMPDEST POP DUP1 PUSH1 0x1 ADD SWAP1 POP PUSH2 0x106A JUMP JUMPDEST POP DUP1 SWAP2 POP POP SWAP5 SWAP4 POP POP POP POP JUMP JUMPDEST PUSH1 0x0 PUSH32 0x8000000000000000000000000000000000000000000000000000000000000000 DUP1 DUP4 AND EQ DUP1 ISZERO PUSH2 0x1264 JUMPI POP PUSH1 0x0 PUSH32 0xFFFFFFFFFFFFFFFFFFFFFFFFFFFFFFFFFFFFFFFFFFFFFFFFFFFFFFFFFFFFFFFF PUSH16 0xFFFFFFFFFFFFFFFFFFFFFFFFFFFFFFFF AND DUP4 AND EQ ISZERO JUMPDEST SWAP1 POP SWAP2 SWAP1 POP JUMP JUMPDEST PUSH1 0x0 PUSH1 0x2 PUSH1 0x0 DUP4 DUP2 MSTORE PUSH1 0x20 ADD SWAP1 DUP2 MSTORE PUSH1 0x20 ADD PUSH1 0x0 KECCAK256 PUSH1 0x0 SWAP1 SLOAD SWAP1 PUSH2 0x100 EXP SWAP1 DIV PUSH20 0xFFFFFFFFFFFFFFFFFFFFFFFFFFFFFFFFFFFFFFFF AND SWAP1 POP SWAP2 SWAP1 POP JUMP JUMPDEST PUSH1 0x0 PUSH1 0x80 PUSH32 0xFFFFFFFFFFFFFFFFFFFFFFFFFFFFFFFFFFFFFFFFFFFFFFFFFFFFFFFFFFFFFFFF PUSH16 0xFFFFFFFFFFFFFFFFFFFFFFFFFFFFFFFF AND SWAP1 SHL DUP3 AND SWAP1 POP SWAP2 SWAP1 POP JUMP JUMPDEST PUSH1 0x0 PUSH32 0x8000000000000000000000000000000000000000000000000000000000000000 DUP1 DUP4 AND EQ DUP1 ISZERO PUSH2 0x1351 JUMPI POP PUSH1 0x0 PUSH32 0xFFFFFFFFFFFFFFFFFFFFFFFFFFFFFFFFFFFFFFFFFFFFFFFFFFFFFFFFFFFFFFFF PUSH16 0xFFFFFFFFFFFFFFFFFFFFFFFFFFFFFFFF AND DUP4 AND EQ JUMPDEST SWAP1 POP SWAP2 SWAP1 POP JUMP JUMPDEST PUSH1 0x0 PUSH32 0xFFFFFFFFFFFFFFFFFFFFFFFFFFFFFFFFFFFFFFFFFFFFFFFFFFFFFFFFFFFFFFFF PUSH16 0xFFFFFFFFFFFFFFFFFFFFFFFFFFFFFFFF AND DUP3 AND SWAP1 POP SWAP2 SWAP1 POP JUMP JUMPDEST DUP1 PUSH1 0x1 PUSH1 0x0 CALLER PUSH20 0xFFFFFFFFFFFFFFFFFFFFFFFFFFFFFFFFFFFFFFFF AND PUSH20 0xFFFFFFFFFFFFFFFFFFFFFFFFFFFFFFFFFFFFFFFF AND DUP2 MSTORE PUSH1 0x20 ADD SWAP1 DUP2 MSTORE PUSH1 0x20 ADD PUSH1 0x0 KECCAK256 PUSH1 0x0 DUP5 PUSH20 0xFFFFFFFFFFFFFFFFFFFFFFFFFFFFFFFFFFFFFFFF AND PUSH20 0xFFFFFFFFFFFFFFFFFFFFFFFFFFFFFFFFFFFFFFFF AND DUP2 MSTORE PUSH1 0x20 ADD SWAP1 DUP2 MSTORE PUSH1 0x20 ADD PUSH1 0x0 KECCAK256 PUSH1 0x0 PUSH2 0x100 EXP DUP2 SLOAD DUP2 PUSH1 0xFF MUL NOT AND SWAP1 DUP4 ISZERO ISZERO MUL OR SWAP1 SSTORE POP DUP2 PUSH20 0xFFFFFFFFFFFFFFFFFFFFFFFFFFFFFFFFFFFFFFFF AND CALLER PUSH20 0xFFFFFFFFFFFFFFFFFFFFFFFFFFFFFFFFFFFFFFFF AND PUSH32 0x17307EAB39AB6107E8899845AD3D59BD9653F200F220920489CA2B5937696C31 DUP4 PUSH1 0x40 MLOAD DUP1 DUP3 ISZERO ISZERO ISZERO ISZERO DUP2 MSTORE PUSH1 0x20 ADD SWAP2 POP POP PUSH1 0x40 MLOAD DUP1 SWAP2 SUB SWAP1 LOG3 POP POP JUMP JUMPDEST PUSH1 0x0 DUP1 PUSH32 0x8000000000000000000000000000000000000000000000000000000000000000 DUP4 AND EQ SWAP1 POP SWAP2 SWAP1 POP JUMP JUMPDEST PUSH1 0x0 PUSH32 0x8000000000000000000000000000000000000000000000000000000000000000 DUP1 DUP4 AND EQ SWAP1 POP SWAP2 SWAP1 POP JUMP JUMPDEST PUSH1 0x0 PUSH1 0x1 PUSH1 0x0 DUP5 PUSH20 0xFFFFFFFFFFFFFFFFFFFFFFFFFFFFFFFFFFFFFFFF AND PUSH20 0xFFFFFFFFFFFFFFFFFFFFFFFFFFFFFFFFFFFFFFFF AND DUP2 MSTORE PUSH1 0x20 ADD SWAP1 DUP2 MSTORE PUSH1 0x20 ADD PUSH1 0x0 KECCAK256 PUSH1 0x0 DUP4 PUSH20 0xFFFFFFFFFFFFFFFFFFFFFFFFFFFFFFFFFFFFFFFF AND PUSH20 0xFFFFFFFFFFFFFFFFFFFFFFFFFFFFFFFFFFFFFFFF AND DUP2 MSTORE PUSH1 0x20 ADD SWAP1 DUP2 MSTORE PUSH1 0x20 ADD PUSH1 0x0 KECCAK256 PUSH1 0x0 SWAP1 SLOAD SWAP1 PUSH2 0x100 EXP SWAP1 DIV PUSH1 0xFF AND SWAP1 POP SWAP3 SWAP2 POP POP JUMP JUMPDEST PUSH1 0x0 PUSH20 0xFFFFFFFFFFFFFFFFFFFFFFFFFFFFFFFFFFFFFFFF AND DUP6 PUSH20 0xFFFFFFFFFFFFFFFFFFFFFFFFFFFFFFFFFFFFFFFF AND EQ ISZERO PUSH2 0x162A JUMPI PUSH1 0x40 MLOAD PUSH32 0x8C379A000000000000000000000000000000000000000000000000000000000 DUP2 MSTORE PUSH1 0x4 ADD DUP1 DUP1 PUSH1 0x20 ADD DUP3 DUP2 SUB DUP3 MSTORE PUSH1 0x1B DUP2 MSTORE PUSH1 0x20 ADD DUP1 PUSH32 0x63616E6E6F742073656E6420746F207A65726F20616464726573730000000000 DUP2 MSTORE POP PUSH1 0x20 ADD SWAP2 POP POP PUSH1 0x40 MLOAD DUP1 SWAP2 SUB SWAP1 REVERT JUMPDEST CALLER PUSH20 0xFFFFFFFFFFFFFFFFFFFFFFFFFFFFFFFFFFFFFFFF AND DUP7 PUSH20 0xFFFFFFFFFFFFFFFFFFFFFFFFFFFFFFFFFFFFFFFF AND EQ DUP1 PUSH2 0x16F1 JUMPI POP PUSH1 0x1 ISZERO ISZERO PUSH1 0x1 PUSH1 0x0 DUP9 PUSH20 0xFFFFFFFFFFFFFFFFFFFFFFFFFFFFFFFFFFFFFFFF AND PUSH20 0xFFFFFFFFFFFFFFFFFFFFFFFFFFFFFFFFFFFFFFFF AND DUP2 MSTORE PUSH1 0x20 ADD SWAP1 DUP2 MSTORE PUSH1 0x20 ADD PUSH1 0x0 KECCAK256 PUSH1 0x0 CALLER PUSH20 0xFFFFFFFFFFFFFFFFFFFFFFFFFFFFFFFFFFFFFFFF AND PUSH20 0xFFFFFFFFFFFFFFFFFFFFFFFFFFFFFFFFFFFFFFFF AND DUP2 MSTORE PUSH1 0x20 ADD SWAP1 DUP2 MSTORE PUSH1 0x20 ADD PUSH1 0x0 KECCAK256 PUSH1 0x0 SWAP1 SLOAD SWAP1 PUSH2 0x100 EXP SWAP1 DIV PUSH1 0xFF AND ISZERO ISZERO EQ JUMPDEST PUSH2 0x1746 JUMPI PUSH1 0x40 MLOAD PUSH32 0x8C379A000000000000000000000000000000000000000000000000000000000 DUP2 MSTORE PUSH1 0x4 ADD DUP1 DUP1 PUSH1 0x20 ADD DUP3 DUP2 SUB DUP3 MSTORE PUSH1 0x2F DUP2 MSTORE PUSH1 0x20 ADD DUP1 PUSH2 0x1F69 PUSH1 0x2F SWAP2 CODECOPY PUSH1 0x40 ADD SWAP2 POP POP PUSH1 0x40 MLOAD DUP1 SWAP2 SUB SWAP1 REVERT JUMPDEST PUSH2 0x174F DUP5 PUSH2 0x14C5 JUMP JUMPDEST ISZERO PUSH2 0x1816 JUMPI DUP6 PUSH20 0xFFFFFFFFFFFFFFFFFFFFFFFFFFFFFFFFFFFFFFFF AND PUSH1 0x2 PUSH1 0x0 DUP7 DUP2 MSTORE PUSH1 0x20 ADD SWAP1 DUP2 MSTORE PUSH1 0x20 ADD PUSH1 0x0 KECCAK256 PUSH1 0x0 SWAP1 SLOAD SWAP1 PUSH2 0x100 EXP SWAP1 DIV PUSH20 0xFFFFFFFFFFFFFFFFFFFFFFFFFFFFFFFFFFFFFFFF AND PUSH20 0xFFFFFFFFFFFFFFFFFFFFFFFFFFFFFFFFFFFFFFFF AND EQ PUSH2 0x17BF JUMPI PUSH1 0x0 DUP1 REVERT JUMPDEST DUP5 PUSH1 0x2 PUSH1 0x0 DUP7 DUP2 MSTORE PUSH1 0x20 ADD SWAP1 DUP2 MSTORE PUSH1 0x20 ADD PUSH1 0x0 KECCAK256 PUSH1 0x0 PUSH2 0x100 EXP DUP2 SLOAD DUP2 PUSH20 0xFFFFFFFFFFFFFFFFFFFFFFFFFFFFFFFFFFFFFFFF MUL NOT AND SWAP1 DUP4 PUSH20 0xFFFFFFFFFFFFFFFFFFFFFFFFFFFFFFFFFFFFFFFF AND MUL OR SWAP1 SSTORE POP PUSH2 0x1981 JUMP JUMPDEST PUSH2 0x1878 DUP4 PUSH1 0x0 DUP1 DUP8 DUP2 MSTORE PUSH1 0x20 ADD SWAP1 DUP2 MSTORE PUSH1 0x20 ADD PUSH1 0x0 KECCAK256 PUSH1 0x0 DUP10 PUSH20 0xFFFFFFFFFFFFFFFFFFFFFFFFFFFFFFFFFFFFFFFF AND PUSH20 0xFFFFFFFFFFFFFFFFFFFFFFFFFFFFFFFFFFFFFFFF AND DUP2 MSTORE PUSH1 0x20 ADD SWAP1 DUP2 MSTORE PUSH1 0x20 ADD PUSH1 0x0 KECCAK256 SLOAD PUSH2 0x1A84 SWAP1 SWAP2 SWAP1 PUSH4 0xFFFFFFFF AND JUMP JUMPDEST PUSH1 0x0 DUP1 DUP7 DUP2 MSTORE PUSH1 0x20 ADD SWAP1 DUP2 MSTORE PUSH1 0x20 ADD PUSH1 0x0 KECCAK256 PUSH1 0x0 DUP9 PUSH20 0xFFFFFFFFFFFFFFFFFFFFFFFFFFFFFFFFFFFFFFFF AND PUSH20 0xFFFFFFFFFFFFFFFFFFFFFFFFFFFFFFFFFFFFFFFF AND DUP2 MSTORE PUSH1 0x20 ADD SWAP1 DUP2 MSTORE PUSH1 0x20 ADD PUSH1 0x0 KECCAK256 DUP2 SWAP1 SSTORE POP PUSH2 0x192D DUP4 PUSH1 0x0 DUP1 DUP8 DUP2 MSTORE PUSH1 0x20 ADD SWAP1 DUP2 MSTORE PUSH1 0x20 ADD PUSH1 0x0 KECCAK256 PUSH1 0x0 DUP9 PUSH20 0xFFFFFFFFFFFFFFFFFFFFFFFFFFFFFFFFFFFFFFFF AND PUSH20 0xFFFFFFFFFFFFFFFFFFFFFFFFFFFFFFFFFFFFFFFF AND DUP2 MSTORE PUSH1 0x20 ADD SWAP1 DUP2 MSTORE PUSH1 0x20 ADD PUSH1 0x0 KECCAK256 SLOAD PUSH2 0x1A9B SWAP1 SWAP2 SWAP1 PUSH4 0xFFFFFFFF AND JUMP JUMPDEST PUSH1 0x0 DUP1 DUP7 DUP2 MSTORE PUSH1 0x20 ADD SWAP1 DUP2 MSTORE PUSH1 0x20 ADD PUSH1 0x0 KECCAK256 PUSH1 0x0 DUP8 PUSH20 0xFFFFFFFFFFFFFFFFFFFFFFFFFFFFFFFFFFFFFFFF AND PUSH20 0xFFFFFFFFFFFFFFFFFFFFFFFFFFFFFFFFFFFFFFFF AND DUP2 MSTORE PUSH1 0x20 ADD SWAP1 DUP2 MSTORE PUSH1 0x20 ADD PUSH1 0x0 KECCAK256 DUP2 SWAP1 SSTORE POP JUMPDEST DUP5 PUSH20 0xFFFFFFFFFFFFFFFFFFFFFFFFFFFFFFFFFFFFFFFF AND DUP7 PUSH20 0xFFFFFFFFFFFFFFFFFFFFFFFFFFFFFFFFFFFFFFFF AND CALLER PUSH20 0xFFFFFFFFFFFFFFFFFFFFFFFFFFFFFFFFFFFFFFFF AND PUSH32 0xC3D58168C5AE7397731D063D5BBF3D657854427343F4C083240F7AACAA2D0F62 DUP8 DUP8 PUSH1 0x40 MLOAD DUP1 DUP4 DUP2 MSTORE PUSH1 0x20 ADD DUP3 DUP2 MSTORE PUSH1 0x20 ADD SWAP3 POP POP POP PUSH1 0x40 MLOAD DUP1 SWAP2 SUB SWAP1 LOG4 PUSH2 0x1A24 DUP6 PUSH20 0xFFFFFFFFFFFFFFFFFFFFFFFFFFFFFFFFFFFFFFFF AND PUSH2 0x1AB5 JUMP JUMPDEST ISZERO PUSH2 0x1A7C JUMPI PUSH2 0x1A7B CALLER DUP8 DUP8 DUP8 DUP8 DUP8 DUP8 DUP1 DUP1 PUSH1 0x1F ADD PUSH1 0x20 DUP1 SWAP2 DIV MUL PUSH1 0x20 ADD PUSH1 0x40 MLOAD SWAP1 DUP2 ADD PUSH1 0x40 MSTORE DUP1 SWAP4 SWAP3 SWAP2 SWAP1 DUP2 DUP2 MSTORE PUSH1 0x20 ADD DUP4 DUP4 DUP1 DUP3 DUP5 CALLDATACOPY PUSH1 0x0 DUP2 DUP5 ADD MSTORE PUSH1 0x1F NOT PUSH1 0x1F DUP3 ADD AND SWAP1 POP DUP1 DUP4 ADD SWAP3 POP POP POP POP POP POP POP PUSH2 0x1D59 JUMP JUMPDEST JUMPDEST POP POP POP POP POP POP JUMP JUMPDEST PUSH1 0x0 DUP3 DUP3 GT ISZERO PUSH2 0x1A90 JUMPI INVALID JUMPDEST DUP2 DUP4 SUB SWAP1 POP SWAP3 SWAP2 POP POP JUMP JUMPDEST PUSH1 0x0 DUP2 DUP4 ADD SWAP1 POP DUP3 DUP2 LT ISZERO PUSH2 0x1AAC JUMPI INVALID JUMPDEST DUP1 SWAP1 POP SWAP3 SWAP2 POP POP JUMP JUMPDEST PUSH1 0x0 DUP1 DUP3 EXTCODESIZE SWAP1 POP PUSH1 0x0 DUP2 GT SWAP2 POP POP SWAP2 SWAP1 POP JUMP JUMPDEST PUSH4 0xBC197C81 PUSH1 0xE0 SHL PUSH28 0xFFFFFFFFFFFFFFFFFFFFFFFFFFFFFFFFFFFFFFFFFFFFFFFFFFFFFFFF NOT AND DUP5 PUSH20 0xFFFFFFFFFFFFFFFFFFFFFFFFFFFFFFFFFFFFFFFF AND PUSH4 0xBC197C81 DUP9 DUP9 DUP8 DUP8 DUP8 PUSH1 0x40 MLOAD DUP7 PUSH4 0xFFFFFFFF AND PUSH1 0xE0 SHL DUP2 MSTORE PUSH1 0x4 ADD DUP1 DUP7 PUSH20 0xFFFFFFFFFFFFFFFFFFFFFFFFFFFFFFFFFFFFFFFF AND PUSH20 0xFFFFFFFFFFFFFFFFFFFFFFFFFFFFFFFFFFFFFFFF AND DUP2 MSTORE PUSH1 0x20 ADD DUP6 PUSH20 0xFFFFFFFFFFFFFFFFFFFFFFFFFFFFFFFFFFFFFFFF AND PUSH20 0xFFFFFFFFFFFFFFFFFFFFFFFFFFFFFFFFFFFFFFFF AND DUP2 MSTORE PUSH1 0x20 ADD DUP1 PUSH1 0x20 ADD DUP1 PUSH1 0x20 ADD DUP1 PUSH1 0x20 ADD DUP5 DUP2 SUB DUP5 MSTORE DUP8 DUP2 DUP2 MLOAD DUP2 MSTORE PUSH1 0x20 ADD SWAP2 POP DUP1 MLOAD SWAP1 PUSH1 0x20 ADD SWAP1 PUSH1 0x20 MUL DUP1 DUP4 DUP4 PUSH1 0x0 JUMPDEST DUP4 DUP2 LT ISZERO PUSH2 0x1BCE JUMPI DUP1 DUP3 ADD MLOAD DUP2 DUP5 ADD MSTORE PUSH1 0x20 DUP2 ADD SWAP1 POP PUSH2 0x1BB3 JUMP JUMPDEST POP POP POP POP SWAP1 POP ADD DUP5 DUP2 SUB DUP4 MSTORE DUP7 DUP2 DUP2 MLOAD DUP2 MSTORE PUSH1 0x20 ADD SWAP2 POP DUP1 MLOAD SWAP1 PUSH1 0x20 ADD SWAP1 PUSH1 0x20 MUL DUP1 DUP4 DUP4 PUSH1 0x0 JUMPDEST DUP4 DUP2 LT ISZERO PUSH2 0x1C10 JUMPI DUP1 DUP3 ADD MLOAD DUP2 DUP5 ADD MSTORE PUSH1 0x20 DUP2 ADD SWAP1 POP PUSH2 0x1BF5 JUMP JUMPDEST POP POP POP POP SWAP1 POP ADD DUP5 DUP2 SUB DUP3 MSTORE DUP6 DUP2 DUP2 MLOAD DUP2 MSTORE PUSH1 0x20 ADD SWAP2 POP DUP1 MLOAD SWAP1 PUSH1 0x20 ADD SWAP1 DUP1 DUP4 DUP4 PUSH1 0x0 JUMPDEST DUP4 DUP2 LT ISZERO PUSH2 0x1C4F JUMPI DUP1 DUP3 ADD MLOAD DUP2 DUP5 ADD MSTORE PUSH1 0x20 DUP2 ADD SWAP1 POP PUSH2 0x1C34 JUMP JUMPDEST POP POP POP POP SWAP1 POP SWAP1 DUP2 ADD SWAP1 PUSH1 0x1F AND DUP1 ISZERO PUSH2 0x1C7C JUMPI DUP1 DUP3 SUB DUP1 MLOAD PUSH1 0x1 DUP4 PUSH1 0x20 SUB PUSH2 0x100 EXP SUB NOT AND DUP2 MSTORE PUSH1 0x20 ADD SWAP2 POP JUMPDEST POP SWAP9 POP POP POP POP POP POP POP POP POP PUSH1 0x20 PUSH1 0x40 MLOAD DUP1 DUP4 SUB DUP2 PUSH1 0x0 DUP8 DUP1 EXTCODESIZE ISZERO DUP1 ISZERO PUSH2 0x1CA1 JUMPI PUSH1 0x0 DUP1 REVERT JUMPDEST POP GAS CALL ISZERO DUP1 ISZERO PUSH2 0x1CB5 JUMPI RETURNDATASIZE PUSH1 0x0 DUP1 RETURNDATACOPY RETURNDATASIZE PUSH1 0x0 REVERT JUMPDEST POP POP POP POP PUSH1 0x40 MLOAD RETURNDATASIZE PUSH1 0x20 DUP2 LT ISZERO PUSH2 0x1CCB JUMPI PUSH1 0x0 DUP1 REVERT JUMPDEST DUP2 ADD SWAP1 DUP1 DUP1 MLOAD SWAP1 PUSH1 0x20 ADD SWAP1 SWAP3 SWAP2 SWAP1 POP POP POP PUSH28 0xFFFFFFFFFFFFFFFFFFFFFFFFFFFFFFFFFFFFFFFFFFFFFFFFFFFFFFFF NOT AND EQ PUSH2 0x1D51 JUMPI PUSH1 0x40 MLOAD PUSH32 0x8C379A000000000000000000000000000000000000000000000000000000000 DUP2 MSTORE PUSH1 0x4 ADD DUP1 DUP1 PUSH1 0x20 ADD DUP3 DUP2 SUB DUP3 MSTORE PUSH1 0x3E DUP2 MSTORE PUSH1 0x20 ADD DUP1 PUSH2 0x1F98 PUSH1 0x3E SWAP2 CODECOPY PUSH1 0x40 ADD SWAP2 POP POP PUSH1 0x40 MLOAD DUP1 SWAP2 SUB SWAP1 REVERT JUMPDEST POP POP POP POP POP POP JUMP JUMPDEST PUSH4 0xF23A6E61 PUSH1 0xE0 SHL PUSH28 0xFFFFFFFFFFFFFFFFFFFFFFFFFFFFFFFFFFFFFFFFFFFFFFFFFFFFFFFF NOT AND DUP5 PUSH20 0xFFFFFFFFFFFFFFFFFFFFFFFFFFFFFFFFFFFFFFFF AND PUSH4 0xF23A6E61 DUP9 DUP9 DUP8 DUP8 DUP8 PUSH1 0x40 MLOAD DUP7 PUSH4 0xFFFFFFFF AND PUSH1 0xE0 SHL DUP2 MSTORE PUSH1 0x4 ADD DUP1 DUP7 PUSH20 0xFFFFFFFFFFFFFFFFFFFFFFFFFFFFFFFFFFFFFFFF AND PUSH20 0xFFFFFFFFFFFFFFFFFFFFFFFFFFFFFFFFFFFFFFFF AND DUP2 MSTORE PUSH1 0x20 ADD DUP6 PUSH20 0xFFFFFFFFFFFFFFFFFFFFFFFFFFFFFFFFFFFFFFFF AND PUSH20 0xFFFFFFFFFFFFFFFFFFFFFFFFFFFFFFFFFFFFFFFF AND DUP2 MSTORE PUSH1 0x20 ADD DUP5 DUP2 MSTORE PUSH1 0x20 ADD DUP4 DUP2 MSTORE PUSH1 0x20 ADD DUP1 PUSH1 0x20 ADD DUP3 DUP2 SUB DUP3 MSTORE DUP4 DUP2 DUP2 MLOAD DUP2 MSTORE PUSH1 0x20 ADD SWAP2 POP DUP1 MLOAD SWAP1 PUSH1 0x20 ADD SWAP1 DUP1 DUP4 DUP4 PUSH1 0x0 JUMPDEST DUP4 DUP2 LT ISZERO PUSH2 0x1E60 JUMPI DUP1 DUP3 ADD MLOAD DUP2 DUP5 ADD MSTORE PUSH1 0x20 DUP2 ADD SWAP1 POP PUSH2 0x1E45 JUMP JUMPDEST POP POP POP POP SWAP1 POP SWAP1 DUP2 ADD SWAP1 PUSH1 0x1F AND DUP1 ISZERO PUSH2 0x1E8D JUMPI DUP1 DUP3 SUB DUP1 MLOAD PUSH1 0x1 DUP4 PUSH1 0x20 SUB PUSH2 0x100 EXP SUB NOT AND DUP2 MSTORE PUSH1 0x20 ADD SWAP2 POP JUMPDEST POP SWAP7 POP POP POP POP POP POP POP PUSH1 0x20 PUSH1 0x40 MLOAD DUP1 DUP4 SUB DUP2 PUSH1 0x0 DUP8 DUP1 EXTCODESIZE ISZERO DUP1 ISZERO PUSH2 0x1EB0 JUMPI PUSH1 0x0 DUP1 REVERT JUMPDEST POP GAS CALL ISZERO DUP1 ISZERO PUSH2 0x1EC4 JUMPI RETURNDATASIZE PUSH1 0x0 DUP1 RETURNDATACOPY RETURNDATASIZE PUSH1 0x0 REVERT JUMPDEST POP POP POP POP PUSH1 0x40 MLOAD RETURNDATASIZE PUSH1 0x20 DUP2 LT ISZERO PUSH2 0x1EDA JUMPI PUSH1 0x0 DUP1 REVERT JUMPDEST DUP2 ADD SWAP1 DUP1 DUP1 MLOAD SWAP1 PUSH1 0x20 ADD SWAP1 SWAP3 SWAP2 SWAP1 POP POP POP PUSH28 0xFFFFFFFFFFFFFFFFFFFFFFFFFFFFFFFFFFFFFFFFFFFFFFFFFFFFFFFF NOT AND EQ PUSH2 0x1F60 JUMPI PUSH1 0x40 MLOAD PUSH32 0x8C379A000000000000000000000000000000000000000000000000000000000 DUP2 MSTORE PUSH1 0x4 ADD DUP1 DUP1 PUSH1 0x20 ADD DUP3 DUP2 SUB DUP3 MSTORE PUSH1 0x39 DUP2 MSTORE PUSH1 0x20 ADD DUP1 PUSH2 0x1FD6 PUSH1 0x39 SWAP2 CODECOPY PUSH1 0x40 ADD SWAP2 POP POP PUSH1 0x40 MLOAD DUP1 SWAP2 SUB SWAP1 REVERT JUMPDEST POP POP POP POP POP POP JUMP INVALID 0x4E PUSH6 0x6564206F7065 PUSH19 0x61746F7220617070726F76616C20666F722033 PUSH19 0x64207061727479207472616E73666572732E63 PUSH16 0x6E74726163742072657475726E656420 PUSH2 0x6E20 PUSH22 0x6E6B6E6F776E2076616C75652066726F6D206F6E4552 NUMBER BALANCE BALANCE CALLDATALOAD CALLDATALOAD TIMESTAMP PUSH2 0x7463 PUSH9 0x526563656976656463 PUSH16 0x6E74726163742072657475726E656420 PUSH2 0x6E20 PUSH22 0x6E6B6E6F776E2076616C75652066726F6D206F6E4552 NUMBER BALANCE BALANCE CALLDATALOAD CALLDATALOAD MSTORE PUSH6 0x636569766564 LOG2 PUSH6 0x627A7A723158 KECCAK256 PUSH30 0xE3B308F663CC60C7E71DBBFF35994DE499DAA31A25ABA5DB06E706953E08 0xC4 PUSH5 0x736F6C6343 STOP SDIV GT STOP ORIGIN "
				},
				"gasEstimates": {
					"creation": {
						"codeDepositCost": "1651800",
						"executionCost": "1736",
						"totalCost": "1653536"
					},
					"external": {
						"balanceOf(address,uint256)": "1457",
						"balanceOfBatch(address[],uint256[])": "infinite",
						"getNonFungibleBaseType(uint256)": "410",
						"getNonFungibleIndex(uint256)": "357",
						"isApprovedForAll(address,address)": "1435",
						"isFungible(uint256)": "346",
						"isNonFungible(uint256)": "368",
						"isNonFungibleBaseType(uint256)": "390",
						"isNonFungibleItem(uint256)": "415",
						"ownerOf(uint256)": "1293",
						"safeBatchTransferFrom(address,address,uint256[],uint256[],bytes)": "infinite",
						"safeTransferFrom(address,address,uint256,uint256,bytes)": "infinite",
						"setApprovalForAll(address,bool)": "23228",
						"supportsInterface(bytes4)": "480"
					}
				},
				"methodIdentifiers": {
					"balanceOf(address,uint256)": "00fdd58e",
					"balanceOfBatch(address[],uint256[])": "4e1273f4",
					"getNonFungibleBaseType(uint256)": "6f969c2d",
					"getNonFungibleIndex(uint256)": "9cca1c64",
					"isApprovedForAll(address,address)": "e985e9c5",
					"isFungible(uint256)": "adebf6f2",
					"isNonFungible(uint256)": "e44591f0",
					"isNonFungibleBaseType(uint256)": "7269a327",
					"isNonFungibleItem(uint256)": "5e81b958",
					"ownerOf(uint256)": "6352211e",
					"safeBatchTransferFrom(address,address,uint256[],uint256[],bytes)": "2eb2c2d6",
					"safeTransferFrom(address,address,uint256,uint256,bytes)": "f242432a",
					"setApprovalForAll(address,bool)": "a22cb465",
					"supportsInterface(bytes4)": "01ffc9a7"
				}
			},
			"userdoc": {
				"methods": {
					"isApprovedForAll(address,address)": {
						"notice": "Queries the approval status of an operator for a given owner."
					},
					"setApprovalForAll(address,bool)": {
						"notice": "Enable or disable approval for a third party (\"operator\") to manage all of the caller's tokens."
					}
				}
			}
		}
	}
}